{
	"Appointment.sol": {
		"HospitalManagement": {
			"abi": [
				{
					"inputs": [
						{
							"internalType": "address",
							"name": "_doctorAddress",
							"type": "address"
						}
					],
					"stateMutability": "nonpayable",
					"type": "constructor"
				},
				{
					"anonymous": false,
					"inputs": [
						{
							"indexed": false,
							"internalType": "address",
							"name": "patientAddress",
							"type": "address"
						},
						{
							"indexed": false,
							"internalType": "uint256",
							"name": "appointmentTime",
							"type": "uint256"
						}
					],
					"name": "AppointmentConfirmed",
					"type": "event"
				},
				{
					"anonymous": false,
					"inputs": [
						{
							"indexed": false,
							"internalType": "address",
							"name": "patientAddress",
							"type": "address"
						},
						{
							"indexed": false,
							"internalType": "uint256",
							"name": "appointmentTime",
							"type": "uint256"
						}
					],
					"name": "AppointmentRejected",
					"type": "event"
				},
				{
					"inputs": [
						{
							"internalType": "uint256",
							"name": "",
							"type": "uint256"
						}
					],
					"name": "appointments",
					"outputs": [
						{
							"internalType": "address",
							"name": "patientAddress",
							"type": "address"
						},
						{
							"internalType": "uint256",
							"name": "appointmentTime",
							"type": "uint256"
						},
						{
							"internalType": "string",
							"name": "reason",
							"type": "string"
						},
						{
							"internalType": "bool",
							"name": "confirmed",
							"type": "bool"
						}
					],
					"stateMutability": "view",
					"type": "function"
				},
				{
					"inputs": [
						{
							"internalType": "uint256",
							"name": "_appointmentTime",
							"type": "uint256"
						},
						{
							"internalType": "string",
							"name": "_reason",
							"type": "string"
						}
					],
					"name": "bookAppointment",
					"outputs": [],
					"stateMutability": "nonpayable",
					"type": "function"
				},
				{
					"inputs": [],
					"name": "doctor",
					"outputs": [
						{
							"internalType": "address",
							"name": "",
							"type": "address"
						}
					],
					"stateMutability": "view",
					"type": "function"
				},
				{
					"inputs": [],
					"name": "getAppointments",
					"outputs": [
						{
							"components": [
								{
									"internalType": "address",
									"name": "patientAddress",
									"type": "address"
								},
								{
									"internalType": "uint256",
									"name": "appointmentTime",
									"type": "uint256"
								},
								{
									"internalType": "string",
									"name": "reason",
									"type": "string"
								},
								{
									"internalType": "bool",
									"name": "confirmed",
									"type": "bool"
								}
							],
							"internalType": "struct HospitalManagement.Appointment[]",
							"name": "",
							"type": "tuple[]"
						}
					],
					"stateMutability": "view",
					"type": "function"
				},
				{
					"inputs": [
						{
							"internalType": "address",
							"name": "",
							"type": "address"
						}
					],
					"name": "patients",
					"outputs": [
						{
							"internalType": "bool",
							"name": "exists",
							"type": "bool"
						},
						{
							"internalType": "string",
							"name": "name",
							"type": "string"
						},
						{
							"internalType": "uint256",
							"name": "age",
							"type": "uint256"
						},
						{
							"internalType": "string",
							"name": "medicalHistory",
							"type": "string"
						}
					],
					"stateMutability": "view",
					"type": "function"
				},
				{
					"inputs": [
						{
							"internalType": "string",
							"name": "_name",
							"type": "string"
						},
						{
							"internalType": "uint256",
							"name": "_age",
							"type": "uint256"
						},
						{
							"internalType": "string",
							"name": "_medicalHistory",
							"type": "string"
						}
					],
					"name": "registerPatient",
					"outputs": [],
					"stateMutability": "nonpayable",
					"type": "function"
				},
				{
					"inputs": [
						{
							"internalType": "uint256",
							"name": "_appointmentIndex",
							"type": "uint256"
						},
						{
							"internalType": "bool",
							"name": "_confirm",
							"type": "bool"
						}
					],
					"name": "respondToAppointment",
					"outputs": [],
					"stateMutability": "nonpayable",
					"type": "function"
				}
			],
			"devdoc": {
				"kind": "dev",
				"methods": {},
				"version": 1
			},
			"evm": {
				"assembly": "    /* \"Appointment.sol\":60:2441  contract HospitalManagement {... */\n  mstore(0x40, 0x80)\n    /* \"Appointment.sol\":681:805  constructor(address _doctorAddress) {... */\n  callvalue\n  dup1\n  iszero\n  tag_1\n  jumpi\n  0x00\n  dup1\n  revert\ntag_1:\n  pop\n  mload(0x40)\n  sub(codesize, bytecodeSize)\n  dup1\n  bytecodeSize\n  dup4\n  codecopy\n  dup2\n  dup2\n  add\n  0x40\n  mstore\n  dup2\n  add\n  swap1\n  tag_2\n  swap2\n  swap1\n  tag_3\n  jump\t// in\ntag_2:\n    /* \"Appointment.sol\":737:751  _doctorAddress */\n  dup1\n    /* \"Appointment.sol\":728:734  doctor */\n  0x02\n  0x00\n    /* \"Appointment.sol\":728:751  doctor = _doctorAddress */\n  0x0100\n  exp\n  dup2\n  sload\n  dup2\n  0xffffffffffffffffffffffffffffffffffffffff\n  mul\n  not\n  and\n  swap1\n  dup4\n  0xffffffffffffffffffffffffffffffffffffffff\n  and\n  mul\n  or\n  swap1\n  sstore\n  pop\n    /* \"Appointment.sol\":681:805  constructor(address _doctorAddress) {... */\n  pop\n    /* \"Appointment.sol\":60:2441  contract HospitalManagement {... */\n  jump(tag_6)\n    /* \"#utility.yul\":88:205   */\ntag_8:\n    /* \"#utility.yul\":197:198   */\n  0x00\n    /* \"#utility.yul\":194:195   */\n  dup1\n    /* \"#utility.yul\":187:199   */\n  revert\n    /* \"#utility.yul\":334:460   */\ntag_10:\n    /* \"#utility.yul\":371:378   */\n  0x00\n    /* \"#utility.yul\":411:453   */\n  0xffffffffffffffffffffffffffffffffffffffff\n    /* \"#utility.yul\":404:409   */\n  dup3\n    /* \"#utility.yul\":400:454   */\n  and\n    /* \"#utility.yul\":389:454   */\n  swap1\n  pop\n    /* \"#utility.yul\":334:460   */\n  swap2\n  swap1\n  pop\n  jump\t// out\n    /* \"#utility.yul\":466:562   */\ntag_11:\n    /* \"#utility.yul\":503:510   */\n  0x00\n    /* \"#utility.yul\":532:556   */\n  tag_20\n    /* \"#utility.yul\":550:555   */\n  dup3\n    /* \"#utility.yul\":532:556   */\n  tag_10\n  jump\t// in\ntag_20:\n    /* \"#utility.yul\":521:556   */\n  swap1\n  pop\n    /* \"#utility.yul\":466:562   */\n  swap2\n  swap1\n  pop\n  jump\t// out\n    /* \"#utility.yul\":568:690   */\ntag_12:\n    /* \"#utility.yul\":641:665   */\n  tag_22\n    /* \"#utility.yul\":659:664   */\n  dup2\n    /* \"#utility.yul\":641:665   */\n  tag_11\n  jump\t// in\ntag_22:\n    /* \"#utility.yul\":634:639   */\n  dup2\n    /* \"#utility.yul\":631:666   */\n  eq\n    /* \"#utility.yul\":621:684   */\n  tag_23\n  jumpi\n    /* \"#utility.yul\":680:681   */\n  0x00\n    /* \"#utility.yul\":677:678   */\n  dup1\n    /* \"#utility.yul\":670:682   */\n  revert\n    /* \"#utility.yul\":621:684   */\ntag_23:\n    /* \"#utility.yul\":568:690   */\n  pop\n  jump\t// out\n    /* \"#utility.yul\":696:839   */\ntag_13:\n    /* \"#utility.yul\":753:758   */\n  0x00\n    /* \"#utility.yul\":784:790   */\n  dup2\n    /* \"#utility.yul\":778:791   */\n  mload\n    /* \"#utility.yul\":769:791   */\n  swap1\n  pop\n    /* \"#utility.yul\":800:833   */\n  tag_25\n    /* \"#utility.yul\":827:832   */\n  dup2\n    /* \"#utility.yul\":800:833   */\n  tag_12\n  jump\t// in\ntag_25:\n    /* \"#utility.yul\":696:839   */\n  swap3\n  swap2\n  pop\n  pop\n  jump\t// out\n    /* \"#utility.yul\":845:1196   */\ntag_3:\n    /* \"#utility.yul\":915:921   */\n  0x00\n    /* \"#utility.yul\":964:966   */\n  0x20\n    /* \"#utility.yul\":952:961   */\n  dup3\n    /* \"#utility.yul\":943:950   */\n  dup5\n    /* \"#utility.yul\":939:962   */\n  sub\n    /* \"#utility.yul\":935:967   */\n  slt\n    /* \"#utility.yul\":932:1051   */\n  iszero\n  tag_27\n  jumpi\n    /* \"#utility.yul\":970:1049   */\n  tag_28\n  tag_8\n  jump\t// in\ntag_28:\n    /* \"#utility.yul\":932:1051   */\ntag_27:\n    /* \"#utility.yul\":1090:1091   */\n  0x00\n    /* \"#utility.yul\":1115:1179   */\n  tag_29\n    /* \"#utility.yul\":1171:1178   */\n  dup5\n    /* \"#utility.yul\":1162:1168   */\n  dup3\n    /* \"#utility.yul\":1151:1160   */\n  dup6\n    /* \"#utility.yul\":1147:1169   */\n  add\n    /* \"#utility.yul\":1115:1179   */\n  tag_13\n  jump\t// in\ntag_29:\n    /* \"#utility.yul\":1105:1179   */\n  swap2\n  pop\n    /* \"#utility.yul\":1061:1189   */\n  pop\n    /* \"#utility.yul\":845:1196   */\n  swap3\n  swap2\n  pop\n  pop\n  jump\t// out\n    /* \"Appointment.sol\":60:2441  contract HospitalManagement {... */\ntag_6:\n  dataSize(sub_0)\n  dup1\n  dataOffset(sub_0)\n  0x00\n  codecopy\n  0x00\n  return\nstop\n\nsub_0: assembly {\n        /* \"Appointment.sol\":60:2441  contract HospitalManagement {... */\n      mstore(0x40, 0x80)\n      callvalue\n      dup1\n      iszero\n      tag_1\n      jumpi\n      0x00\n      dup1\n      revert\n    tag_1:\n      pop\n      jumpi(tag_2, lt(calldatasize, 0x04))\n      shr(0xe0, calldataload(0x00))\n      dup1\n      0x6e4abaae\n      gt\n      tag_10\n      jumpi\n      dup1\n      0x6e4abaae\n      eq\n      tag_6\n      jumpi\n      dup1\n      0x7ea7118c\n      eq\n      tag_7\n      jumpi\n      dup1\n      0x96b80d08\n      eq\n      tag_8\n      jumpi\n      dup1\n      0xf1d6e254\n      eq\n      tag_9\n      jumpi\n      jump(tag_2)\n    tag_10:\n      dup1\n      0x0869cfbc\n      eq\n      tag_3\n      jumpi\n      dup1\n      0x12dc9013\n      eq\n      tag_4\n      jumpi\n      dup1\n      0x1d14c36e\n      eq\n      tag_5\n      jumpi\n    tag_2:\n      0x00\n      dup1\n      revert\n        /* \"Appointment.sol\":369:412  mapping(address => Patient) public patients */\n    tag_3:\n      tag_11\n      0x04\n      dup1\n      calldatasize\n      sub\n      dup2\n      add\n      swap1\n      tag_12\n      swap2\n      swap1\n      tag_13\n      jump\t// in\n    tag_12:\n      tag_14\n      jump\t// in\n    tag_11:\n      mload(0x40)\n      tag_15\n      swap5\n      swap4\n      swap3\n      swap2\n      swap1\n      tag_16\n      jump\t// in\n    tag_15:\n      mload(0x40)\n      dup1\n      swap2\n      sub\n      swap1\n      return\n        /* \"Appointment.sol\":419:452  Appointment[] public appointments */\n    tag_4:\n      tag_17\n      0x04\n      dup1\n      calldatasize\n      sub\n      dup2\n      add\n      swap1\n      tag_18\n      swap2\n      swap1\n      tag_19\n      jump\t// in\n    tag_18:\n      tag_20\n      jump\t// in\n    tag_17:\n      mload(0x40)\n      tag_21\n      swap5\n      swap4\n      swap3\n      swap2\n      swap1\n      tag_22\n      jump\t// in\n    tag_21:\n      mload(0x40)\n      dup1\n      swap2\n      sub\n      swap1\n      return\n        /* \"Appointment.sol\":838:1018  function registerPatient(string memory _name, uint _age, string memory _medicalHistory) public {... */\n    tag_5:\n      tag_23\n      0x04\n      dup1\n      calldatasize\n      sub\n      dup2\n      add\n      swap1\n      tag_24\n      swap2\n      swap1\n      tag_25\n      jump\t// in\n    tag_24:\n      tag_26\n      jump\t// in\n    tag_23:\n      stop\n        /* \"Appointment.sol\":1051:1512  function bookAppointment(uint _appointmentTime, string memory _reason) public {... */\n    tag_6:\n      tag_27\n      0x04\n      dup1\n      calldatasize\n      sub\n      dup2\n      add\n      swap1\n      tag_28\n      swap2\n      swap1\n      tag_29\n      jump\t// in\n    tag_28:\n      tag_30\n      jump\t// in\n    tag_27:\n      stop\n        /* \"Appointment.sol\":489:510  address public doctor */\n    tag_7:\n      tag_31\n      tag_32\n      jump\t// in\n    tag_31:\n      mload(0x40)\n      tag_33\n      swap2\n      swap1\n      tag_34\n      jump\t// in\n    tag_33:\n      mload(0x40)\n      dup1\n      swap2\n      sub\n      swap1\n      return\n        /* \"Appointment.sol\":2156:2264  function getAppointments() public view returns (Appointment[] memory) {... */\n    tag_8:\n      tag_35\n      tag_36\n      jump\t// in\n    tag_35:\n      mload(0x40)\n      tag_37\n      swap2\n      swap1\n      tag_38\n      jump\t// in\n    tag_37:\n      mload(0x40)\n      dup1\n      swap2\n      sub\n      swap1\n      return\n        /* \"Appointment.sol\":1551:2104  function respondToAppointment(uint _appointmentIndex, bool _confirm) public onlyDoctor {... */\n    tag_9:\n      tag_39\n      0x04\n      dup1\n      calldatasize\n      sub\n      dup2\n      add\n      swap1\n      tag_40\n      swap2\n      swap1\n      tag_41\n      jump\t// in\n    tag_40:\n      tag_42\n      jump\t// in\n    tag_39:\n      stop\n        /* \"Appointment.sol\":369:412  mapping(address => Patient) public patients */\n    tag_14:\n      mstore(0x20, 0x00)\n      dup1\n      0x00\n      mstore\n      keccak256(0x00, 0x40)\n      0x00\n      swap2\n      pop\n      swap1\n      pop\n      dup1\n      0x00\n      add\n      0x00\n      swap1\n      sload\n      swap1\n      0x0100\n      exp\n      swap1\n      div\n      0xff\n      and\n      swap1\n      dup1\n      0x01\n      add\n      dup1\n      sload\n      tag_43\n      swap1\n      tag_44\n      jump\t// in\n    tag_43:\n      dup1\n      0x1f\n      add\n      0x20\n      dup1\n      swap2\n      div\n      mul\n      0x20\n      add\n      mload(0x40)\n      swap1\n      dup2\n      add\n      0x40\n      mstore\n      dup1\n      swap3\n      swap2\n      swap1\n      dup2\n      dup2\n      mstore\n      0x20\n      add\n      dup3\n      dup1\n      sload\n      tag_45\n      swap1\n      tag_44\n      jump\t// in\n    tag_45:\n      dup1\n      iszero\n      tag_46\n      jumpi\n      dup1\n      0x1f\n      lt\n      tag_47\n      jumpi\n      0x0100\n      dup1\n      dup4\n      sload\n      div\n      mul\n      dup4\n      mstore\n      swap2\n      0x20\n      add\n      swap2\n      jump(tag_46)\n    tag_47:\n      dup3\n      add\n      swap2\n      swap1\n      0x00\n      mstore\n      keccak256(0x00, 0x20)\n      swap1\n    tag_48:\n      dup2\n      sload\n      dup2\n      mstore\n      swap1\n      0x01\n      add\n      swap1\n      0x20\n      add\n      dup1\n      dup4\n      gt\n      tag_48\n      jumpi\n      dup3\n      swap1\n      sub\n      0x1f\n      and\n      dup3\n      add\n      swap2\n    tag_46:\n      pop\n      pop\n      pop\n      pop\n      pop\n      swap1\n      dup1\n      0x02\n      add\n      sload\n      swap1\n      dup1\n      0x03\n      add\n      dup1\n      sload\n      tag_49\n      swap1\n      tag_44\n      jump\t// in\n    tag_49:\n      dup1\n      0x1f\n      add\n      0x20\n      dup1\n      swap2\n      div\n      mul\n      0x20\n      add\n      mload(0x40)\n      swap1\n      dup2\n      add\n      0x40\n      mstore\n      dup1\n      swap3\n      swap2\n      swap1\n      dup2\n      dup2\n      mstore\n      0x20\n      add\n      dup3\n      dup1\n      sload\n      tag_50\n      swap1\n      tag_44\n      jump\t// in\n    tag_50:\n      dup1\n      iszero\n      tag_51\n      jumpi\n      dup1\n      0x1f\n      lt\n      tag_52\n      jumpi\n      0x0100\n      dup1\n      dup4\n      sload\n      div\n      mul\n      dup4\n      mstore\n      swap2\n      0x20\n      add\n      swap2\n      jump(tag_51)\n    tag_52:\n      dup3\n      add\n      swap2\n      swap1\n      0x00\n      mstore\n      keccak256(0x00, 0x20)\n      swap1\n    tag_53:\n      dup2\n      sload\n      dup2\n      mstore\n      swap1\n      0x01\n      add\n      swap1\n      0x20\n      add\n      dup1\n      dup4\n      gt\n      tag_53\n      jumpi\n      dup3\n      swap1\n      sub\n      0x1f\n      and\n      dup3\n      add\n      swap2\n    tag_51:\n      pop\n      pop\n      pop\n      pop\n      pop\n      swap1\n      pop\n      dup5\n      jump\t// out\n        /* \"Appointment.sol\":419:452  Appointment[] public appointments */\n    tag_20:\n      0x01\n      dup2\n      dup2\n      sload\n      dup2\n      lt\n      tag_54\n      jumpi\n      0x00\n      dup1\n      revert\n    tag_54:\n      swap1\n      0x00\n      mstore\n      keccak256(0x00, 0x20)\n      swap1\n      0x04\n      mul\n      add\n      0x00\n      swap2\n      pop\n      swap1\n      pop\n      dup1\n      0x00\n      add\n      0x00\n      swap1\n      sload\n      swap1\n      0x0100\n      exp\n      swap1\n      div\n      0xffffffffffffffffffffffffffffffffffffffff\n      and\n      swap1\n      dup1\n      0x01\n      add\n      sload\n      swap1\n      dup1\n      0x02\n      add\n      dup1\n      sload\n      tag_56\n      swap1\n      tag_44\n      jump\t// in\n    tag_56:\n      dup1\n      0x1f\n      add\n      0x20\n      dup1\n      swap2\n      div\n      mul\n      0x20\n      add\n      mload(0x40)\n      swap1\n      dup2\n      add\n      0x40\n      mstore\n      dup1\n      swap3\n      swap2\n      swap1\n      dup2\n      dup2\n      mstore\n      0x20\n      add\n      dup3\n      dup1\n      sload\n      tag_57\n      swap1\n      tag_44\n      jump\t// in\n    tag_57:\n      dup1\n      iszero\n      tag_58\n      jumpi\n      dup1\n      0x1f\n      lt\n      tag_59\n      jumpi\n      0x0100\n      dup1\n      dup4\n      sload\n      div\n      mul\n      dup4\n      mstore\n      swap2\n      0x20\n      add\n      swap2\n      jump(tag_58)\n    tag_59:\n      dup3\n      add\n      swap2\n      swap1\n      0x00\n      mstore\n      keccak256(0x00, 0x20)\n      swap1\n    tag_60:\n      dup2\n      sload\n      dup2\n      mstore\n      swap1\n      0x01\n      add\n      swap1\n      0x20\n      add\n      dup1\n      dup4\n      gt\n      tag_60\n      jumpi\n      dup3\n      swap1\n      sub\n      0x1f\n      and\n      dup3\n      add\n      swap2\n    tag_58:\n      pop\n      pop\n      pop\n      pop\n      pop\n      swap1\n      dup1\n      0x03\n      add\n      0x00\n      swap1\n      sload\n      swap1\n      0x0100\n      exp\n      swap1\n      div\n      0xff\n      and\n      swap1\n      pop\n      dup5\n      jump\t// out\n        /* \"Appointment.sol\":838:1018  function registerPatient(string memory _name, uint _age, string memory _medicalHistory) public {... */\n    tag_26:\n        /* \"Appointment.sol\":967:1010  Patient(true, _name, _age, _medicalHistory) */\n      mload(0x40)\n      dup1\n      0x80\n      add\n      0x40\n      mstore\n      dup1\n        /* \"Appointment.sol\":975:979  true */\n      0x01\n        /* \"Appointment.sol\":967:1010  Patient(true, _name, _age, _medicalHistory) */\n      iszero\n      iszero\n      dup2\n      mstore\n      0x20\n      add\n        /* \"Appointment.sol\":981:986  _name */\n      dup5\n        /* \"Appointment.sol\":967:1010  Patient(true, _name, _age, _medicalHistory) */\n      dup2\n      mstore\n      0x20\n      add\n        /* \"Appointment.sol\":988:992  _age */\n      dup4\n        /* \"Appointment.sol\":967:1010  Patient(true, _name, _age, _medicalHistory) */\n      dup2\n      mstore\n      0x20\n      add\n        /* \"Appointment.sol\":994:1009  _medicalHistory */\n      dup3\n        /* \"Appointment.sol\":967:1010  Patient(true, _name, _age, _medicalHistory) */\n      dup2\n      mstore\n      pop\n        /* \"Appointment.sol\":944:952  patients */\n      0x00\n        /* \"Appointment.sol\":944:964  patients[msg.sender] */\n      dup1\n        /* \"Appointment.sol\":953:963  msg.sender */\n      caller\n        /* \"Appointment.sol\":944:964  patients[msg.sender] */\n      0xffffffffffffffffffffffffffffffffffffffff\n      and\n      0xffffffffffffffffffffffffffffffffffffffff\n      and\n      dup2\n      mstore\n      0x20\n      add\n      swap1\n      dup2\n      mstore\n      0x20\n      add\n      0x00\n      keccak256\n        /* \"Appointment.sol\":944:1010  patients[msg.sender] = Patient(true, _name, _age, _medicalHistory) */\n      0x00\n      dup3\n      add\n      mload\n      dup2\n      0x00\n      add\n      exp(0x0100, 0x00)\n      dup2\n      sload\n      dup2\n      0xff\n      mul\n      not\n      and\n      swap1\n      dup4\n      iszero\n      iszero\n      mul\n      or\n      swap1\n      sstore\n      pop\n      0x20\n      dup3\n      add\n      mload\n      dup2\n      0x01\n      add\n      swap1\n      dup2\n      tag_62\n      swap2\n      swap1\n      tag_63\n      jump\t// in\n    tag_62:\n      pop\n      0x40\n      dup3\n      add\n      mload\n      dup2\n      0x02\n      add\n      sstore\n      0x60\n      dup3\n      add\n      mload\n      dup2\n      0x03\n      add\n      swap1\n      dup2\n      tag_64\n      swap2\n      swap1\n      tag_63\n      jump\t// in\n    tag_64:\n      pop\n      swap1\n      pop\n      pop\n        /* \"Appointment.sol\":838:1018  function registerPatient(string memory _name, uint _age, string memory _medicalHistory) public {... */\n      pop\n      pop\n      pop\n      jump\t// out\n        /* \"Appointment.sol\":1051:1512  function bookAppointment(uint _appointmentTime, string memory _reason) public {... */\n    tag_30:\n        /* \"Appointment.sol\":1148:1156  patients */\n      0x00\n        /* \"Appointment.sol\":1148:1168  patients[msg.sender] */\n      dup1\n        /* \"Appointment.sol\":1157:1167  msg.sender */\n      caller\n        /* \"Appointment.sol\":1148:1168  patients[msg.sender] */\n      0xffffffffffffffffffffffffffffffffffffffff\n      and\n      0xffffffffffffffffffffffffffffffffffffffff\n      and\n      dup2\n      mstore\n      0x20\n      add\n      swap1\n      dup2\n      mstore\n      0x20\n      add\n      0x00\n      keccak256\n        /* \"Appointment.sol\":1148:1175  patients[msg.sender].exists */\n      0x00\n      add\n      0x00\n      swap1\n      sload\n      swap1\n      0x0100\n      exp\n      swap1\n      div\n      0xff\n      and\n        /* \"Appointment.sol\":1140:1202  require(patients[msg.sender].exists, \"Patient not registered\") */\n      tag_66\n      jumpi\n      mload(0x40)\n      0x08c379a000000000000000000000000000000000000000000000000000000000\n      dup2\n      mstore\n      0x04\n      add\n      tag_67\n      swap1\n      tag_68\n      jump\t// in\n    tag_67:\n      mload(0x40)\n      dup1\n      swap2\n      sub\n      swap1\n      revert\n    tag_66:\n        /* \"Appointment.sol\":1240:1255  block.timestamp */\n      timestamp\n        /* \"Appointment.sol\":1221:1237  _appointmentTime */\n      dup3\n        /* \"Appointment.sol\":1221:1255  _appointmentTime > block.timestamp */\n      gt\n        /* \"Appointment.sol\":1213:1298  require(_appointmentTime > block.timestamp, \"Appointment time must be in the future\") */\n      tag_69\n      jumpi\n      mload(0x40)\n      0x08c379a000000000000000000000000000000000000000000000000000000000\n      dup2\n      mstore\n      0x04\n      add\n      tag_70\n      swap1\n      tag_71\n      jump\t// in\n    tag_70:\n      mload(0x40)\n      dup1\n      swap2\n      sub\n      swap1\n      revert\n    tag_69:\n        /* \"Appointment.sol\":1311:1323  appointments */\n      0x01\n        /* \"Appointment.sol\":1329:1503  Appointment({... */\n      mload(0x40)\n      dup1\n      0x80\n      add\n      0x40\n      mstore\n      dup1\n        /* \"Appointment.sol\":1372:1382  msg.sender */\n      caller\n        /* \"Appointment.sol\":1329:1503  Appointment({... */\n      0xffffffffffffffffffffffffffffffffffffffff\n      and\n      dup2\n      mstore\n      0x20\n      add\n        /* \"Appointment.sol\":1414:1430  _appointmentTime */\n      dup5\n        /* \"Appointment.sol\":1329:1503  Appointment({... */\n      dup2\n      mstore\n      0x20\n      add\n        /* \"Appointment.sol\":1453:1460  _reason */\n      dup4\n        /* \"Appointment.sol\":1329:1503  Appointment({... */\n      dup2\n      mstore\n      0x20\n      add\n        /* \"Appointment.sol\":1486:1491  false */\n      0x00\n        /* \"Appointment.sol\":1329:1503  Appointment({... */\n      iszero\n      iszero\n      dup2\n      mstore\n      pop\n        /* \"Appointment.sol\":1311:1504  appointments.push(Appointment({... */\n      swap1\n      dup1\n      0x01\n      dup2\n      sload\n      add\n      dup1\n      dup3\n      sstore\n      dup1\n      swap2\n      pop\n      pop\n      0x01\n      swap1\n      sub\n      swap1\n      0x00\n      mstore\n      keccak256(0x00, 0x20)\n      swap1\n      0x04\n      mul\n      add\n      0x00\n      swap1\n      swap2\n      swap1\n      swap2\n      swap1\n      swap2\n      pop\n      0x00\n      dup3\n      add\n      mload\n      dup2\n      0x00\n      add\n      exp(0x0100, 0x00)\n      dup2\n      sload\n      dup2\n      0xffffffffffffffffffffffffffffffffffffffff\n      mul\n      not\n      and\n      swap1\n      dup4\n      0xffffffffffffffffffffffffffffffffffffffff\n      and\n      mul\n      or\n      swap1\n      sstore\n      pop\n      0x20\n      dup3\n      add\n      mload\n      dup2\n      0x01\n      add\n      sstore\n      0x40\n      dup3\n      add\n      mload\n      dup2\n      0x02\n      add\n      swap1\n      dup2\n      tag_73\n      swap2\n      swap1\n      tag_63\n      jump\t// in\n    tag_73:\n      pop\n      0x60\n      dup3\n      add\n      mload\n      dup2\n      0x03\n      add\n      exp(0x0100, 0x00)\n      dup2\n      sload\n      dup2\n      0xff\n      mul\n      not\n      and\n      swap1\n      dup4\n      iszero\n      iszero\n      mul\n      or\n      swap1\n      sstore\n      pop\n      pop\n      pop\n        /* \"Appointment.sol\":1051:1512  function bookAppointment(uint _appointmentTime, string memory _reason) public {... */\n      pop\n      pop\n      jump\t// out\n        /* \"Appointment.sol\":489:510  address public doctor */\n    tag_32:\n      0x02\n      0x00\n      swap1\n      sload\n      swap1\n      0x0100\n      exp\n      swap1\n      div\n      0xffffffffffffffffffffffffffffffffffffffff\n      and\n      dup2\n      jump\t// out\n        /* \"Appointment.sol\":2156:2264  function getAppointments() public view returns (Appointment[] memory) {... */\n    tag_36:\n        /* \"Appointment.sol\":2204:2224  Appointment[] memory */\n      0x60\n        /* \"Appointment.sol\":2244:2256  appointments */\n      0x01\n        /* \"Appointment.sol\":2237:2256  return appointments */\n      dup1\n      sload\n      dup1\n      0x20\n      mul\n      0x20\n      add\n      mload(0x40)\n      swap1\n      dup2\n      add\n      0x40\n      mstore\n      dup1\n      swap3\n      swap2\n      swap1\n      dup2\n      dup2\n      mstore\n      0x20\n      add\n      0x00\n      swap1\n    tag_75:\n      dup3\n      dup3\n      lt\n      iszero\n      tag_76\n      jumpi\n      dup4\n      dup3\n      swap1\n      0x00\n      mstore\n      keccak256(0x00, 0x20)\n      swap1\n      0x04\n      mul\n      add\n      mload(0x40)\n      dup1\n      0x80\n      add\n      0x40\n      mstore\n      swap1\n      dup2\n      0x00\n      dup3\n      add\n      0x00\n      swap1\n      sload\n      swap1\n      0x0100\n      exp\n      swap1\n      div\n      0xffffffffffffffffffffffffffffffffffffffff\n      and\n      0xffffffffffffffffffffffffffffffffffffffff\n      and\n      0xffffffffffffffffffffffffffffffffffffffff\n      and\n      dup2\n      mstore\n      0x20\n      add\n      0x01\n      dup3\n      add\n      sload\n      dup2\n      mstore\n      0x20\n      add\n      0x02\n      dup3\n      add\n      dup1\n      sload\n      tag_78\n      swap1\n      tag_44\n      jump\t// in\n    tag_78:\n      dup1\n      0x1f\n      add\n      0x20\n      dup1\n      swap2\n      div\n      mul\n      0x20\n      add\n      mload(0x40)\n      swap1\n      dup2\n      add\n      0x40\n      mstore\n      dup1\n      swap3\n      swap2\n      swap1\n      dup2\n      dup2\n      mstore\n      0x20\n      add\n      dup3\n      dup1\n      sload\n      tag_79\n      swap1\n      tag_44\n      jump\t// in\n    tag_79:\n      dup1\n      iszero\n      tag_80\n      jumpi\n      dup1\n      0x1f\n      lt\n      tag_81\n      jumpi\n      0x0100\n      dup1\n      dup4\n      sload\n      div\n      mul\n      dup4\n      mstore\n      swap2\n      0x20\n      add\n      swap2\n      jump(tag_80)\n    tag_81:\n      dup3\n      add\n      swap2\n      swap1\n      0x00\n      mstore\n      keccak256(0x00, 0x20)\n      swap1\n    tag_82:\n      dup2\n      sload\n      dup2\n      mstore\n      swap1\n      0x01\n      add\n      swap1\n      0x20\n      add\n      dup1\n      dup4\n      gt\n      tag_82\n      jumpi\n      dup3\n      swap1\n      sub\n      0x1f\n      and\n      dup3\n      add\n      swap2\n    tag_80:\n      pop\n      pop\n      pop\n      pop\n      pop\n      dup2\n      mstore\n      0x20\n      add\n      0x03\n      dup3\n      add\n      0x00\n      swap1\n      sload\n      swap1\n      0x0100\n      exp\n      swap1\n      div\n      0xff\n      and\n      iszero\n      iszero\n      iszero\n      iszero\n      dup2\n      mstore\n      pop\n      pop\n      dup2\n      mstore\n      0x20\n      add\n      swap1\n      0x01\n      add\n      swap1\n      jump(tag_75)\n    tag_76:\n      pop\n      pop\n      pop\n      pop\n      swap1\n      pop\n        /* \"Appointment.sol\":2156:2264  function getAppointments() public view returns (Appointment[] memory) {... */\n      swap1\n      jump\t// out\n        /* \"Appointment.sol\":1551:2104  function respondToAppointment(uint _appointmentIndex, bool _confirm) public onlyDoctor {... */\n    tag_42:\n        /* \"Appointment.sol\":603:609  doctor */\n      0x02\n      0x00\n      swap1\n      sload\n      swap1\n      0x0100\n      exp\n      swap1\n      div\n      0xffffffffffffffffffffffffffffffffffffffff\n      and\n        /* \"Appointment.sol\":589:609  msg.sender == doctor */\n      0xffffffffffffffffffffffffffffffffffffffff\n      and\n        /* \"Appointment.sol\":589:599  msg.sender */\n      caller\n        /* \"Appointment.sol\":589:609  msg.sender == doctor */\n      0xffffffffffffffffffffffffffffffffffffffff\n      and\n      eq\n        /* \"Appointment.sol\":581:653  require(msg.sender == doctor, \"Only the doctor can perform this action\") */\n      tag_84\n      jumpi\n      mload(0x40)\n      0x08c379a000000000000000000000000000000000000000000000000000000000\n      dup2\n      mstore\n      0x04\n      add\n      tag_85\n      swap1\n      tag_86\n      jump\t// in\n    tag_85:\n      mload(0x40)\n      dup1\n      swap2\n      sub\n      swap1\n      revert\n    tag_84:\n        /* \"Appointment.sol\":1677:1689  appointments */\n      0x01\n        /* \"Appointment.sol\":1677:1696  appointments.length */\n      dup1\n      sload\n      swap1\n      pop\n        /* \"Appointment.sol\":1657:1674  _appointmentIndex */\n      dup3\n        /* \"Appointment.sol\":1657:1696  _appointmentIndex < appointments.length */\n      lt\n        /* \"Appointment.sol\":1649:1726  require(_appointmentIndex < appointments.length, \"Invalid appointment index\") */\n      tag_88\n      jumpi\n      mload(0x40)\n      0x08c379a000000000000000000000000000000000000000000000000000000000\n      dup2\n      mstore\n      0x04\n      add\n      tag_89\n      swap1\n      tag_90\n      jump\t// in\n    tag_89:\n      mload(0x40)\n      dup1\n      swap2\n      sub\n      swap1\n      revert\n    tag_88:\n        /* \"Appointment.sol\":1739:1770  Appointment storage appointment */\n      0x00\n        /* \"Appointment.sol\":1773:1785  appointments */\n      0x01\n        /* \"Appointment.sol\":1786:1803  _appointmentIndex */\n      dup4\n        /* \"Appointment.sol\":1773:1804  appointments[_appointmentIndex] */\n      dup2\n      sload\n      dup2\n      lt\n      tag_91\n      jumpi\n      tag_92\n      tag_93\n      jump\t// in\n    tag_92:\n    tag_91:\n      swap1\n      0x00\n      mstore\n      keccak256(0x00, 0x20)\n      swap1\n      0x04\n      mul\n      add\n        /* \"Appointment.sol\":1739:1804  Appointment storage appointment = appointments[_appointmentIndex] */\n      swap1\n      pop\n        /* \"Appointment.sol\":1839:1847  _confirm */\n      dup2\n        /* \"Appointment.sol\":1815:1826  appointment */\n      dup2\n        /* \"Appointment.sol\":1815:1836  appointment.confirmed */\n      0x03\n      add\n      0x00\n        /* \"Appointment.sol\":1815:1847  appointment.confirmed = _confirm */\n      0x0100\n      exp\n      dup2\n      sload\n      dup2\n      0xff\n      mul\n      not\n      and\n      swap1\n      dup4\n      iszero\n      iszero\n      mul\n      or\n      swap1\n      sstore\n      pop\n        /* \"Appointment.sol\":1864:1872  _confirm */\n      dup2\n        /* \"Appointment.sol\":1860:2097  if (_confirm) {... */\n      iszero\n      tag_95\n      jumpi\n        /* \"Appointment.sol\":1894:1971  AppointmentConfirmed(appointment.patientAddress, appointment.appointmentTime) */\n      0xb02cf0a677622bee87b44c9c201410a3791ba53d5cabbfcc4816bcbbc3b0d107\n        /* \"Appointment.sol\":1915:1926  appointment */\n      dup2\n        /* \"Appointment.sol\":1915:1941  appointment.patientAddress */\n      0x00\n      add\n      0x00\n      swap1\n      sload\n      swap1\n      0x0100\n      exp\n      swap1\n      div\n      0xffffffffffffffffffffffffffffffffffffffff\n      and\n        /* \"Appointment.sol\":1943:1954  appointment */\n      dup3\n        /* \"Appointment.sol\":1943:1970  appointment.appointmentTime */\n      0x01\n      add\n      sload\n        /* \"Appointment.sol\":1894:1971  AppointmentConfirmed(appointment.patientAddress, appointment.appointmentTime) */\n      mload(0x40)\n      tag_96\n      swap3\n      swap2\n      swap1\n      tag_97\n      jump\t// in\n    tag_96:\n      mload(0x40)\n      dup1\n      swap2\n      sub\n      swap1\n      log1\n        /* \"Appointment.sol\":1860:2097  if (_confirm) {... */\n      jump(tag_98)\n    tag_95:\n        /* \"Appointment.sol\":2009:2085  AppointmentRejected(appointment.patientAddress, appointment.appointmentTime) */\n      0xf3ed563857ac07edb91236b2af4a247645799e99c0d103e5bd8189e0cf846006\n        /* \"Appointment.sol\":2029:2040  appointment */\n      dup2\n        /* \"Appointment.sol\":2029:2055  appointment.patientAddress */\n      0x00\n      add\n      0x00\n      swap1\n      sload\n      swap1\n      0x0100\n      exp\n      swap1\n      div\n      0xffffffffffffffffffffffffffffffffffffffff\n      and\n        /* \"Appointment.sol\":2057:2068  appointment */\n      dup3\n        /* \"Appointment.sol\":2057:2084  appointment.appointmentTime */\n      0x01\n      add\n      sload\n        /* \"Appointment.sol\":2009:2085  AppointmentRejected(appointment.patientAddress, appointment.appointmentTime) */\n      mload(0x40)\n      tag_99\n      swap3\n      swap2\n      swap1\n      tag_97\n      jump\t// in\n    tag_99:\n      mload(0x40)\n      dup1\n      swap2\n      sub\n      swap1\n      log1\n        /* \"Appointment.sol\":1860:2097  if (_confirm) {... */\n    tag_98:\n        /* \"Appointment.sol\":1638:2104  {... */\n      pop\n        /* \"Appointment.sol\":1551:2104  function respondToAppointment(uint _appointmentIndex, bool _confirm) public onlyDoctor {... */\n      pop\n      pop\n      jump\t// out\n        /* \"#utility.yul\":7:82   */\n    tag_100:\n        /* \"#utility.yul\":40:46   */\n      0x00\n        /* \"#utility.yul\":73:75   */\n      0x40\n        /* \"#utility.yul\":67:76   */\n      mload\n        /* \"#utility.yul\":57:76   */\n      swap1\n      pop\n        /* \"#utility.yul\":7:82   */\n      swap1\n      jump\t// out\n        /* \"#utility.yul\":88:205   */\n    tag_101:\n        /* \"#utility.yul\":197:198   */\n      0x00\n        /* \"#utility.yul\":194:195   */\n      dup1\n        /* \"#utility.yul\":187:199   */\n      revert\n        /* \"#utility.yul\":211:328   */\n    tag_102:\n        /* \"#utility.yul\":320:321   */\n      0x00\n        /* \"#utility.yul\":317:318   */\n      dup1\n        /* \"#utility.yul\":310:322   */\n      revert\n        /* \"#utility.yul\":334:460   */\n    tag_103:\n        /* \"#utility.yul\":371:378   */\n      0x00\n        /* \"#utility.yul\":411:453   */\n      0xffffffffffffffffffffffffffffffffffffffff\n        /* \"#utility.yul\":404:409   */\n      dup3\n        /* \"#utility.yul\":400:454   */\n      and\n        /* \"#utility.yul\":389:454   */\n      swap1\n      pop\n        /* \"#utility.yul\":334:460   */\n      swap2\n      swap1\n      pop\n      jump\t// out\n        /* \"#utility.yul\":466:562   */\n    tag_104:\n        /* \"#utility.yul\":503:510   */\n      0x00\n        /* \"#utility.yul\":532:556   */\n      tag_172\n        /* \"#utility.yul\":550:555   */\n      dup3\n        /* \"#utility.yul\":532:556   */\n      tag_103\n      jump\t// in\n    tag_172:\n        /* \"#utility.yul\":521:556   */\n      swap1\n      pop\n        /* \"#utility.yul\":466:562   */\n      swap2\n      swap1\n      pop\n      jump\t// out\n        /* \"#utility.yul\":568:690   */\n    tag_105:\n        /* \"#utility.yul\":641:665   */\n      tag_174\n        /* \"#utility.yul\":659:664   */\n      dup2\n        /* \"#utility.yul\":641:665   */\n      tag_104\n      jump\t// in\n    tag_174:\n        /* \"#utility.yul\":634:639   */\n      dup2\n        /* \"#utility.yul\":631:666   */\n      eq\n        /* \"#utility.yul\":621:684   */\n      tag_175\n      jumpi\n        /* \"#utility.yul\":680:681   */\n      0x00\n        /* \"#utility.yul\":677:678   */\n      dup1\n        /* \"#utility.yul\":670:682   */\n      revert\n        /* \"#utility.yul\":621:684   */\n    tag_175:\n        /* \"#utility.yul\":568:690   */\n      pop\n      jump\t// out\n        /* \"#utility.yul\":696:835   */\n    tag_106:\n        /* \"#utility.yul\":742:747   */\n      0x00\n        /* \"#utility.yul\":780:786   */\n      dup2\n        /* \"#utility.yul\":767:787   */\n      calldataload\n        /* \"#utility.yul\":758:787   */\n      swap1\n      pop\n        /* \"#utility.yul\":796:829   */\n      tag_177\n        /* \"#utility.yul\":823:828   */\n      dup2\n        /* \"#utility.yul\":796:829   */\n      tag_105\n      jump\t// in\n    tag_177:\n        /* \"#utility.yul\":696:835   */\n      swap3\n      swap2\n      pop\n      pop\n      jump\t// out\n        /* \"#utility.yul\":841:1170   */\n    tag_13:\n        /* \"#utility.yul\":900:906   */\n      0x00\n        /* \"#utility.yul\":949:951   */\n      0x20\n        /* \"#utility.yul\":937:946   */\n      dup3\n        /* \"#utility.yul\":928:935   */\n      dup5\n        /* \"#utility.yul\":924:947   */\n      sub\n        /* \"#utility.yul\":920:952   */\n      slt\n        /* \"#utility.yul\":917:1036   */\n      iszero\n      tag_179\n      jumpi\n        /* \"#utility.yul\":955:1034   */\n      tag_180\n      tag_101\n      jump\t// in\n    tag_180:\n        /* \"#utility.yul\":917:1036   */\n    tag_179:\n        /* \"#utility.yul\":1075:1076   */\n      0x00\n        /* \"#utility.yul\":1100:1153   */\n      tag_181\n        /* \"#utility.yul\":1145:1152   */\n      dup5\n        /* \"#utility.yul\":1136:1142   */\n      dup3\n        /* \"#utility.yul\":1125:1134   */\n      dup6\n        /* \"#utility.yul\":1121:1143   */\n      add\n        /* \"#utility.yul\":1100:1153   */\n      tag_106\n      jump\t// in\n    tag_181:\n        /* \"#utility.yul\":1090:1153   */\n      swap2\n      pop\n        /* \"#utility.yul\":1046:1163   */\n      pop\n        /* \"#utility.yul\":841:1170   */\n      swap3\n      swap2\n      pop\n      pop\n      jump\t// out\n        /* \"#utility.yul\":1176:1266   */\n    tag_107:\n        /* \"#utility.yul\":1210:1217   */\n      0x00\n        /* \"#utility.yul\":1253:1258   */\n      dup2\n        /* \"#utility.yul\":1246:1259   */\n      iszero\n        /* \"#utility.yul\":1239:1260   */\n      iszero\n        /* \"#utility.yul\":1228:1260   */\n      swap1\n      pop\n        /* \"#utility.yul\":1176:1266   */\n      swap2\n      swap1\n      pop\n      jump\t// out\n        /* \"#utility.yul\":1272:1381   */\n    tag_108:\n        /* \"#utility.yul\":1353:1374   */\n      tag_184\n        /* \"#utility.yul\":1368:1373   */\n      dup2\n        /* \"#utility.yul\":1353:1374   */\n      tag_107\n      jump\t// in\n    tag_184:\n        /* \"#utility.yul\":1348:1351   */\n      dup3\n        /* \"#utility.yul\":1341:1375   */\n      mstore\n        /* \"#utility.yul\":1272:1381   */\n      pop\n      pop\n      jump\t// out\n        /* \"#utility.yul\":1387:1486   */\n    tag_109:\n        /* \"#utility.yul\":1439:1445   */\n      0x00\n        /* \"#utility.yul\":1473:1478   */\n      dup2\n        /* \"#utility.yul\":1467:1479   */\n      mload\n        /* \"#utility.yul\":1457:1479   */\n      swap1\n      pop\n        /* \"#utility.yul\":1387:1486   */\n      swap2\n      swap1\n      pop\n      jump\t// out\n        /* \"#utility.yul\":1492:1661   */\n    tag_110:\n        /* \"#utility.yul\":1576:1587   */\n      0x00\n        /* \"#utility.yul\":1610:1616   */\n      dup3\n        /* \"#utility.yul\":1605:1608   */\n      dup3\n        /* \"#utility.yul\":1598:1617   */\n      mstore\n        /* \"#utility.yul\":1650:1654   */\n      0x20\n        /* \"#utility.yul\":1645:1648   */\n      dup3\n        /* \"#utility.yul\":1641:1655   */\n      add\n        /* \"#utility.yul\":1626:1655   */\n      swap1\n      pop\n        /* \"#utility.yul\":1492:1661   */\n      swap3\n      swap2\n      pop\n      pop\n      jump\t// out\n        /* \"#utility.yul\":1667:1806   */\n    tag_111:\n        /* \"#utility.yul\":1756:1762   */\n      dup3\n        /* \"#utility.yul\":1751:1754   */\n      dup2\n        /* \"#utility.yul\":1746:1749   */\n      dup4\n        /* \"#utility.yul\":1740:1763   */\n      mcopy\n        /* \"#utility.yul\":1797:1798   */\n      0x00\n        /* \"#utility.yul\":1788:1794   */\n      dup4\n        /* \"#utility.yul\":1783:1786   */\n      dup4\n        /* \"#utility.yul\":1779:1795   */\n      add\n        /* \"#utility.yul\":1772:1799   */\n      mstore\n        /* \"#utility.yul\":1667:1806   */\n      pop\n      pop\n      pop\n      jump\t// out\n        /* \"#utility.yul\":1812:1914   */\n    tag_112:\n        /* \"#utility.yul\":1853:1859   */\n      0x00\n        /* \"#utility.yul\":1904:1906   */\n      0x1f\n        /* \"#utility.yul\":1900:1907   */\n      not\n        /* \"#utility.yul\":1895:1897   */\n      0x1f\n        /* \"#utility.yul\":1888:1893   */\n      dup4\n        /* \"#utility.yul\":1884:1898   */\n      add\n        /* \"#utility.yul\":1880:1908   */\n      and\n        /* \"#utility.yul\":1870:1908   */\n      swap1\n      pop\n        /* \"#utility.yul\":1812:1914   */\n      swap2\n      swap1\n      pop\n      jump\t// out\n        /* \"#utility.yul\":1920:2297   */\n    tag_113:\n        /* \"#utility.yul\":2008:2011   */\n      0x00\n        /* \"#utility.yul\":2036:2075   */\n      tag_190\n        /* \"#utility.yul\":2069:2074   */\n      dup3\n        /* \"#utility.yul\":2036:2075   */\n      tag_109\n      jump\t// in\n    tag_190:\n        /* \"#utility.yul\":2091:2162   */\n      tag_191\n        /* \"#utility.yul\":2155:2161   */\n      dup2\n        /* \"#utility.yul\":2150:2153   */\n      dup6\n        /* \"#utility.yul\":2091:2162   */\n      tag_110\n      jump\t// in\n    tag_191:\n        /* \"#utility.yul\":2084:2162   */\n      swap4\n      pop\n        /* \"#utility.yul\":2171:2236   */\n      tag_192\n        /* \"#utility.yul\":2229:2235   */\n      dup2\n        /* \"#utility.yul\":2224:2227   */\n      dup6\n        /* \"#utility.yul\":2217:2221   */\n      0x20\n        /* \"#utility.yul\":2210:2215   */\n      dup7\n        /* \"#utility.yul\":2206:2222   */\n      add\n        /* \"#utility.yul\":2171:2236   */\n      tag_111\n      jump\t// in\n    tag_192:\n        /* \"#utility.yul\":2261:2290   */\n      tag_193\n        /* \"#utility.yul\":2283:2289   */\n      dup2\n        /* \"#utility.yul\":2261:2290   */\n      tag_112\n      jump\t// in\n    tag_193:\n        /* \"#utility.yul\":2256:2259   */\n      dup5\n        /* \"#utility.yul\":2252:2291   */\n      add\n        /* \"#utility.yul\":2245:2291   */\n      swap2\n      pop\n        /* \"#utility.yul\":2012:2297   */\n      pop\n        /* \"#utility.yul\":1920:2297   */\n      swap3\n      swap2\n      pop\n      pop\n      jump\t// out\n        /* \"#utility.yul\":2303:2380   */\n    tag_114:\n        /* \"#utility.yul\":2340:2347   */\n      0x00\n        /* \"#utility.yul\":2369:2374   */\n      dup2\n        /* \"#utility.yul\":2358:2374   */\n      swap1\n      pop\n        /* \"#utility.yul\":2303:2380   */\n      swap2\n      swap1\n      pop\n      jump\t// out\n        /* \"#utility.yul\":2386:2504   */\n    tag_115:\n        /* \"#utility.yul\":2473:2497   */\n      tag_196\n        /* \"#utility.yul\":2491:2496   */\n      dup2\n        /* \"#utility.yul\":2473:2497   */\n      tag_114\n      jump\t// in\n    tag_196:\n        /* \"#utility.yul\":2468:2471   */\n      dup3\n        /* \"#utility.yul\":2461:2498   */\n      mstore\n        /* \"#utility.yul\":2386:2504   */\n      pop\n      pop\n      jump\t// out\n        /* \"#utility.yul\":2510:3233   */\n    tag_16:\n        /* \"#utility.yul\":2721:2725   */\n      0x00\n        /* \"#utility.yul\":2759:2762   */\n      0x80\n        /* \"#utility.yul\":2748:2757   */\n      dup3\n        /* \"#utility.yul\":2744:2763   */\n      add\n        /* \"#utility.yul\":2736:2763   */\n      swap1\n      pop\n        /* \"#utility.yul\":2773:2838   */\n      tag_198\n        /* \"#utility.yul\":2835:2836   */\n      0x00\n        /* \"#utility.yul\":2824:2833   */\n      dup4\n        /* \"#utility.yul\":2820:2837   */\n      add\n        /* \"#utility.yul\":2811:2817   */\n      dup8\n        /* \"#utility.yul\":2773:2838   */\n      tag_108\n      jump\t// in\n    tag_198:\n        /* \"#utility.yul\":2885:2894   */\n      dup2\n        /* \"#utility.yul\":2879:2883   */\n      dup2\n        /* \"#utility.yul\":2875:2895   */\n      sub\n        /* \"#utility.yul\":2870:2872   */\n      0x20\n        /* \"#utility.yul\":2859:2868   */\n      dup4\n        /* \"#utility.yul\":2855:2873   */\n      add\n        /* \"#utility.yul\":2848:2896   */\n      mstore\n        /* \"#utility.yul\":2913:2991   */\n      tag_199\n        /* \"#utility.yul\":2986:2990   */\n      dup2\n        /* \"#utility.yul\":2977:2983   */\n      dup7\n        /* \"#utility.yul\":2913:2991   */\n      tag_113\n      jump\t// in\n    tag_199:\n        /* \"#utility.yul\":2905:2991   */\n      swap1\n      pop\n        /* \"#utility.yul\":3001:3073   */\n      tag_200\n        /* \"#utility.yul\":3069:3071   */\n      0x40\n        /* \"#utility.yul\":3058:3067   */\n      dup4\n        /* \"#utility.yul\":3054:3072   */\n      add\n        /* \"#utility.yul\":3045:3051   */\n      dup6\n        /* \"#utility.yul\":3001:3073   */\n      tag_115\n      jump\t// in\n    tag_200:\n        /* \"#utility.yul\":3120:3129   */\n      dup2\n        /* \"#utility.yul\":3114:3118   */\n      dup2\n        /* \"#utility.yul\":3110:3130   */\n      sub\n        /* \"#utility.yul\":3105:3107   */\n      0x60\n        /* \"#utility.yul\":3094:3103   */\n      dup4\n        /* \"#utility.yul\":3090:3108   */\n      add\n        /* \"#utility.yul\":3083:3131   */\n      mstore\n        /* \"#utility.yul\":3148:3226   */\n      tag_201\n        /* \"#utility.yul\":3221:3225   */\n      dup2\n        /* \"#utility.yul\":3212:3218   */\n      dup5\n        /* \"#utility.yul\":3148:3226   */\n      tag_113\n      jump\t// in\n    tag_201:\n        /* \"#utility.yul\":3140:3226   */\n      swap1\n      pop\n        /* \"#utility.yul\":2510:3233   */\n      swap6\n      swap5\n      pop\n      pop\n      pop\n      pop\n      pop\n      jump\t// out\n        /* \"#utility.yul\":3239:3361   */\n    tag_116:\n        /* \"#utility.yul\":3312:3336   */\n      tag_203\n        /* \"#utility.yul\":3330:3335   */\n      dup2\n        /* \"#utility.yul\":3312:3336   */\n      tag_114\n      jump\t// in\n    tag_203:\n        /* \"#utility.yul\":3305:3310   */\n      dup2\n        /* \"#utility.yul\":3302:3337   */\n      eq\n        /* \"#utility.yul\":3292:3355   */\n      tag_204\n      jumpi\n        /* \"#utility.yul\":3351:3352   */\n      0x00\n        /* \"#utility.yul\":3348:3349   */\n      dup1\n        /* \"#utility.yul\":3341:3353   */\n      revert\n        /* \"#utility.yul\":3292:3355   */\n    tag_204:\n        /* \"#utility.yul\":3239:3361   */\n      pop\n      jump\t// out\n        /* \"#utility.yul\":3367:3506   */\n    tag_117:\n        /* \"#utility.yul\":3413:3418   */\n      0x00\n        /* \"#utility.yul\":3451:3457   */\n      dup2\n        /* \"#utility.yul\":3438:3458   */\n      calldataload\n        /* \"#utility.yul\":3429:3458   */\n      swap1\n      pop\n        /* \"#utility.yul\":3467:3500   */\n      tag_206\n        /* \"#utility.yul\":3494:3499   */\n      dup2\n        /* \"#utility.yul\":3467:3500   */\n      tag_116\n      jump\t// in\n    tag_206:\n        /* \"#utility.yul\":3367:3506   */\n      swap3\n      swap2\n      pop\n      pop\n      jump\t// out\n        /* \"#utility.yul\":3512:3841   */\n    tag_19:\n        /* \"#utility.yul\":3571:3577   */\n      0x00\n        /* \"#utility.yul\":3620:3622   */\n      0x20\n        /* \"#utility.yul\":3608:3617   */\n      dup3\n        /* \"#utility.yul\":3599:3606   */\n      dup5\n        /* \"#utility.yul\":3595:3618   */\n      sub\n        /* \"#utility.yul\":3591:3623   */\n      slt\n        /* \"#utility.yul\":3588:3707   */\n      iszero\n      tag_208\n      jumpi\n        /* \"#utility.yul\":3626:3705   */\n      tag_209\n      tag_101\n      jump\t// in\n    tag_209:\n        /* \"#utility.yul\":3588:3707   */\n    tag_208:\n        /* \"#utility.yul\":3746:3747   */\n      0x00\n        /* \"#utility.yul\":3771:3824   */\n      tag_210\n        /* \"#utility.yul\":3816:3823   */\n      dup5\n        /* \"#utility.yul\":3807:3813   */\n      dup3\n        /* \"#utility.yul\":3796:3805   */\n      dup6\n        /* \"#utility.yul\":3792:3814   */\n      add\n        /* \"#utility.yul\":3771:3824   */\n      tag_117\n      jump\t// in\n    tag_210:\n        /* \"#utility.yul\":3761:3824   */\n      swap2\n      pop\n        /* \"#utility.yul\":3717:3834   */\n      pop\n        /* \"#utility.yul\":3512:3841   */\n      swap3\n      swap2\n      pop\n      pop\n      jump\t// out\n        /* \"#utility.yul\":3847:3965   */\n    tag_118:\n        /* \"#utility.yul\":3934:3958   */\n      tag_212\n        /* \"#utility.yul\":3952:3957   */\n      dup2\n        /* \"#utility.yul\":3934:3958   */\n      tag_104\n      jump\t// in\n    tag_212:\n        /* \"#utility.yul\":3929:3932   */\n      dup3\n        /* \"#utility.yul\":3922:3959   */\n      mstore\n        /* \"#utility.yul\":3847:3965   */\n      pop\n      pop\n      jump\t// out\n        /* \"#utility.yul\":3971:4603   */\n    tag_22:\n        /* \"#utility.yul\":4162:4166   */\n      0x00\n        /* \"#utility.yul\":4200:4203   */\n      0x80\n        /* \"#utility.yul\":4189:4198   */\n      dup3\n        /* \"#utility.yul\":4185:4204   */\n      add\n        /* \"#utility.yul\":4177:4204   */\n      swap1\n      pop\n        /* \"#utility.yul\":4214:4285   */\n      tag_214\n        /* \"#utility.yul\":4282:4283   */\n      0x00\n        /* \"#utility.yul\":4271:4280   */\n      dup4\n        /* \"#utility.yul\":4267:4284   */\n      add\n        /* \"#utility.yul\":4258:4264   */\n      dup8\n        /* \"#utility.yul\":4214:4285   */\n      tag_118\n      jump\t// in\n    tag_214:\n        /* \"#utility.yul\":4295:4367   */\n      tag_215\n        /* \"#utility.yul\":4363:4365   */\n      0x20\n        /* \"#utility.yul\":4352:4361   */\n      dup4\n        /* \"#utility.yul\":4348:4366   */\n      add\n        /* \"#utility.yul\":4339:4345   */\n      dup7\n        /* \"#utility.yul\":4295:4367   */\n      tag_115\n      jump\t// in\n    tag_215:\n        /* \"#utility.yul\":4414:4423   */\n      dup2\n        /* \"#utility.yul\":4408:4412   */\n      dup2\n        /* \"#utility.yul\":4404:4424   */\n      sub\n        /* \"#utility.yul\":4399:4401   */\n      0x40\n        /* \"#utility.yul\":4388:4397   */\n      dup4\n        /* \"#utility.yul\":4384:4402   */\n      add\n        /* \"#utility.yul\":4377:4425   */\n      mstore\n        /* \"#utility.yul\":4442:4520   */\n      tag_216\n        /* \"#utility.yul\":4515:4519   */\n      dup2\n        /* \"#utility.yul\":4506:4512   */\n      dup6\n        /* \"#utility.yul\":4442:4520   */\n      tag_113\n      jump\t// in\n    tag_216:\n        /* \"#utility.yul\":4434:4520   */\n      swap1\n      pop\n        /* \"#utility.yul\":4530:4596   */\n      tag_217\n        /* \"#utility.yul\":4592:4594   */\n      0x60\n        /* \"#utility.yul\":4581:4590   */\n      dup4\n        /* \"#utility.yul\":4577:4595   */\n      add\n        /* \"#utility.yul\":4568:4574   */\n      dup5\n        /* \"#utility.yul\":4530:4596   */\n      tag_108\n      jump\t// in\n    tag_217:\n        /* \"#utility.yul\":3971:4603   */\n      swap6\n      swap5\n      pop\n      pop\n      pop\n      pop\n      pop\n      jump\t// out\n        /* \"#utility.yul\":4609:4726   */\n    tag_119:\n        /* \"#utility.yul\":4718:4719   */\n      0x00\n        /* \"#utility.yul\":4715:4716   */\n      dup1\n        /* \"#utility.yul\":4708:4720   */\n      revert\n        /* \"#utility.yul\":4732:4849   */\n    tag_120:\n        /* \"#utility.yul\":4841:4842   */\n      0x00\n        /* \"#utility.yul\":4838:4839   */\n      dup1\n        /* \"#utility.yul\":4831:4843   */\n      revert\n        /* \"#utility.yul\":4855:5035   */\n    tag_121:\n        /* \"#utility.yul\":4903:4980   */\n      0x4e487b7100000000000000000000000000000000000000000000000000000000\n        /* \"#utility.yul\":4900:4901   */\n      0x00\n        /* \"#utility.yul\":4893:4981   */\n      mstore\n        /* \"#utility.yul\":5000:5004   */\n      0x41\n        /* \"#utility.yul\":4997:4998   */\n      0x04\n        /* \"#utility.yul\":4990:5005   */\n      mstore\n        /* \"#utility.yul\":5024:5028   */\n      0x24\n        /* \"#utility.yul\":5021:5022   */\n      0x00\n        /* \"#utility.yul\":5014:5029   */\n      revert\n        /* \"#utility.yul\":5041:5322   */\n    tag_122:\n        /* \"#utility.yul\":5124:5151   */\n      tag_222\n        /* \"#utility.yul\":5146:5150   */\n      dup3\n        /* \"#utility.yul\":5124:5151   */\n      tag_112\n      jump\t// in\n    tag_222:\n        /* \"#utility.yul\":5116:5122   */\n      dup2\n        /* \"#utility.yul\":5112:5152   */\n      add\n        /* \"#utility.yul\":5254:5260   */\n      dup2\n        /* \"#utility.yul\":5242:5252   */\n      dup2\n        /* \"#utility.yul\":5239:5261   */\n      lt\n        /* \"#utility.yul\":5218:5236   */\n      0xffffffffffffffff\n        /* \"#utility.yul\":5206:5216   */\n      dup3\n        /* \"#utility.yul\":5203:5237   */\n      gt\n        /* \"#utility.yul\":5200:5262   */\n      or\n        /* \"#utility.yul\":5197:5285   */\n      iszero\n      tag_223\n      jumpi\n        /* \"#utility.yul\":5265:5283   */\n      tag_224\n      tag_121\n      jump\t// in\n    tag_224:\n        /* \"#utility.yul\":5197:5285   */\n    tag_223:\n        /* \"#utility.yul\":5305:5315   */\n      dup1\n        /* \"#utility.yul\":5301:5303   */\n      0x40\n        /* \"#utility.yul\":5294:5316   */\n      mstore\n        /* \"#utility.yul\":5084:5322   */\n      pop\n        /* \"#utility.yul\":5041:5322   */\n      pop\n      pop\n      jump\t// out\n        /* \"#utility.yul\":5328:5457   */\n    tag_123:\n        /* \"#utility.yul\":5362:5368   */\n      0x00\n        /* \"#utility.yul\":5389:5409   */\n      tag_226\n      tag_100\n      jump\t// in\n    tag_226:\n        /* \"#utility.yul\":5379:5409   */\n      swap1\n      pop\n        /* \"#utility.yul\":5418:5451   */\n      tag_227\n        /* \"#utility.yul\":5446:5450   */\n      dup3\n        /* \"#utility.yul\":5438:5444   */\n      dup3\n        /* \"#utility.yul\":5418:5451   */\n      tag_122\n      jump\t// in\n    tag_227:\n        /* \"#utility.yul\":5328:5457   */\n      swap2\n      swap1\n      pop\n      jump\t// out\n        /* \"#utility.yul\":5463:5771   */\n    tag_124:\n        /* \"#utility.yul\":5525:5529   */\n      0x00\n        /* \"#utility.yul\":5615:5633   */\n      0xffffffffffffffff\n        /* \"#utility.yul\":5607:5613   */\n      dup3\n        /* \"#utility.yul\":5604:5634   */\n      gt\n        /* \"#utility.yul\":5601:5657   */\n      iszero\n      tag_229\n      jumpi\n        /* \"#utility.yul\":5637:5655   */\n      tag_230\n      tag_121\n      jump\t// in\n    tag_230:\n        /* \"#utility.yul\":5601:5657   */\n    tag_229:\n        /* \"#utility.yul\":5675:5704   */\n      tag_231\n        /* \"#utility.yul\":5697:5703   */\n      dup3\n        /* \"#utility.yul\":5675:5704   */\n      tag_112\n      jump\t// in\n    tag_231:\n        /* \"#utility.yul\":5667:5704   */\n      swap1\n      pop\n        /* \"#utility.yul\":5759:5763   */\n      0x20\n        /* \"#utility.yul\":5753:5757   */\n      dup2\n        /* \"#utility.yul\":5749:5764   */\n      add\n        /* \"#utility.yul\":5741:5764   */\n      swap1\n      pop\n        /* \"#utility.yul\":5463:5771   */\n      swap2\n      swap1\n      pop\n      jump\t// out\n        /* \"#utility.yul\":5777:5925   */\n    tag_125:\n        /* \"#utility.yul\":5875:5881   */\n      dup3\n        /* \"#utility.yul\":5870:5873   */\n      dup2\n        /* \"#utility.yul\":5865:5868   */\n      dup4\n        /* \"#utility.yul\":5852:5882   */\n      calldatacopy\n        /* \"#utility.yul\":5916:5917   */\n      0x00\n        /* \"#utility.yul\":5907:5913   */\n      dup4\n        /* \"#utility.yul\":5902:5905   */\n      dup4\n        /* \"#utility.yul\":5898:5914   */\n      add\n        /* \"#utility.yul\":5891:5918   */\n      mstore\n        /* \"#utility.yul\":5777:5925   */\n      pop\n      pop\n      pop\n      jump\t// out\n        /* \"#utility.yul\":5931:6356   */\n    tag_126:\n        /* \"#utility.yul\":6009:6014   */\n      0x00\n        /* \"#utility.yul\":6034:6100   */\n      tag_234\n        /* \"#utility.yul\":6050:6099   */\n      tag_235\n        /* \"#utility.yul\":6092:6098   */\n      dup5\n        /* \"#utility.yul\":6050:6099   */\n      tag_124\n      jump\t// in\n    tag_235:\n        /* \"#utility.yul\":6034:6100   */\n      tag_123\n      jump\t// in\n    tag_234:\n        /* \"#utility.yul\":6025:6100   */\n      swap1\n      pop\n        /* \"#utility.yul\":6123:6129   */\n      dup3\n        /* \"#utility.yul\":6116:6121   */\n      dup2\n        /* \"#utility.yul\":6109:6130   */\n      mstore\n        /* \"#utility.yul\":6161:6165   */\n      0x20\n        /* \"#utility.yul\":6154:6159   */\n      dup2\n        /* \"#utility.yul\":6150:6166   */\n      add\n        /* \"#utility.yul\":6199:6202   */\n      dup5\n        /* \"#utility.yul\":6190:6196   */\n      dup5\n        /* \"#utility.yul\":6185:6188   */\n      dup5\n        /* \"#utility.yul\":6181:6197   */\n      add\n        /* \"#utility.yul\":6178:6203   */\n      gt\n        /* \"#utility.yul\":6175:6287   */\n      iszero\n      tag_236\n      jumpi\n        /* \"#utility.yul\":6206:6285   */\n      tag_237\n      tag_120\n      jump\t// in\n    tag_237:\n        /* \"#utility.yul\":6175:6287   */\n    tag_236:\n        /* \"#utility.yul\":6296:6350   */\n      tag_238\n        /* \"#utility.yul\":6343:6349   */\n      dup5\n        /* \"#utility.yul\":6338:6341   */\n      dup3\n        /* \"#utility.yul\":6333:6336   */\n      dup6\n        /* \"#utility.yul\":6296:6350   */\n      tag_125\n      jump\t// in\n    tag_238:\n        /* \"#utility.yul\":6015:6356   */\n      pop\n        /* \"#utility.yul\":5931:6356   */\n      swap4\n      swap3\n      pop\n      pop\n      pop\n      jump\t// out\n        /* \"#utility.yul\":6376:6716   */\n    tag_127:\n        /* \"#utility.yul\":6432:6437   */\n      0x00\n        /* \"#utility.yul\":6481:6484   */\n      dup3\n        /* \"#utility.yul\":6474:6478   */\n      0x1f\n        /* \"#utility.yul\":6466:6472   */\n      dup4\n        /* \"#utility.yul\":6462:6479   */\n      add\n        /* \"#utility.yul\":6458:6485   */\n      slt\n        /* \"#utility.yul\":6448:6570   */\n      tag_240\n      jumpi\n        /* \"#utility.yul\":6489:6568   */\n      tag_241\n      tag_119\n      jump\t// in\n    tag_241:\n        /* \"#utility.yul\":6448:6570   */\n    tag_240:\n        /* \"#utility.yul\":6606:6612   */\n      dup2\n        /* \"#utility.yul\":6593:6613   */\n      calldataload\n        /* \"#utility.yul\":6631:6710   */\n      tag_242\n        /* \"#utility.yul\":6706:6709   */\n      dup5\n        /* \"#utility.yul\":6698:6704   */\n      dup3\n        /* \"#utility.yul\":6691:6695   */\n      0x20\n        /* \"#utility.yul\":6683:6689   */\n      dup7\n        /* \"#utility.yul\":6679:6696   */\n      add\n        /* \"#utility.yul\":6631:6710   */\n      tag_126\n      jump\t// in\n    tag_242:\n        /* \"#utility.yul\":6622:6710   */\n      swap2\n      pop\n        /* \"#utility.yul\":6438:6716   */\n      pop\n        /* \"#utility.yul\":6376:6716   */\n      swap3\n      swap2\n      pop\n      pop\n      jump\t// out\n        /* \"#utility.yul\":6722:7701   */\n    tag_25:\n        /* \"#utility.yul\":6819:6825   */\n      0x00\n        /* \"#utility.yul\":6827:6833   */\n      dup1\n        /* \"#utility.yul\":6835:6841   */\n      0x00\n        /* \"#utility.yul\":6884:6886   */\n      0x60\n        /* \"#utility.yul\":6872:6881   */\n      dup5\n        /* \"#utility.yul\":6863:6870   */\n      dup7\n        /* \"#utility.yul\":6859:6882   */\n      sub\n        /* \"#utility.yul\":6855:6887   */\n      slt\n        /* \"#utility.yul\":6852:6971   */\n      iszero\n      tag_244\n      jumpi\n        /* \"#utility.yul\":6890:6969   */\n      tag_245\n      tag_101\n      jump\t// in\n    tag_245:\n        /* \"#utility.yul\":6852:6971   */\n    tag_244:\n        /* \"#utility.yul\":7038:7039   */\n      0x00\n        /* \"#utility.yul\":7027:7036   */\n      dup5\n        /* \"#utility.yul\":7023:7040   */\n      add\n        /* \"#utility.yul\":7010:7041   */\n      calldataload\n        /* \"#utility.yul\":7068:7086   */\n      0xffffffffffffffff\n        /* \"#utility.yul\":7060:7066   */\n      dup2\n        /* \"#utility.yul\":7057:7087   */\n      gt\n        /* \"#utility.yul\":7054:7171   */\n      iszero\n      tag_246\n      jumpi\n        /* \"#utility.yul\":7090:7169   */\n      tag_247\n      tag_102\n      jump\t// in\n    tag_247:\n        /* \"#utility.yul\":7054:7171   */\n    tag_246:\n        /* \"#utility.yul\":7195:7258   */\n      tag_248\n        /* \"#utility.yul\":7250:7257   */\n      dup7\n        /* \"#utility.yul\":7241:7247   */\n      dup3\n        /* \"#utility.yul\":7230:7239   */\n      dup8\n        /* \"#utility.yul\":7226:7248   */\n      add\n        /* \"#utility.yul\":7195:7258   */\n      tag_127\n      jump\t// in\n    tag_248:\n        /* \"#utility.yul\":7185:7258   */\n      swap4\n      pop\n        /* \"#utility.yul\":6981:7268   */\n      pop\n        /* \"#utility.yul\":7307:7309   */\n      0x20\n        /* \"#utility.yul\":7333:7386   */\n      tag_249\n        /* \"#utility.yul\":7378:7385   */\n      dup7\n        /* \"#utility.yul\":7369:7375   */\n      dup3\n        /* \"#utility.yul\":7358:7367   */\n      dup8\n        /* \"#utility.yul\":7354:7376   */\n      add\n        /* \"#utility.yul\":7333:7386   */\n      tag_117\n      jump\t// in\n    tag_249:\n        /* \"#utility.yul\":7323:7386   */\n      swap3\n      pop\n        /* \"#utility.yul\":7278:7396   */\n      pop\n        /* \"#utility.yul\":7463:7465   */\n      0x40\n        /* \"#utility.yul\":7452:7461   */\n      dup5\n        /* \"#utility.yul\":7448:7466   */\n      add\n        /* \"#utility.yul\":7435:7467   */\n      calldataload\n        /* \"#utility.yul\":7494:7512   */\n      0xffffffffffffffff\n        /* \"#utility.yul\":7486:7492   */\n      dup2\n        /* \"#utility.yul\":7483:7513   */\n      gt\n        /* \"#utility.yul\":7480:7597   */\n      iszero\n      tag_250\n      jumpi\n        /* \"#utility.yul\":7516:7595   */\n      tag_251\n      tag_102\n      jump\t// in\n    tag_251:\n        /* \"#utility.yul\":7480:7597   */\n    tag_250:\n        /* \"#utility.yul\":7621:7684   */\n      tag_252\n        /* \"#utility.yul\":7676:7683   */\n      dup7\n        /* \"#utility.yul\":7667:7673   */\n      dup3\n        /* \"#utility.yul\":7656:7665   */\n      dup8\n        /* \"#utility.yul\":7652:7674   */\n      add\n        /* \"#utility.yul\":7621:7684   */\n      tag_127\n      jump\t// in\n    tag_252:\n        /* \"#utility.yul\":7611:7684   */\n      swap2\n      pop\n        /* \"#utility.yul\":7406:7694   */\n      pop\n        /* \"#utility.yul\":6722:7701   */\n      swap3\n      pop\n      swap3\n      pop\n      swap3\n      jump\t// out\n        /* \"#utility.yul\":7707:8361   */\n    tag_29:\n        /* \"#utility.yul\":7785:7791   */\n      0x00\n        /* \"#utility.yul\":7793:7799   */\n      dup1\n        /* \"#utility.yul\":7842:7844   */\n      0x40\n        /* \"#utility.yul\":7830:7839   */\n      dup4\n        /* \"#utility.yul\":7821:7828   */\n      dup6\n        /* \"#utility.yul\":7817:7840   */\n      sub\n        /* \"#utility.yul\":7813:7845   */\n      slt\n        /* \"#utility.yul\":7810:7929   */\n      iszero\n      tag_254\n      jumpi\n        /* \"#utility.yul\":7848:7927   */\n      tag_255\n      tag_101\n      jump\t// in\n    tag_255:\n        /* \"#utility.yul\":7810:7929   */\n    tag_254:\n        /* \"#utility.yul\":7968:7969   */\n      0x00\n        /* \"#utility.yul\":7993:8046   */\n      tag_256\n        /* \"#utility.yul\":8038:8045   */\n      dup6\n        /* \"#utility.yul\":8029:8035   */\n      dup3\n        /* \"#utility.yul\":8018:8027   */\n      dup7\n        /* \"#utility.yul\":8014:8036   */\n      add\n        /* \"#utility.yul\":7993:8046   */\n      tag_117\n      jump\t// in\n    tag_256:\n        /* \"#utility.yul\":7983:8046   */\n      swap3\n      pop\n        /* \"#utility.yul\":7939:8056   */\n      pop\n        /* \"#utility.yul\":8123:8125   */\n      0x20\n        /* \"#utility.yul\":8112:8121   */\n      dup4\n        /* \"#utility.yul\":8108:8126   */\n      add\n        /* \"#utility.yul\":8095:8127   */\n      calldataload\n        /* \"#utility.yul\":8154:8172   */\n      0xffffffffffffffff\n        /* \"#utility.yul\":8146:8152   */\n      dup2\n        /* \"#utility.yul\":8143:8173   */\n      gt\n        /* \"#utility.yul\":8140:8257   */\n      iszero\n      tag_257\n      jumpi\n        /* \"#utility.yul\":8176:8255   */\n      tag_258\n      tag_102\n      jump\t// in\n    tag_258:\n        /* \"#utility.yul\":8140:8257   */\n    tag_257:\n        /* \"#utility.yul\":8281:8344   */\n      tag_259\n        /* \"#utility.yul\":8336:8343   */\n      dup6\n        /* \"#utility.yul\":8327:8333   */\n      dup3\n        /* \"#utility.yul\":8316:8325   */\n      dup7\n        /* \"#utility.yul\":8312:8334   */\n      add\n        /* \"#utility.yul\":8281:8344   */\n      tag_127\n      jump\t// in\n    tag_259:\n        /* \"#utility.yul\":8271:8344   */\n      swap2\n      pop\n        /* \"#utility.yul\":8066:8354   */\n      pop\n        /* \"#utility.yul\":7707:8361   */\n      swap3\n      pop\n      swap3\n      swap1\n      pop\n      jump\t// out\n        /* \"#utility.yul\":8367:8589   */\n    tag_34:\n        /* \"#utility.yul\":8460:8464   */\n      0x00\n        /* \"#utility.yul\":8498:8500   */\n      0x20\n        /* \"#utility.yul\":8487:8496   */\n      dup3\n        /* \"#utility.yul\":8483:8501   */\n      add\n        /* \"#utility.yul\":8475:8501   */\n      swap1\n      pop\n        /* \"#utility.yul\":8511:8582   */\n      tag_261\n        /* \"#utility.yul\":8579:8580   */\n      0x00\n        /* \"#utility.yul\":8568:8577   */\n      dup4\n        /* \"#utility.yul\":8564:8581   */\n      add\n        /* \"#utility.yul\":8555:8561   */\n      dup5\n        /* \"#utility.yul\":8511:8582   */\n      tag_118\n      jump\t// in\n    tag_261:\n        /* \"#utility.yul\":8367:8589   */\n      swap3\n      swap2\n      pop\n      pop\n      jump\t// out\n        /* \"#utility.yul\":8595:8736   */\n    tag_128:\n        /* \"#utility.yul\":8689:8695   */\n      0x00\n        /* \"#utility.yul\":8723:8728   */\n      dup2\n        /* \"#utility.yul\":8717:8729   */\n      mload\n        /* \"#utility.yul\":8707:8729   */\n      swap1\n      pop\n        /* \"#utility.yul\":8595:8736   */\n      swap2\n      swap1\n      pop\n      jump\t// out\n        /* \"#utility.yul\":8742:8953   */\n    tag_129:\n        /* \"#utility.yul\":8868:8879   */\n      0x00\n        /* \"#utility.yul\":8902:8908   */\n      dup3\n        /* \"#utility.yul\":8897:8900   */\n      dup3\n        /* \"#utility.yul\":8890:8909   */\n      mstore\n        /* \"#utility.yul\":8942:8946   */\n      0x20\n        /* \"#utility.yul\":8937:8940   */\n      dup3\n        /* \"#utility.yul\":8933:8947   */\n      add\n        /* \"#utility.yul\":8918:8947   */\n      swap1\n      pop\n        /* \"#utility.yul\":8742:8953   */\n      swap3\n      swap2\n      pop\n      pop\n      jump\t// out\n        /* \"#utility.yul\":8959:9118   */\n    tag_130:\n        /* \"#utility.yul\":9053:9057   */\n      0x00\n        /* \"#utility.yul\":9076:9079   */\n      dup2\n        /* \"#utility.yul\":9068:9079   */\n      swap1\n      pop\n        /* \"#utility.yul\":9106:9110   */\n      0x20\n        /* \"#utility.yul\":9101:9104   */\n      dup3\n        /* \"#utility.yul\":9097:9111   */\n      add\n        /* \"#utility.yul\":9089:9111   */\n      swap1\n      pop\n        /* \"#utility.yul\":8959:9118   */\n      swap2\n      swap1\n      pop\n      jump\t// out\n        /* \"#utility.yul\":9124:9232   */\n    tag_131:\n        /* \"#utility.yul\":9201:9225   */\n      tag_266\n        /* \"#utility.yul\":9219:9224   */\n      dup2\n        /* \"#utility.yul\":9201:9225   */\n      tag_104\n      jump\t// in\n    tag_266:\n        /* \"#utility.yul\":9196:9199   */\n      dup3\n        /* \"#utility.yul\":9189:9226   */\n      mstore\n        /* \"#utility.yul\":9124:9232   */\n      pop\n      pop\n      jump\t// out\n        /* \"#utility.yul\":9238:9346   */\n    tag_132:\n        /* \"#utility.yul\":9315:9339   */\n      tag_268\n        /* \"#utility.yul\":9333:9338   */\n      dup2\n        /* \"#utility.yul\":9315:9339   */\n      tag_114\n      jump\t// in\n    tag_268:\n        /* \"#utility.yul\":9310:9313   */\n      dup3\n        /* \"#utility.yul\":9303:9340   */\n      mstore\n        /* \"#utility.yul\":9238:9346   */\n      pop\n      pop\n      jump\t// out\n        /* \"#utility.yul\":9352:9511   */\n    tag_133:\n        /* \"#utility.yul\":9426:9437   */\n      0x00\n        /* \"#utility.yul\":9460:9466   */\n      dup3\n        /* \"#utility.yul\":9455:9458   */\n      dup3\n        /* \"#utility.yul\":9448:9467   */\n      mstore\n        /* \"#utility.yul\":9500:9504   */\n      0x20\n        /* \"#utility.yul\":9495:9498   */\n      dup3\n        /* \"#utility.yul\":9491:9505   */\n      add\n        /* \"#utility.yul\":9476:9505   */\n      swap1\n      pop\n        /* \"#utility.yul\":9352:9511   */\n      swap3\n      swap2\n      pop\n      pop\n      jump\t// out\n        /* \"#utility.yul\":9517:9874   */\n    tag_134:\n        /* \"#utility.yul\":9595:9598   */\n      0x00\n        /* \"#utility.yul\":9623:9662   */\n      tag_271\n        /* \"#utility.yul\":9656:9661   */\n      dup3\n        /* \"#utility.yul\":9623:9662   */\n      tag_109\n      jump\t// in\n    tag_271:\n        /* \"#utility.yul\":9678:9739   */\n      tag_272\n        /* \"#utility.yul\":9732:9738   */\n      dup2\n        /* \"#utility.yul\":9727:9730   */\n      dup6\n        /* \"#utility.yul\":9678:9739   */\n      tag_133\n      jump\t// in\n    tag_272:\n        /* \"#utility.yul\":9671:9739   */\n      swap4\n      pop\n        /* \"#utility.yul\":9748:9813   */\n      tag_273\n        /* \"#utility.yul\":9806:9812   */\n      dup2\n        /* \"#utility.yul\":9801:9804   */\n      dup6\n        /* \"#utility.yul\":9794:9798   */\n      0x20\n        /* \"#utility.yul\":9787:9792   */\n      dup7\n        /* \"#utility.yul\":9783:9799   */\n      add\n        /* \"#utility.yul\":9748:9813   */\n      tag_111\n      jump\t// in\n    tag_273:\n        /* \"#utility.yul\":9838:9867   */\n      tag_274\n        /* \"#utility.yul\":9860:9866   */\n      dup2\n        /* \"#utility.yul\":9838:9867   */\n      tag_112\n      jump\t// in\n    tag_274:\n        /* \"#utility.yul\":9833:9836   */\n      dup5\n        /* \"#utility.yul\":9829:9868   */\n      add\n        /* \"#utility.yul\":9822:9868   */\n      swap2\n      pop\n        /* \"#utility.yul\":9599:9874   */\n      pop\n        /* \"#utility.yul\":9517:9874   */\n      swap3\n      swap2\n      pop\n      pop\n      jump\t// out\n        /* \"#utility.yul\":9880:9979   */\n    tag_135:\n        /* \"#utility.yul\":9951:9972   */\n      tag_276\n        /* \"#utility.yul\":9966:9971   */\n      dup2\n        /* \"#utility.yul\":9951:9972   */\n      tag_107\n      jump\t// in\n    tag_276:\n        /* \"#utility.yul\":9946:9949   */\n      dup3\n        /* \"#utility.yul\":9939:9973   */\n      mstore\n        /* \"#utility.yul\":9880:9979   */\n      pop\n      pop\n      jump\t// out\n        /* \"#utility.yul\":10071:11041   */\n    tag_136:\n        /* \"#utility.yul\":10184:10187   */\n      0x00\n        /* \"#utility.yul\":10220:10224   */\n      0x80\n        /* \"#utility.yul\":10215:10218   */\n      dup4\n        /* \"#utility.yul\":10211:10225   */\n      add\n        /* \"#utility.yul\":10317:10321   */\n      0x00\n        /* \"#utility.yul\":10310:10315   */\n      dup4\n        /* \"#utility.yul\":10306:10322   */\n      add\n        /* \"#utility.yul\":10300:10323   */\n      mload\n        /* \"#utility.yul\":10336:10399   */\n      tag_278\n        /* \"#utility.yul\":10393:10397   */\n      0x00\n        /* \"#utility.yul\":10388:10391   */\n      dup7\n        /* \"#utility.yul\":10384:10398   */\n      add\n        /* \"#utility.yul\":10370:10382   */\n      dup3\n        /* \"#utility.yul\":10336:10399   */\n      tag_131\n      jump\t// in\n    tag_278:\n        /* \"#utility.yul\":10235:10409   */\n      pop\n        /* \"#utility.yul\":10502:10506   */\n      0x20\n        /* \"#utility.yul\":10495:10500   */\n      dup4\n        /* \"#utility.yul\":10491:10507   */\n      add\n        /* \"#utility.yul\":10485:10508   */\n      mload\n        /* \"#utility.yul\":10521:10584   */\n      tag_279\n        /* \"#utility.yul\":10578:10582   */\n      0x20\n        /* \"#utility.yul\":10573:10576   */\n      dup7\n        /* \"#utility.yul\":10569:10583   */\n      add\n        /* \"#utility.yul\":10555:10567   */\n      dup3\n        /* \"#utility.yul\":10521:10584   */\n      tag_132\n      jump\t// in\n    tag_279:\n        /* \"#utility.yul\":10419:10594   */\n      pop\n        /* \"#utility.yul\":10678:10682   */\n      0x40\n        /* \"#utility.yul\":10671:10676   */\n      dup4\n        /* \"#utility.yul\":10667:10683   */\n      add\n        /* \"#utility.yul\":10661:10684   */\n      mload\n        /* \"#utility.yul\":10731:10734   */\n      dup5\n        /* \"#utility.yul\":10725:10729   */\n      dup3\n        /* \"#utility.yul\":10721:10735   */\n      sub\n        /* \"#utility.yul\":10714:10718   */\n      0x40\n        /* \"#utility.yul\":10709:10712   */\n      dup7\n        /* \"#utility.yul\":10705:10719   */\n      add\n        /* \"#utility.yul\":10698:10736   */\n      mstore\n        /* \"#utility.yul\":10757:10830   */\n      tag_280\n        /* \"#utility.yul\":10825:10829   */\n      dup3\n        /* \"#utility.yul\":10811:10823   */\n      dup3\n        /* \"#utility.yul\":10757:10830   */\n      tag_134\n      jump\t// in\n    tag_280:\n        /* \"#utility.yul\":10749:10830   */\n      swap2\n      pop\n        /* \"#utility.yul\":10604:10841   */\n      pop\n        /* \"#utility.yul\":10928:10932   */\n      0x60\n        /* \"#utility.yul\":10921:10926   */\n      dup4\n        /* \"#utility.yul\":10917:10933   */\n      add\n        /* \"#utility.yul\":10911:10934   */\n      mload\n        /* \"#utility.yul\":10947:11004   */\n      tag_281\n        /* \"#utility.yul\":10998:11002   */\n      0x60\n        /* \"#utility.yul\":10993:10996   */\n      dup7\n        /* \"#utility.yul\":10989:11003   */\n      add\n        /* \"#utility.yul\":10975:10987   */\n      dup3\n        /* \"#utility.yul\":10947:11004   */\n      tag_135\n      jump\t// in\n    tag_281:\n        /* \"#utility.yul\":10851:11014   */\n      pop\n        /* \"#utility.yul\":11031:11035   */\n      dup1\n        /* \"#utility.yul\":11024:11035   */\n      swap2\n      pop\n        /* \"#utility.yul\":10189:11041   */\n      pop\n        /* \"#utility.yul\":10071:11041   */\n      swap3\n      swap2\n      pop\n      pop\n      jump\t// out\n        /* \"#utility.yul\":11047:11311   */\n    tag_137:\n        /* \"#utility.yul\":11170:11180   */\n      0x00\n        /* \"#utility.yul\":11205:11305   */\n      tag_283\n        /* \"#utility.yul\":11301:11304   */\n      dup4\n        /* \"#utility.yul\":11293:11299   */\n      dup4\n        /* \"#utility.yul\":11205:11305   */\n      tag_136\n      jump\t// in\n    tag_283:\n        /* \"#utility.yul\":11191:11305   */\n      swap1\n      pop\n        /* \"#utility.yul\":11047:11311   */\n      swap3\n      swap2\n      pop\n      pop\n      jump\t// out\n        /* \"#utility.yul\":11317:11457   */\n    tag_138:\n        /* \"#utility.yul\":11414:11418   */\n      0x00\n        /* \"#utility.yul\":11446:11450   */\n      0x20\n        /* \"#utility.yul\":11441:11444   */\n      dup3\n        /* \"#utility.yul\":11437:11451   */\n      add\n        /* \"#utility.yul\":11429:11451   */\n      swap1\n      pop\n        /* \"#utility.yul\":11317:11457   */\n      swap2\n      swap1\n      pop\n      jump\t// out\n        /* \"#utility.yul\":11553:12680   */\n    tag_139:\n        /* \"#utility.yul\":11726:11729   */\n      0x00\n        /* \"#utility.yul\":11755:11836   */\n      tag_286\n        /* \"#utility.yul\":11830:11835   */\n      dup3\n        /* \"#utility.yul\":11755:11836   */\n      tag_128\n      jump\t// in\n    tag_286:\n        /* \"#utility.yul\":11852:11965   */\n      tag_287\n        /* \"#utility.yul\":11958:11964   */\n      dup2\n        /* \"#utility.yul\":11953:11956   */\n      dup6\n        /* \"#utility.yul\":11852:11965   */\n      tag_129\n      jump\t// in\n    tag_287:\n        /* \"#utility.yul\":11845:11965   */\n      swap4\n      pop\n        /* \"#utility.yul\":11991:11994   */\n      dup4\n        /* \"#utility.yul\":12036:12040   */\n      0x20\n        /* \"#utility.yul\":12028:12034   */\n      dup3\n        /* \"#utility.yul\":12024:12041   */\n      mul\n        /* \"#utility.yul\":12019:12022   */\n      dup6\n        /* \"#utility.yul\":12015:12042   */\n      add\n        /* \"#utility.yul\":12066:12149   */\n      tag_288\n        /* \"#utility.yul\":12143:12148   */\n      dup6\n        /* \"#utility.yul\":12066:12149   */\n      tag_130\n      jump\t// in\n    tag_288:\n        /* \"#utility.yul\":12172:12179   */\n      dup1\n        /* \"#utility.yul\":12203:12204   */\n      0x00\n        /* \"#utility.yul\":12188:12635   */\n    tag_289:\n        /* \"#utility.yul\":12213:12219   */\n      dup6\n        /* \"#utility.yul\":12210:12211   */\n      dup2\n        /* \"#utility.yul\":12207:12220   */\n      lt\n        /* \"#utility.yul\":12188:12635   */\n      iszero\n      tag_291\n      jumpi\n        /* \"#utility.yul\":12284:12293   */\n      dup5\n        /* \"#utility.yul\":12278:12282   */\n      dup5\n        /* \"#utility.yul\":12274:12294   */\n      sub\n        /* \"#utility.yul\":12269:12272   */\n      dup10\n        /* \"#utility.yul\":12262:12295   */\n      mstore\n        /* \"#utility.yul\":12335:12341   */\n      dup2\n        /* \"#utility.yul\":12329:12342   */\n      mload\n        /* \"#utility.yul\":12363:12481   */\n      tag_292\n        /* \"#utility.yul\":12476:12480   */\n      dup6\n        /* \"#utility.yul\":12461:12474   */\n      dup3\n        /* \"#utility.yul\":12363:12481   */\n      tag_137\n      jump\t// in\n    tag_292:\n        /* \"#utility.yul\":12355:12481   */\n      swap5\n      pop\n        /* \"#utility.yul\":12504:12591   */\n      tag_293\n        /* \"#utility.yul\":12584:12590   */\n      dup4\n        /* \"#utility.yul\":12504:12591   */\n      tag_138\n      jump\t// in\n    tag_293:\n        /* \"#utility.yul\":12494:12591   */\n      swap3\n      pop\n        /* \"#utility.yul\":12620:12624   */\n      0x20\n        /* \"#utility.yul\":12615:12618   */\n      dup11\n        /* \"#utility.yul\":12611:12625   */\n      add\n        /* \"#utility.yul\":12604:12625   */\n      swap10\n      pop\n        /* \"#utility.yul\":12248:12635   */\n      pop\n        /* \"#utility.yul\":12235:12236   */\n      0x01\n        /* \"#utility.yul\":12232:12233   */\n      dup2\n        /* \"#utility.yul\":12228:12237   */\n      add\n        /* \"#utility.yul\":12223:12237   */\n      swap1\n      pop\n        /* \"#utility.yul\":12188:12635   */\n      jump(tag_289)\n    tag_291:\n        /* \"#utility.yul\":12192:12206   */\n      pop\n        /* \"#utility.yul\":12651:12655   */\n      dup3\n        /* \"#utility.yul\":12644:12655   */\n      swap8\n      pop\n        /* \"#utility.yul\":12671:12674   */\n      dup8\n        /* \"#utility.yul\":12664:12674   */\n      swap6\n      pop\n        /* \"#utility.yul\":11731:12680   */\n      pop\n      pop\n      pop\n      pop\n      pop\n        /* \"#utility.yul\":11553:12680   */\n      swap3\n      swap2\n      pop\n      pop\n      jump\t// out\n        /* \"#utility.yul\":12686:13167   */\n    tag_38:\n        /* \"#utility.yul\":12883:12887   */\n      0x00\n        /* \"#utility.yul\":12921:12923   */\n      0x20\n        /* \"#utility.yul\":12910:12919   */\n      dup3\n        /* \"#utility.yul\":12906:12924   */\n      add\n        /* \"#utility.yul\":12898:12924   */\n      swap1\n      pop\n        /* \"#utility.yul\":12970:12979   */\n      dup2\n        /* \"#utility.yul\":12964:12968   */\n      dup2\n        /* \"#utility.yul\":12960:12980   */\n      sub\n        /* \"#utility.yul\":12956:12957   */\n      0x00\n        /* \"#utility.yul\":12945:12954   */\n      dup4\n        /* \"#utility.yul\":12941:12958   */\n      add\n        /* \"#utility.yul\":12934:12981   */\n      mstore\n        /* \"#utility.yul\":12998:13160   */\n      tag_295\n        /* \"#utility.yul\":13155:13159   */\n      dup2\n        /* \"#utility.yul\":13146:13152   */\n      dup5\n        /* \"#utility.yul\":12998:13160   */\n      tag_139\n      jump\t// in\n    tag_295:\n        /* \"#utility.yul\":12990:13160   */\n      swap1\n      pop\n        /* \"#utility.yul\":12686:13167   */\n      swap3\n      swap2\n      pop\n      pop\n      jump\t// out\n        /* \"#utility.yul\":13173:13289   */\n    tag_140:\n        /* \"#utility.yul\":13243:13264   */\n      tag_297\n        /* \"#utility.yul\":13258:13263   */\n      dup2\n        /* \"#utility.yul\":13243:13264   */\n      tag_107\n      jump\t// in\n    tag_297:\n        /* \"#utility.yul\":13236:13241   */\n      dup2\n        /* \"#utility.yul\":13233:13265   */\n      eq\n        /* \"#utility.yul\":13223:13283   */\n      tag_298\n      jumpi\n        /* \"#utility.yul\":13279:13280   */\n      0x00\n        /* \"#utility.yul\":13276:13277   */\n      dup1\n        /* \"#utility.yul\":13269:13281   */\n      revert\n        /* \"#utility.yul\":13223:13283   */\n    tag_298:\n        /* \"#utility.yul\":13173:13289   */\n      pop\n      jump\t// out\n        /* \"#utility.yul\":13295:13428   */\n    tag_141:\n        /* \"#utility.yul\":13338:13343   */\n      0x00\n        /* \"#utility.yul\":13376:13382   */\n      dup2\n        /* \"#utility.yul\":13363:13383   */\n      calldataload\n        /* \"#utility.yul\":13354:13383   */\n      swap1\n      pop\n        /* \"#utility.yul\":13392:13422   */\n      tag_300\n        /* \"#utility.yul\":13416:13421   */\n      dup2\n        /* \"#utility.yul\":13392:13422   */\n      tag_140\n      jump\t// in\n    tag_300:\n        /* \"#utility.yul\":13295:13428   */\n      swap3\n      swap2\n      pop\n      pop\n      jump\t// out\n        /* \"#utility.yul\":13434:13902   */\n    tag_41:\n        /* \"#utility.yul\":13499:13505   */\n      0x00\n        /* \"#utility.yul\":13507:13513   */\n      dup1\n        /* \"#utility.yul\":13556:13558   */\n      0x40\n        /* \"#utility.yul\":13544:13553   */\n      dup4\n        /* \"#utility.yul\":13535:13542   */\n      dup6\n        /* \"#utility.yul\":13531:13554   */\n      sub\n        /* \"#utility.yul\":13527:13559   */\n      slt\n        /* \"#utility.yul\":13524:13643   */\n      iszero\n      tag_302\n      jumpi\n        /* \"#utility.yul\":13562:13641   */\n      tag_303\n      tag_101\n      jump\t// in\n    tag_303:\n        /* \"#utility.yul\":13524:13643   */\n    tag_302:\n        /* \"#utility.yul\":13682:13683   */\n      0x00\n        /* \"#utility.yul\":13707:13760   */\n      tag_304\n        /* \"#utility.yul\":13752:13759   */\n      dup6\n        /* \"#utility.yul\":13743:13749   */\n      dup3\n        /* \"#utility.yul\":13732:13741   */\n      dup7\n        /* \"#utility.yul\":13728:13750   */\n      add\n        /* \"#utility.yul\":13707:13760   */\n      tag_117\n      jump\t// in\n    tag_304:\n        /* \"#utility.yul\":13697:13760   */\n      swap3\n      pop\n        /* \"#utility.yul\":13653:13770   */\n      pop\n        /* \"#utility.yul\":13809:13811   */\n      0x20\n        /* \"#utility.yul\":13835:13885   */\n      tag_305\n        /* \"#utility.yul\":13877:13884   */\n      dup6\n        /* \"#utility.yul\":13868:13874   */\n      dup3\n        /* \"#utility.yul\":13857:13866   */\n      dup7\n        /* \"#utility.yul\":13853:13875   */\n      add\n        /* \"#utility.yul\":13835:13885   */\n      tag_141\n      jump\t// in\n    tag_305:\n        /* \"#utility.yul\":13825:13885   */\n      swap2\n      pop\n        /* \"#utility.yul\":13780:13895   */\n      pop\n        /* \"#utility.yul\":13434:13902   */\n      swap3\n      pop\n      swap3\n      swap1\n      pop\n      jump\t// out\n        /* \"#utility.yul\":13908:14088   */\n    tag_142:\n        /* \"#utility.yul\":13956:14033   */\n      0x4e487b7100000000000000000000000000000000000000000000000000000000\n        /* \"#utility.yul\":13953:13954   */\n      0x00\n        /* \"#utility.yul\":13946:14034   */\n      mstore\n        /* \"#utility.yul\":14053:14057   */\n      0x22\n        /* \"#utility.yul\":14050:14051   */\n      0x04\n        /* \"#utility.yul\":14043:14058   */\n      mstore\n        /* \"#utility.yul\":14077:14081   */\n      0x24\n        /* \"#utility.yul\":14074:14075   */\n      0x00\n        /* \"#utility.yul\":14067:14082   */\n      revert\n        /* \"#utility.yul\":14094:14414   */\n    tag_44:\n        /* \"#utility.yul\":14138:14144   */\n      0x00\n        /* \"#utility.yul\":14175:14176   */\n      0x02\n        /* \"#utility.yul\":14169:14173   */\n      dup3\n        /* \"#utility.yul\":14165:14177   */\n      div\n        /* \"#utility.yul\":14155:14177   */\n      swap1\n      pop\n        /* \"#utility.yul\":14222:14223   */\n      0x01\n        /* \"#utility.yul\":14216:14220   */\n      dup3\n        /* \"#utility.yul\":14212:14224   */\n      and\n        /* \"#utility.yul\":14243:14261   */\n      dup1\n        /* \"#utility.yul\":14233:14314   */\n      tag_308\n      jumpi\n        /* \"#utility.yul\":14299:14303   */\n      0x7f\n        /* \"#utility.yul\":14291:14297   */\n      dup3\n        /* \"#utility.yul\":14287:14304   */\n      and\n        /* \"#utility.yul\":14277:14304   */\n      swap2\n      pop\n        /* \"#utility.yul\":14233:14314   */\n    tag_308:\n        /* \"#utility.yul\":14361:14363   */\n      0x20\n        /* \"#utility.yul\":14353:14359   */\n      dup3\n        /* \"#utility.yul\":14350:14364   */\n      lt\n        /* \"#utility.yul\":14330:14348   */\n      dup2\n        /* \"#utility.yul\":14327:14365   */\n      sub\n        /* \"#utility.yul\":14324:14408   */\n      tag_309\n      jumpi\n        /* \"#utility.yul\":14380:14398   */\n      tag_310\n      tag_142\n      jump\t// in\n    tag_310:\n        /* \"#utility.yul\":14324:14408   */\n    tag_309:\n        /* \"#utility.yul\":14145:14414   */\n      pop\n        /* \"#utility.yul\":14094:14414   */\n      swap2\n      swap1\n      pop\n      jump\t// out\n        /* \"#utility.yul\":14420:14561   */\n    tag_143:\n        /* \"#utility.yul\":14469:14473   */\n      0x00\n        /* \"#utility.yul\":14492:14495   */\n      dup2\n        /* \"#utility.yul\":14484:14495   */\n      swap1\n      pop\n        /* \"#utility.yul\":14515:14518   */\n      dup2\n        /* \"#utility.yul\":14512:14513   */\n      0x00\n        /* \"#utility.yul\":14505:14519   */\n      mstore\n        /* \"#utility.yul\":14549:14553   */\n      0x20\n        /* \"#utility.yul\":14546:14547   */\n      0x00\n        /* \"#utility.yul\":14536:14554   */\n      keccak256\n        /* \"#utility.yul\":14528:14554   */\n      swap1\n      pop\n        /* \"#utility.yul\":14420:14561   */\n      swap2\n      swap1\n      pop\n      jump\t// out\n        /* \"#utility.yul\":14567:14660   */\n    tag_144:\n        /* \"#utility.yul\":14604:14610   */\n      0x00\n        /* \"#utility.yul\":14651:14653   */\n      0x20\n        /* \"#utility.yul\":14646:14648   */\n      0x1f\n        /* \"#utility.yul\":14639:14644   */\n      dup4\n        /* \"#utility.yul\":14635:14649   */\n      add\n        /* \"#utility.yul\":14631:14654   */\n      div\n        /* \"#utility.yul\":14621:14654   */\n      swap1\n      pop\n        /* \"#utility.yul\":14567:14660   */\n      swap2\n      swap1\n      pop\n      jump\t// out\n        /* \"#utility.yul\":14666:14773   */\n    tag_145:\n        /* \"#utility.yul\":14710:14718   */\n      0x00\n        /* \"#utility.yul\":14760:14765   */\n      dup3\n        /* \"#utility.yul\":14754:14758   */\n      dup3\n        /* \"#utility.yul\":14750:14766   */\n      shl\n        /* \"#utility.yul\":14729:14766   */\n      swap1\n      pop\n        /* \"#utility.yul\":14666:14773   */\n      swap3\n      swap2\n      pop\n      pop\n      jump\t// out\n        /* \"#utility.yul\":14779:15172   */\n    tag_146:\n        /* \"#utility.yul\":14848:14854   */\n      0x00\n        /* \"#utility.yul\":14898:14899   */\n      0x08\n        /* \"#utility.yul\":14886:14896   */\n      dup4\n        /* \"#utility.yul\":14882:14900   */\n      mul\n        /* \"#utility.yul\":14921:15018   */\n      tag_315\n        /* \"#utility.yul\":14951:15017   */\n      0xffffffffffffffffffffffffffffffffffffffffffffffffffffffffffffffff\n        /* \"#utility.yul\":14940:14949   */\n      dup3\n        /* \"#utility.yul\":14921:15018   */\n      tag_145\n      jump\t// in\n    tag_315:\n        /* \"#utility.yul\":15039:15078   */\n      tag_316\n        /* \"#utility.yul\":15069:15077   */\n      dup7\n        /* \"#utility.yul\":15058:15067   */\n      dup4\n        /* \"#utility.yul\":15039:15078   */\n      tag_145\n      jump\t// in\n    tag_316:\n        /* \"#utility.yul\":15027:15078   */\n      swap6\n      pop\n        /* \"#utility.yul\":15111:15115   */\n      dup1\n        /* \"#utility.yul\":15107:15116   */\n      not\n        /* \"#utility.yul\":15100:15105   */\n      dup5\n        /* \"#utility.yul\":15096:15117   */\n      and\n        /* \"#utility.yul\":15087:15117   */\n      swap4\n      pop\n        /* \"#utility.yul\":15160:15164   */\n      dup1\n        /* \"#utility.yul\":15150:15158   */\n      dup7\n        /* \"#utility.yul\":15146:15165   */\n      and\n        /* \"#utility.yul\":15139:15144   */\n      dup5\n        /* \"#utility.yul\":15136:15166   */\n      or\n        /* \"#utility.yul\":15126:15166   */\n      swap3\n      pop\n        /* \"#utility.yul\":14855:15172   */\n      pop\n      pop\n        /* \"#utility.yul\":14779:15172   */\n      swap4\n      swap3\n      pop\n      pop\n      pop\n      jump\t// out\n        /* \"#utility.yul\":15178:15238   */\n    tag_147:\n        /* \"#utility.yul\":15206:15209   */\n      0x00\n        /* \"#utility.yul\":15227:15232   */\n      dup2\n        /* \"#utility.yul\":15220:15232   */\n      swap1\n      pop\n        /* \"#utility.yul\":15178:15238   */\n      swap2\n      swap1\n      pop\n      jump\t// out\n        /* \"#utility.yul\":15244:15386   */\n    tag_148:\n        /* \"#utility.yul\":15294:15303   */\n      0x00\n        /* \"#utility.yul\":15327:15380   */\n      tag_319\n        /* \"#utility.yul\":15345:15379   */\n      tag_320\n        /* \"#utility.yul\":15354:15378   */\n      tag_321\n        /* \"#utility.yul\":15372:15377   */\n      dup5\n        /* \"#utility.yul\":15354:15378   */\n      tag_114\n      jump\t// in\n    tag_321:\n        /* \"#utility.yul\":15345:15379   */\n      tag_147\n      jump\t// in\n    tag_320:\n        /* \"#utility.yul\":15327:15380   */\n      tag_114\n      jump\t// in\n    tag_319:\n        /* \"#utility.yul\":15314:15380   */\n      swap1\n      pop\n        /* \"#utility.yul\":15244:15386   */\n      swap2\n      swap1\n      pop\n      jump\t// out\n        /* \"#utility.yul\":15392:15467   */\n    tag_149:\n        /* \"#utility.yul\":15435:15438   */\n      0x00\n        /* \"#utility.yul\":15456:15461   */\n      dup2\n        /* \"#utility.yul\":15449:15461   */\n      swap1\n      pop\n        /* \"#utility.yul\":15392:15467   */\n      swap2\n      swap1\n      pop\n      jump\t// out\n        /* \"#utility.yul\":15473:15742   */\n    tag_150:\n        /* \"#utility.yul\":15583:15622   */\n      tag_324\n        /* \"#utility.yul\":15614:15621   */\n      dup4\n        /* \"#utility.yul\":15583:15622   */\n      tag_148\n      jump\t// in\n    tag_324:\n        /* \"#utility.yul\":15644:15735   */\n      tag_325\n        /* \"#utility.yul\":15693:15734   */\n      tag_326\n        /* \"#utility.yul\":15717:15733   */\n      dup3\n        /* \"#utility.yul\":15693:15734   */\n      tag_149\n      jump\t// in\n    tag_326:\n        /* \"#utility.yul\":15685:15691   */\n      dup5\n        /* \"#utility.yul\":15678:15682   */\n      dup5\n        /* \"#utility.yul\":15672:15683   */\n      sload\n        /* \"#utility.yul\":15644:15735   */\n      tag_146\n      jump\t// in\n    tag_325:\n        /* \"#utility.yul\":15638:15642   */\n      dup3\n        /* \"#utility.yul\":15631:15736   */\n      sstore\n        /* \"#utility.yul\":15549:15742   */\n      pop\n        /* \"#utility.yul\":15473:15742   */\n      pop\n      pop\n      pop\n      jump\t// out\n        /* \"#utility.yul\":15748:15821   */\n    tag_151:\n        /* \"#utility.yul\":15793:15796   */\n      0x00\n        /* \"#utility.yul\":15748:15821   */\n      swap1\n      jump\t// out\n        /* \"#utility.yul\":15827:16016   */\n    tag_152:\n        /* \"#utility.yul\":15904:15936   */\n      tag_329\n      tag_151\n      jump\t// in\n    tag_329:\n        /* \"#utility.yul\":15945:16010   */\n      tag_330\n        /* \"#utility.yul\":16003:16009   */\n      dup2\n        /* \"#utility.yul\":15995:16001   */\n      dup5\n        /* \"#utility.yul\":15989:15993   */\n      dup5\n        /* \"#utility.yul\":15945:16010   */\n      tag_150\n      jump\t// in\n    tag_330:\n        /* \"#utility.yul\":15880:16016   */\n      pop\n        /* \"#utility.yul\":15827:16016   */\n      pop\n      pop\n      jump\t// out\n        /* \"#utility.yul\":16022:16208   */\n    tag_153:\n        /* \"#utility.yul\":16082:16202   */\n    tag_332:\n        /* \"#utility.yul\":16099:16102   */\n      dup2\n        /* \"#utility.yul\":16092:16097   */\n      dup2\n        /* \"#utility.yul\":16089:16103   */\n      lt\n        /* \"#utility.yul\":16082:16202   */\n      iszero\n      tag_334\n      jumpi\n        /* \"#utility.yul\":16153:16192   */\n      tag_335\n        /* \"#utility.yul\":16190:16191   */\n      0x00\n        /* \"#utility.yul\":16183:16188   */\n      dup3\n        /* \"#utility.yul\":16153:16192   */\n      tag_152\n      jump\t// in\n    tag_335:\n        /* \"#utility.yul\":16126:16127   */\n      0x01\n        /* \"#utility.yul\":16119:16124   */\n      dup2\n        /* \"#utility.yul\":16115:16128   */\n      add\n        /* \"#utility.yul\":16106:16128   */\n      swap1\n      pop\n        /* \"#utility.yul\":16082:16202   */\n      jump(tag_332)\n    tag_334:\n        /* \"#utility.yul\":16022:16208   */\n      pop\n      pop\n      jump\t// out\n        /* \"#utility.yul\":16214:16757   */\n    tag_154:\n        /* \"#utility.yul\":16315:16317   */\n      0x1f\n        /* \"#utility.yul\":16310:16313   */\n      dup3\n        /* \"#utility.yul\":16307:16318   */\n      gt\n        /* \"#utility.yul\":16304:16750   */\n      iszero\n      tag_337\n      jumpi\n        /* \"#utility.yul\":16349:16387   */\n      tag_338\n        /* \"#utility.yul\":16381:16386   */\n      dup2\n        /* \"#utility.yul\":16349:16387   */\n      tag_143\n      jump\t// in\n    tag_338:\n        /* \"#utility.yul\":16433:16462   */\n      tag_339\n        /* \"#utility.yul\":16451:16461   */\n      dup5\n        /* \"#utility.yul\":16433:16462   */\n      tag_144\n      jump\t// in\n    tag_339:\n        /* \"#utility.yul\":16423:16431   */\n      dup2\n        /* \"#utility.yul\":16419:16463   */\n      add\n        /* \"#utility.yul\":16616:16618   */\n      0x20\n        /* \"#utility.yul\":16604:16614   */\n      dup6\n        /* \"#utility.yul\":16601:16619   */\n      lt\n        /* \"#utility.yul\":16598:16647   */\n      iszero\n      tag_340\n      jumpi\n        /* \"#utility.yul\":16637:16645   */\n      dup2\n        /* \"#utility.yul\":16622:16645   */\n      swap1\n      pop\n        /* \"#utility.yul\":16598:16647   */\n    tag_340:\n        /* \"#utility.yul\":16660:16740   */\n      tag_341\n        /* \"#utility.yul\":16716:16738   */\n      tag_342\n        /* \"#utility.yul\":16734:16737   */\n      dup6\n        /* \"#utility.yul\":16716:16738   */\n      tag_144\n      jump\t// in\n    tag_342:\n        /* \"#utility.yul\":16706:16714   */\n      dup4\n        /* \"#utility.yul\":16702:16739   */\n      add\n        /* \"#utility.yul\":16689:16700   */\n      dup3\n        /* \"#utility.yul\":16660:16740   */\n      tag_153\n      jump\t// in\n    tag_341:\n        /* \"#utility.yul\":16319:16750   */\n      pop\n      pop\n        /* \"#utility.yul\":16304:16750   */\n    tag_337:\n        /* \"#utility.yul\":16214:16757   */\n      pop\n      pop\n      pop\n      jump\t// out\n        /* \"#utility.yul\":16763:16880   */\n    tag_155:\n        /* \"#utility.yul\":16817:16825   */\n      0x00\n        /* \"#utility.yul\":16867:16872   */\n      dup3\n        /* \"#utility.yul\":16861:16865   */\n      dup3\n        /* \"#utility.yul\":16857:16873   */\n      shr\n        /* \"#utility.yul\":16836:16873   */\n      swap1\n      pop\n        /* \"#utility.yul\":16763:16880   */\n      swap3\n      swap2\n      pop\n      pop\n      jump\t// out\n        /* \"#utility.yul\":16886:17055   */\n    tag_156:\n        /* \"#utility.yul\":16930:16936   */\n      0x00\n        /* \"#utility.yul\":16963:17014   */\n      tag_345\n        /* \"#utility.yul\":17011:17012   */\n      0x00\n        /* \"#utility.yul\":17007:17013   */\n      not\n        /* \"#utility.yul\":16999:17004   */\n      dup5\n        /* \"#utility.yul\":16996:16997   */\n      0x08\n        /* \"#utility.yul\":16992:17005   */\n      mul\n        /* \"#utility.yul\":16963:17014   */\n      tag_155\n      jump\t// in\n    tag_345:\n        /* \"#utility.yul\":16959:17015   */\n      not\n        /* \"#utility.yul\":17044:17048   */\n      dup1\n        /* \"#utility.yul\":17038:17042   */\n      dup4\n        /* \"#utility.yul\":17034:17049   */\n      and\n        /* \"#utility.yul\":17024:17049   */\n      swap2\n      pop\n        /* \"#utility.yul\":16937:17055   */\n      pop\n        /* \"#utility.yul\":16886:17055   */\n      swap3\n      swap2\n      pop\n      pop\n      jump\t// out\n        /* \"#utility.yul\":17060:17355   */\n    tag_157:\n        /* \"#utility.yul\":17136:17140   */\n      0x00\n        /* \"#utility.yul\":17282:17311   */\n      tag_347\n        /* \"#utility.yul\":17307:17310   */\n      dup4\n        /* \"#utility.yul\":17301:17305   */\n      dup4\n        /* \"#utility.yul\":17282:17311   */\n      tag_156\n      jump\t// in\n    tag_347:\n        /* \"#utility.yul\":17274:17311   */\n      swap2\n      pop\n        /* \"#utility.yul\":17344:17347   */\n      dup3\n        /* \"#utility.yul\":17341:17342   */\n      0x02\n        /* \"#utility.yul\":17337:17348   */\n      mul\n        /* \"#utility.yul\":17331:17335   */\n      dup3\n        /* \"#utility.yul\":17328:17349   */\n      or\n        /* \"#utility.yul\":17320:17349   */\n      swap1\n      pop\n        /* \"#utility.yul\":17060:17355   */\n      swap3\n      swap2\n      pop\n      pop\n      jump\t// out\n        /* \"#utility.yul\":17360:18755   */\n    tag_63:\n        /* \"#utility.yul\":17477:17514   */\n      tag_349\n        /* \"#utility.yul\":17510:17513   */\n      dup3\n        /* \"#utility.yul\":17477:17514   */\n      tag_109\n      jump\t// in\n    tag_349:\n        /* \"#utility.yul\":17579:17597   */\n      0xffffffffffffffff\n        /* \"#utility.yul\":17571:17577   */\n      dup2\n        /* \"#utility.yul\":17568:17598   */\n      gt\n        /* \"#utility.yul\":17565:17621   */\n      iszero\n      tag_350\n      jumpi\n        /* \"#utility.yul\":17601:17619   */\n      tag_351\n      tag_121\n      jump\t// in\n    tag_351:\n        /* \"#utility.yul\":17565:17621   */\n    tag_350:\n        /* \"#utility.yul\":17645:17683   */\n      tag_352\n        /* \"#utility.yul\":17677:17681   */\n      dup3\n        /* \"#utility.yul\":17671:17682   */\n      sload\n        /* \"#utility.yul\":17645:17683   */\n      tag_44\n      jump\t// in\n    tag_352:\n        /* \"#utility.yul\":17730:17797   */\n      tag_353\n        /* \"#utility.yul\":17790:17796   */\n      dup3\n        /* \"#utility.yul\":17782:17788   */\n      dup3\n        /* \"#utility.yul\":17776:17780   */\n      dup6\n        /* \"#utility.yul\":17730:17797   */\n      tag_154\n      jump\t// in\n    tag_353:\n        /* \"#utility.yul\":17824:17825   */\n      0x00\n        /* \"#utility.yul\":17848:17852   */\n      0x20\n        /* \"#utility.yul\":17835:17852   */\n      swap1\n      pop\n        /* \"#utility.yul\":17880:17882   */\n      0x1f\n        /* \"#utility.yul\":17872:17878   */\n      dup4\n        /* \"#utility.yul\":17869:17883   */\n      gt\n        /* \"#utility.yul\":17897:17898   */\n      0x01\n        /* \"#utility.yul\":17892:18510   */\n      dup2\n      eq\n      tag_355\n      jumpi\n        /* \"#utility.yul\":18554:18555   */\n      0x00\n        /* \"#utility.yul\":18571:18577   */\n      dup5\n        /* \"#utility.yul\":18568:18645   */\n      iszero\n      tag_356\n      jumpi\n        /* \"#utility.yul\":18620:18629   */\n      dup3\n        /* \"#utility.yul\":18615:18618   */\n      dup8\n        /* \"#utility.yul\":18611:18630   */\n      add\n        /* \"#utility.yul\":18605:18631   */\n      mload\n        /* \"#utility.yul\":18596:18631   */\n      swap1\n      pop\n        /* \"#utility.yul\":18568:18645   */\n    tag_356:\n        /* \"#utility.yul\":18671:18738   */\n      tag_357\n        /* \"#utility.yul\":18731:18737   */\n      dup6\n        /* \"#utility.yul\":18724:18729   */\n      dup3\n        /* \"#utility.yul\":18671:18738   */\n      tag_157\n      jump\t// in\n    tag_357:\n        /* \"#utility.yul\":18665:18669   */\n      dup7\n        /* \"#utility.yul\":18658:18739   */\n      sstore\n        /* \"#utility.yul\":18527:18749   */\n      pop\n        /* \"#utility.yul\":17862:18749   */\n      jump(tag_354)\n        /* \"#utility.yul\":17892:18510   */\n    tag_355:\n        /* \"#utility.yul\":17944:17948   */\n      0x1f\n        /* \"#utility.yul\":17940:17949   */\n      not\n        /* \"#utility.yul\":17932:17938   */\n      dup5\n        /* \"#utility.yul\":17928:17950   */\n      and\n        /* \"#utility.yul\":17978:18015   */\n      tag_358\n        /* \"#utility.yul\":18010:18014   */\n      dup7\n        /* \"#utility.yul\":17978:18015   */\n      tag_143\n      jump\t// in\n    tag_358:\n        /* \"#utility.yul\":18037:18038   */\n      0x00\n        /* \"#utility.yul\":18051:18259   */\n    tag_359:\n        /* \"#utility.yul\":18065:18072   */\n      dup3\n        /* \"#utility.yul\":18062:18063   */\n      dup2\n        /* \"#utility.yul\":18059:18073   */\n      lt\n        /* \"#utility.yul\":18051:18259   */\n      iszero\n      tag_361\n      jumpi\n        /* \"#utility.yul\":18144:18153   */\n      dup5\n        /* \"#utility.yul\":18139:18142   */\n      dup10\n        /* \"#utility.yul\":18135:18154   */\n      add\n        /* \"#utility.yul\":18129:18155   */\n      mload\n        /* \"#utility.yul\":18121:18127   */\n      dup3\n        /* \"#utility.yul\":18114:18156   */\n      sstore\n        /* \"#utility.yul\":18195:18196   */\n      0x01\n        /* \"#utility.yul\":18187:18193   */\n      dup3\n        /* \"#utility.yul\":18183:18197   */\n      add\n        /* \"#utility.yul\":18173:18197   */\n      swap2\n      pop\n        /* \"#utility.yul\":18242:18244   */\n      0x20\n        /* \"#utility.yul\":18231:18240   */\n      dup6\n        /* \"#utility.yul\":18227:18245   */\n      add\n        /* \"#utility.yul\":18214:18245   */\n      swap5\n      pop\n        /* \"#utility.yul\":18088:18092   */\n      0x20\n        /* \"#utility.yul\":18085:18086   */\n      dup2\n        /* \"#utility.yul\":18081:18093   */\n      add\n        /* \"#utility.yul\":18076:18093   */\n      swap1\n      pop\n        /* \"#utility.yul\":18051:18259   */\n      jump(tag_359)\n    tag_361:\n        /* \"#utility.yul\":18287:18293   */\n      dup7\n        /* \"#utility.yul\":18278:18285   */\n      dup4\n        /* \"#utility.yul\":18275:18294   */\n      lt\n        /* \"#utility.yul\":18272:18451   */\n      iszero\n      tag_362\n      jumpi\n        /* \"#utility.yul\":18345:18354   */\n      dup5\n        /* \"#utility.yul\":18340:18343   */\n      dup10\n        /* \"#utility.yul\":18336:18355   */\n      add\n        /* \"#utility.yul\":18330:18356   */\n      mload\n        /* \"#utility.yul\":18388:18436   */\n      tag_363\n        /* \"#utility.yul\":18430:18434   */\n      0x1f\n        /* \"#utility.yul\":18422:18428   */\n      dup10\n        /* \"#utility.yul\":18418:18435   */\n      and\n        /* \"#utility.yul\":18407:18416   */\n      dup3\n        /* \"#utility.yul\":18388:18436   */\n      tag_156\n      jump\t// in\n    tag_363:\n        /* \"#utility.yul\":18380:18386   */\n      dup4\n        /* \"#utility.yul\":18373:18437   */\n      sstore\n        /* \"#utility.yul\":18295:18451   */\n      pop\n        /* \"#utility.yul\":18272:18451   */\n    tag_362:\n        /* \"#utility.yul\":18497:18498   */\n      0x01\n        /* \"#utility.yul\":18493:18494   */\n      0x02\n        /* \"#utility.yul\":18485:18491   */\n      dup9\n        /* \"#utility.yul\":18481:18495   */\n      mul\n        /* \"#utility.yul\":18477:18499   */\n      add\n        /* \"#utility.yul\":18471:18475   */\n      dup9\n        /* \"#utility.yul\":18464:18500   */\n      sstore\n        /* \"#utility.yul\":17899:18510   */\n      pop\n      pop\n      pop\n        /* \"#utility.yul\":17862:18749   */\n    tag_354:\n      pop\n        /* \"#utility.yul\":17452:18755   */\n      pop\n      pop\n      pop\n        /* \"#utility.yul\":17360:18755   */\n      pop\n      pop\n      jump\t// out\n        /* \"#utility.yul\":18761:18933   */\n    tag_158:\n        /* \"#utility.yul\":18901:18925   */\n      0x50617469656e74206e6f74207265676973746572656400000000000000000000\n        /* \"#utility.yul\":18897:18898   */\n      0x00\n        /* \"#utility.yul\":18889:18895   */\n      dup3\n        /* \"#utility.yul\":18885:18899   */\n      add\n        /* \"#utility.yul\":18878:18926   */\n      mstore\n        /* \"#utility.yul\":18761:18933   */\n      pop\n      jump\t// out\n        /* \"#utility.yul\":18939:19305   */\n    tag_159:\n        /* \"#utility.yul\":19081:19084   */\n      0x00\n        /* \"#utility.yul\":19102:19169   */\n      tag_366\n        /* \"#utility.yul\":19166:19168   */\n      0x16\n        /* \"#utility.yul\":19161:19164   */\n      dup4\n        /* \"#utility.yul\":19102:19169   */\n      tag_110\n      jump\t// in\n    tag_366:\n        /* \"#utility.yul\":19095:19169   */\n      swap2\n      pop\n        /* \"#utility.yul\":19178:19271   */\n      tag_367\n        /* \"#utility.yul\":19267:19270   */\n      dup3\n        /* \"#utility.yul\":19178:19271   */\n      tag_158\n      jump\t// in\n    tag_367:\n        /* \"#utility.yul\":19296:19298   */\n      0x20\n        /* \"#utility.yul\":19291:19294   */\n      dup3\n        /* \"#utility.yul\":19287:19299   */\n      add\n        /* \"#utility.yul\":19280:19299   */\n      swap1\n      pop\n        /* \"#utility.yul\":18939:19305   */\n      swap2\n      swap1\n      pop\n      jump\t// out\n        /* \"#utility.yul\":19311:19730   */\n    tag_68:\n        /* \"#utility.yul\":19477:19481   */\n      0x00\n        /* \"#utility.yul\":19515:19517   */\n      0x20\n        /* \"#utility.yul\":19504:19513   */\n      dup3\n        /* \"#utility.yul\":19500:19518   */\n      add\n        /* \"#utility.yul\":19492:19518   */\n      swap1\n      pop\n        /* \"#utility.yul\":19564:19573   */\n      dup2\n        /* \"#utility.yul\":19558:19562   */\n      dup2\n        /* \"#utility.yul\":19554:19574   */\n      sub\n        /* \"#utility.yul\":19550:19551   */\n      0x00\n        /* \"#utility.yul\":19539:19548   */\n      dup4\n        /* \"#utility.yul\":19535:19552   */\n      add\n        /* \"#utility.yul\":19528:19575   */\n      mstore\n        /* \"#utility.yul\":19592:19723   */\n      tag_369\n        /* \"#utility.yul\":19718:19722   */\n      dup2\n        /* \"#utility.yul\":19592:19723   */\n      tag_159\n      jump\t// in\n    tag_369:\n        /* \"#utility.yul\":19584:19723   */\n      swap1\n      pop\n        /* \"#utility.yul\":19311:19730   */\n      swap2\n      swap1\n      pop\n      jump\t// out\n        /* \"#utility.yul\":19736:19961   */\n    tag_160:\n        /* \"#utility.yul\":19876:19910   */\n      0x4170706f696e746d656e742074696d65206d75737420626520696e2074686520\n        /* \"#utility.yul\":19872:19873   */\n      0x00\n        /* \"#utility.yul\":19864:19870   */\n      dup3\n        /* \"#utility.yul\":19860:19874   */\n      add\n        /* \"#utility.yul\":19853:19911   */\n      mstore\n        /* \"#utility.yul\":19945:19953   */\n      0x6675747572650000000000000000000000000000000000000000000000000000\n        /* \"#utility.yul\":19940:19942   */\n      0x20\n        /* \"#utility.yul\":19932:19938   */\n      dup3\n        /* \"#utility.yul\":19928:19943   */\n      add\n        /* \"#utility.yul\":19921:19954   */\n      mstore\n        /* \"#utility.yul\":19736:19961   */\n      pop\n      jump\t// out\n        /* \"#utility.yul\":19967:20333   */\n    tag_161:\n        /* \"#utility.yul\":20109:20112   */\n      0x00\n        /* \"#utility.yul\":20130:20197   */\n      tag_372\n        /* \"#utility.yul\":20194:20196   */\n      0x26\n        /* \"#utility.yul\":20189:20192   */\n      dup4\n        /* \"#utility.yul\":20130:20197   */\n      tag_110\n      jump\t// in\n    tag_372:\n        /* \"#utility.yul\":20123:20197   */\n      swap2\n      pop\n        /* \"#utility.yul\":20206:20299   */\n      tag_373\n        /* \"#utility.yul\":20295:20298   */\n      dup3\n        /* \"#utility.yul\":20206:20299   */\n      tag_160\n      jump\t// in\n    tag_373:\n        /* \"#utility.yul\":20324:20326   */\n      0x40\n        /* \"#utility.yul\":20319:20322   */\n      dup3\n        /* \"#utility.yul\":20315:20327   */\n      add\n        /* \"#utility.yul\":20308:20327   */\n      swap1\n      pop\n        /* \"#utility.yul\":19967:20333   */\n      swap2\n      swap1\n      pop\n      jump\t// out\n        /* \"#utility.yul\":20339:20758   */\n    tag_71:\n        /* \"#utility.yul\":20505:20509   */\n      0x00\n        /* \"#utility.yul\":20543:20545   */\n      0x20\n        /* \"#utility.yul\":20532:20541   */\n      dup3\n        /* \"#utility.yul\":20528:20546   */\n      add\n        /* \"#utility.yul\":20520:20546   */\n      swap1\n      pop\n        /* \"#utility.yul\":20592:20601   */\n      dup2\n        /* \"#utility.yul\":20586:20590   */\n      dup2\n        /* \"#utility.yul\":20582:20602   */\n      sub\n        /* \"#utility.yul\":20578:20579   */\n      0x00\n        /* \"#utility.yul\":20567:20576   */\n      dup4\n        /* \"#utility.yul\":20563:20580   */\n      add\n        /* \"#utility.yul\":20556:20603   */\n      mstore\n        /* \"#utility.yul\":20620:20751   */\n      tag_375\n        /* \"#utility.yul\":20746:20750   */\n      dup2\n        /* \"#utility.yul\":20620:20751   */\n      tag_161\n      jump\t// in\n    tag_375:\n        /* \"#utility.yul\":20612:20751   */\n      swap1\n      pop\n        /* \"#utility.yul\":20339:20758   */\n      swap2\n      swap1\n      pop\n      jump\t// out\n        /* \"#utility.yul\":20764:20990   */\n    tag_162:\n        /* \"#utility.yul\":20904:20938   */\n      0x4f6e6c792074686520646f63746f722063616e20706572666f726d2074686973\n        /* \"#utility.yul\":20900:20901   */\n      0x00\n        /* \"#utility.yul\":20892:20898   */\n      dup3\n        /* \"#utility.yul\":20888:20902   */\n      add\n        /* \"#utility.yul\":20881:20939   */\n      mstore\n        /* \"#utility.yul\":20973:20982   */\n      0x20616374696f6e00000000000000000000000000000000000000000000000000\n        /* \"#utility.yul\":20968:20970   */\n      0x20\n        /* \"#utility.yul\":20960:20966   */\n      dup3\n        /* \"#utility.yul\":20956:20971   */\n      add\n        /* \"#utility.yul\":20949:20983   */\n      mstore\n        /* \"#utility.yul\":20764:20990   */\n      pop\n      jump\t// out\n        /* \"#utility.yul\":20996:21362   */\n    tag_163:\n        /* \"#utility.yul\":21138:21141   */\n      0x00\n        /* \"#utility.yul\":21159:21226   */\n      tag_378\n        /* \"#utility.yul\":21223:21225   */\n      0x27\n        /* \"#utility.yul\":21218:21221   */\n      dup4\n        /* \"#utility.yul\":21159:21226   */\n      tag_110\n      jump\t// in\n    tag_378:\n        /* \"#utility.yul\":21152:21226   */\n      swap2\n      pop\n        /* \"#utility.yul\":21235:21328   */\n      tag_379\n        /* \"#utility.yul\":21324:21327   */\n      dup3\n        /* \"#utility.yul\":21235:21328   */\n      tag_162\n      jump\t// in\n    tag_379:\n        /* \"#utility.yul\":21353:21355   */\n      0x40\n        /* \"#utility.yul\":21348:21351   */\n      dup3\n        /* \"#utility.yul\":21344:21356   */\n      add\n        /* \"#utility.yul\":21337:21356   */\n      swap1\n      pop\n        /* \"#utility.yul\":20996:21362   */\n      swap2\n      swap1\n      pop\n      jump\t// out\n        /* \"#utility.yul\":21368:21787   */\n    tag_86:\n        /* \"#utility.yul\":21534:21538   */\n      0x00\n        /* \"#utility.yul\":21572:21574   */\n      0x20\n        /* \"#utility.yul\":21561:21570   */\n      dup3\n        /* \"#utility.yul\":21557:21575   */\n      add\n        /* \"#utility.yul\":21549:21575   */\n      swap1\n      pop\n        /* \"#utility.yul\":21621:21630   */\n      dup2\n        /* \"#utility.yul\":21615:21619   */\n      dup2\n        /* \"#utility.yul\":21611:21631   */\n      sub\n        /* \"#utility.yul\":21607:21608   */\n      0x00\n        /* \"#utility.yul\":21596:21605   */\n      dup4\n        /* \"#utility.yul\":21592:21609   */\n      add\n        /* \"#utility.yul\":21585:21632   */\n      mstore\n        /* \"#utility.yul\":21649:21780   */\n      tag_381\n        /* \"#utility.yul\":21775:21779   */\n      dup2\n        /* \"#utility.yul\":21649:21780   */\n      tag_163\n      jump\t// in\n    tag_381:\n        /* \"#utility.yul\":21641:21780   */\n      swap1\n      pop\n        /* \"#utility.yul\":21368:21787   */\n      swap2\n      swap1\n      pop\n      jump\t// out\n        /* \"#utility.yul\":21793:21968   */\n    tag_164:\n        /* \"#utility.yul\":21933:21960   */\n      0x496e76616c6964206170706f696e746d656e7420696e64657800000000000000\n        /* \"#utility.yul\":21929:21930   */\n      0x00\n        /* \"#utility.yul\":21921:21927   */\n      dup3\n        /* \"#utility.yul\":21917:21931   */\n      add\n        /* \"#utility.yul\":21910:21961   */\n      mstore\n        /* \"#utility.yul\":21793:21968   */\n      pop\n      jump\t// out\n        /* \"#utility.yul\":21974:22340   */\n    tag_165:\n        /* \"#utility.yul\":22116:22119   */\n      0x00\n        /* \"#utility.yul\":22137:22204   */\n      tag_384\n        /* \"#utility.yul\":22201:22203   */\n      0x19\n        /* \"#utility.yul\":22196:22199   */\n      dup4\n        /* \"#utility.yul\":22137:22204   */\n      tag_110\n      jump\t// in\n    tag_384:\n        /* \"#utility.yul\":22130:22204   */\n      swap2\n      pop\n        /* \"#utility.yul\":22213:22306   */\n      tag_385\n        /* \"#utility.yul\":22302:22305   */\n      dup3\n        /* \"#utility.yul\":22213:22306   */\n      tag_164\n      jump\t// in\n    tag_385:\n        /* \"#utility.yul\":22331:22333   */\n      0x20\n        /* \"#utility.yul\":22326:22329   */\n      dup3\n        /* \"#utility.yul\":22322:22334   */\n      add\n        /* \"#utility.yul\":22315:22334   */\n      swap1\n      pop\n        /* \"#utility.yul\":21974:22340   */\n      swap2\n      swap1\n      pop\n      jump\t// out\n        /* \"#utility.yul\":22346:22765   */\n    tag_90:\n        /* \"#utility.yul\":22512:22516   */\n      0x00\n        /* \"#utility.yul\":22550:22552   */\n      0x20\n        /* \"#utility.yul\":22539:22548   */\n      dup3\n        /* \"#utility.yul\":22535:22553   */\n      add\n        /* \"#utility.yul\":22527:22553   */\n      swap1\n      pop\n        /* \"#utility.yul\":22599:22608   */\n      dup2\n        /* \"#utility.yul\":22593:22597   */\n      dup2\n        /* \"#utility.yul\":22589:22609   */\n      sub\n        /* \"#utility.yul\":22585:22586   */\n      0x00\n        /* \"#utility.yul\":22574:22583   */\n      dup4\n        /* \"#utility.yul\":22570:22587   */\n      add\n        /* \"#utility.yul\":22563:22610   */\n      mstore\n        /* \"#utility.yul\":22627:22758   */\n      tag_387\n        /* \"#utility.yul\":22753:22757   */\n      dup2\n        /* \"#utility.yul\":22627:22758   */\n      tag_165\n      jump\t// in\n    tag_387:\n        /* \"#utility.yul\":22619:22758   */\n      swap1\n      pop\n        /* \"#utility.yul\":22346:22765   */\n      swap2\n      swap1\n      pop\n      jump\t// out\n        /* \"#utility.yul\":22771:22951   */\n    tag_93:\n        /* \"#utility.yul\":22819:22896   */\n      0x4e487b7100000000000000000000000000000000000000000000000000000000\n        /* \"#utility.yul\":22816:22817   */\n      0x00\n        /* \"#utility.yul\":22809:22897   */\n      mstore\n        /* \"#utility.yul\":22916:22920   */\n      0x32\n        /* \"#utility.yul\":22913:22914   */\n      0x04\n        /* \"#utility.yul\":22906:22921   */\n      mstore\n        /* \"#utility.yul\":22940:22944   */\n      0x24\n        /* \"#utility.yul\":22937:22938   */\n      0x00\n        /* \"#utility.yul\":22930:22945   */\n      revert\n        /* \"#utility.yul\":22957:23289   */\n    tag_97:\n        /* \"#utility.yul\":23078:23082   */\n      0x00\n        /* \"#utility.yul\":23116:23118   */\n      0x40\n        /* \"#utility.yul\":23105:23114   */\n      dup3\n        /* \"#utility.yul\":23101:23119   */\n      add\n        /* \"#utility.yul\":23093:23119   */\n      swap1\n      pop\n        /* \"#utility.yul\":23129:23200   */\n      tag_390\n        /* \"#utility.yul\":23197:23198   */\n      0x00\n        /* \"#utility.yul\":23186:23195   */\n      dup4\n        /* \"#utility.yul\":23182:23199   */\n      add\n        /* \"#utility.yul\":23173:23179   */\n      dup6\n        /* \"#utility.yul\":23129:23200   */\n      tag_118\n      jump\t// in\n    tag_390:\n        /* \"#utility.yul\":23210:23282   */\n      tag_391\n        /* \"#utility.yul\":23278:23280   */\n      0x20\n        /* \"#utility.yul\":23267:23276   */\n      dup4\n        /* \"#utility.yul\":23263:23281   */\n      add\n        /* \"#utility.yul\":23254:23260   */\n      dup5\n        /* \"#utility.yul\":23210:23282   */\n      tag_115\n      jump\t// in\n    tag_391:\n        /* \"#utility.yul\":22957:23289   */\n      swap4\n      swap3\n      pop\n      pop\n      pop\n      jump\t// out\n\n    auxdata: 0xa2646970667358221220ca59491a41f60740648f0f777898d5a4afa831d2cca3317cfcc66710aa8ccf5c64736f6c634300081a0033\n}\n",
				"bytecode": {
					"linkReferences": {},
					"object": "608060405234801561000f575f80fd5b50604051611643380380611643833981810160405281019061003191906100d5565b8060025f6101000a81548173ffffffffffffffffffffffffffffffffffffffff021916908373ffffffffffffffffffffffffffffffffffffffff16021790555050610100565b5f80fd5b5f73ffffffffffffffffffffffffffffffffffffffff82169050919050565b5f6100a48261007b565b9050919050565b6100b48161009a565b81146100be575f80fd5b50565b5f815190506100cf816100ab565b92915050565b5f602082840312156100ea576100e9610077565b5b5f6100f7848285016100c1565b91505092915050565b6115368061010d5f395ff3fe608060405234801561000f575f80fd5b506004361061007b575f3560e01c80636e4abaae116100595780636e4abaae146101015780637ea7118c1461011d57806396b80d081461013b578063f1d6e254146101595761007b565b80630869cfbc1461007f57806312dc9013146100b25780631d14c36e146100e5575b5f80fd5b610099600480360381019061009491906109ec565b610175565b6040516100a99493929190610ab9565b60405180910390f35b6100cc60048036038101906100c79190610b34565b6102b8565b6040516100dc9493929190610b6e565b60405180910390f35b6100ff60048036038101906100fa9190610ce4565b6103a4565b005b61011b60048036038101906101169190610d6c565b61045f565b005b610125610615565b6040516101329190610dc6565b60405180910390f35b61014361063a565b6040516101509190610f6f565b60405180910390f35b610173600480360381019061016e9190610fb9565b61079e565b005b5f602052805f5260405f205f91509050805f015f9054906101000a900460ff16908060010180546101a590611024565b80601f01602080910402602001604051908101604052809291908181526020018280546101d190611024565b801561021c5780601f106101f35761010080835404028352916020019161021c565b820191905f5260205f20905b8154815290600101906020018083116101ff57829003601f168201915b50505050509080600201549080600301805461023790611024565b80601f016020809104026020016040519081016040528092919081815260200182805461026390611024565b80156102ae5780601f10610285576101008083540402835291602001916102ae565b820191905f5260205f20905b81548152906001019060200180831161029157829003601f168201915b5050505050905084565b600181815481106102c7575f80fd5b905f5260205f2090600402015f91509050805f015f9054906101000a900473ffffffffffffffffffffffffffffffffffffffff169080600101549080600201805461031190611024565b80601f016020809104026020016040519081016040528092919081815260200182805461033d90611024565b80156103885780601f1061035f57610100808354040283529160200191610388565b820191905f5260205f20905b81548152906001019060200180831161036b57829003601f168201915b505050505090806003015f9054906101000a900460ff16905084565b6040518060800160405280600115158152602001848152602001838152602001828152505f803373ffffffffffffffffffffffffffffffffffffffff1673ffffffffffffffffffffffffffffffffffffffff1681526020019081526020015f205f820151815f015f6101000a81548160ff021916908315150217905550602082015181600101908161043691906111f1565b5060408201518160020155606082015181600301908161045691906111f1565b50905050505050565b5f803373ffffffffffffffffffffffffffffffffffffffff1673ffffffffffffffffffffffffffffffffffffffff1681526020019081526020015f205f015f9054906101000a900460ff166104e9576040517f08c379a00000000000000000000000000000000000000000000000000000000081526004016104e09061130a565b60405180910390fd5b42821161052b576040517f08c379a000000000000000000000000000000000000000000000000000000000815260040161052290611398565b60405180910390fd5b600160405180608001604052803373ffffffffffffffffffffffffffffffffffffffff1681526020018481526020018381526020015f1515815250908060018154018082558091505060019003905f5260205f2090600402015f909190919091505f820151815f015f6101000a81548173ffffffffffffffffffffffffffffffffffffffff021916908373ffffffffffffffffffffffffffffffffffffffff1602179055506020820151816001015560408201518160020190816105ef91906111f1565b506060820151816003015f6101000a81548160ff02191690831515021790555050505050565b60025f9054906101000a900473ffffffffffffffffffffffffffffffffffffffff1681565b60606001805480602002602001604051908101604052809291908181526020015f905b82821015610795578382905f5260205f2090600402016040518060800160405290815f82015f9054906101000a900473ffffffffffffffffffffffffffffffffffffffff1673ffffffffffffffffffffffffffffffffffffffff1673ffffffffffffffffffffffffffffffffffffffff168152602001600182015481526020016002820180546106ec90611024565b80601f016020809104026020016040519081016040528092919081815260200182805461071890611024565b80156107635780601f1061073a57610100808354040283529160200191610763565b820191905f5260205f20905b81548152906001019060200180831161074657829003601f168201915b50505050508152602001600382015f9054906101000a900460ff1615151515815250508152602001906001019061065d565b50505050905090565b60025f9054906101000a900473ffffffffffffffffffffffffffffffffffffffff1673ffffffffffffffffffffffffffffffffffffffff163373ffffffffffffffffffffffffffffffffffffffff161461082d576040517f08c379a000000000000000000000000000000000000000000000000000000000815260040161082490611426565b60405180910390fd5b6001805490508210610874576040517f08c379a000000000000000000000000000000000000000000000000000000000815260040161086b9061148e565b60405180910390fd5b5f60018381548110610889576108886114ac565b5b905f5260205f209060040201905081816003015f6101000a81548160ff021916908315150217905550811561091c577fb02cf0a677622bee87b44c9c201410a3791ba53d5cabbfcc4816bcbbc3b0d107815f015f9054906101000a900473ffffffffffffffffffffffffffffffffffffffff16826001015460405161090f9291906114d9565b60405180910390a161097c565b7ff3ed563857ac07edb91236b2af4a247645799e99c0d103e5bd8189e0cf846006815f015f9054906101000a900473ffffffffffffffffffffffffffffffffffffffff1682600101546040516109739291906114d9565b60405180910390a15b505050565b5f604051905090565b5f80fd5b5f80fd5b5f73ffffffffffffffffffffffffffffffffffffffff82169050919050565b5f6109bb82610992565b9050919050565b6109cb816109b1565b81146109d5575f80fd5b50565b5f813590506109e6816109c2565b92915050565b5f60208284031215610a0157610a0061098a565b5b5f610a0e848285016109d8565b91505092915050565b5f8115159050919050565b610a2b81610a17565b82525050565b5f81519050919050565b5f82825260208201905092915050565b8281835e5f83830152505050565b5f601f19601f8301169050919050565b5f610a7382610a31565b610a7d8185610a3b565b9350610a8d818560208601610a4b565b610a9681610a59565b840191505092915050565b5f819050919050565b610ab381610aa1565b82525050565b5f608082019050610acc5f830187610a22565b8181036020830152610ade8186610a69565b9050610aed6040830185610aaa565b8181036060830152610aff8184610a69565b905095945050505050565b610b1381610aa1565b8114610b1d575f80fd5b50565b5f81359050610b2e81610b0a565b92915050565b5f60208284031215610b4957610b4861098a565b5b5f610b5684828501610b20565b91505092915050565b610b68816109b1565b82525050565b5f608082019050610b815f830187610b5f565b610b8e6020830186610aaa565b8181036040830152610ba08185610a69565b9050610baf6060830184610a22565b95945050505050565b5f80fd5b5f80fd5b7f4e487b71000000000000000000000000000000000000000000000000000000005f52604160045260245ffd5b610bf682610a59565b810181811067ffffffffffffffff82111715610c1557610c14610bc0565b5b80604052505050565b5f610c27610981565b9050610c338282610bed565b919050565b5f67ffffffffffffffff821115610c5257610c51610bc0565b5b610c5b82610a59565b9050602081019050919050565b828183375f83830152505050565b5f610c88610c8384610c38565b610c1e565b905082815260208101848484011115610ca457610ca3610bbc565b5b610caf848285610c68565b509392505050565b5f82601f830112610ccb57610cca610bb8565b5b8135610cdb848260208601610c76565b91505092915050565b5f805f60608486031215610cfb57610cfa61098a565b5b5f84013567ffffffffffffffff811115610d1857610d1761098e565b5b610d2486828701610cb7565b9350506020610d3586828701610b20565b925050604084013567ffffffffffffffff811115610d5657610d5561098e565b5b610d6286828701610cb7565b9150509250925092565b5f8060408385031215610d8257610d8161098a565b5b5f610d8f85828601610b20565b925050602083013567ffffffffffffffff811115610db057610daf61098e565b5b610dbc85828601610cb7565b9150509250929050565b5f602082019050610dd95f830184610b5f565b92915050565b5f81519050919050565b5f82825260208201905092915050565b5f819050602082019050919050565b610e11816109b1565b82525050565b610e2081610aa1565b82525050565b5f82825260208201905092915050565b5f610e4082610a31565b610e4a8185610e26565b9350610e5a818560208601610a4b565b610e6381610a59565b840191505092915050565b610e7781610a17565b82525050565b5f608083015f830151610e925f860182610e08565b506020830151610ea56020860182610e17565b5060408301518482036040860152610ebd8282610e36565b9150506060830151610ed26060860182610e6e565b508091505092915050565b5f610ee88383610e7d565b905092915050565b5f602082019050919050565b5f610f0682610ddf565b610f108185610de9565b935083602082028501610f2285610df9565b805f5b85811015610f5d5784840389528151610f3e8582610edd565b9450610f4983610ef0565b925060208a01995050600181019050610f25565b50829750879550505050505092915050565b5f6020820190508181035f830152610f878184610efc565b905092915050565b610f9881610a17565b8114610fa2575f80fd5b50565b5f81359050610fb381610f8f565b92915050565b5f8060408385031215610fcf57610fce61098a565b5b5f610fdc85828601610b20565b9250506020610fed85828601610fa5565b9150509250929050565b7f4e487b71000000000000000000000000000000000000000000000000000000005f52602260045260245ffd5b5f600282049050600182168061103b57607f821691505b60208210810361104e5761104d610ff7565b5b50919050565b5f819050815f5260205f209050919050565b5f6020601f8301049050919050565b5f82821b905092915050565b5f600883026110b07fffffffffffffffffffffffffffffffffffffffffffffffffffffffffffffffff82611075565b6110ba8683611075565b95508019841693508086168417925050509392505050565b5f819050919050565b5f6110f56110f06110eb84610aa1565b6110d2565b610aa1565b9050919050565b5f819050919050565b61110e836110db565b61112261111a826110fc565b848454611081565b825550505050565b5f90565b61113661112a565b611141818484611105565b505050565b5b81811015611164576111595f8261112e565b600181019050611147565b5050565b601f8211156111a95761117a81611054565b61118384611066565b81016020851015611192578190505b6111a661119e85611066565b830182611146565b50505b505050565b5f82821c905092915050565b5f6111c95f19846008026111ae565b1980831691505092915050565b5f6111e183836111ba565b9150826002028217905092915050565b6111fa82610a31565b67ffffffffffffffff81111561121357611212610bc0565b5b61121d8254611024565b611228828285611168565b5f60209050601f831160018114611259575f8415611247578287015190505b61125185826111d6565b8655506112b8565b601f19841661126786611054565b5f5b8281101561128e57848901518255600182019150602085019450602081019050611269565b868310156112ab57848901516112a7601f8916826111ba565b8355505b6001600288020188555050505b505050505050565b7f50617469656e74206e6f742072656769737465726564000000000000000000005f82015250565b5f6112f4601683610a3b565b91506112ff826112c0565b602082019050919050565b5f6020820190508181035f830152611321816112e8565b9050919050565b7f4170706f696e746d656e742074696d65206d75737420626520696e20746865205f8201527f6675747572650000000000000000000000000000000000000000000000000000602082015250565b5f611382602683610a3b565b915061138d82611328565b604082019050919050565b5f6020820190508181035f8301526113af81611376565b9050919050565b7f4f6e6c792074686520646f63746f722063616e20706572666f726d20746869735f8201527f20616374696f6e00000000000000000000000000000000000000000000000000602082015250565b5f611410602783610a3b565b915061141b826113b6565b604082019050919050565b5f6020820190508181035f83015261143d81611404565b9050919050565b7f496e76616c6964206170706f696e746d656e7420696e646578000000000000005f82015250565b5f611478601983610a3b565b915061148382611444565b602082019050919050565b5f6020820190508181035f8301526114a58161146c565b9050919050565b7f4e487b71000000000000000000000000000000000000000000000000000000005f52603260045260245ffd5b5f6040820190506114ec5f830185610b5f565b6114f96020830184610aaa565b939250505056fea2646970667358221220ca59491a41f60740648f0f777898d5a4afa831d2cca3317cfcc66710aa8ccf5c64736f6c634300081a0033",
					"opcodes": "PUSH1 0x80 PUSH1 0x40 MSTORE CALLVALUE DUP1 ISZERO PUSH2 0xF JUMPI PUSH0 DUP1 REVERT JUMPDEST POP PUSH1 0x40 MLOAD PUSH2 0x1643 CODESIZE SUB DUP1 PUSH2 0x1643 DUP4 CODECOPY DUP2 DUP2 ADD PUSH1 0x40 MSTORE DUP2 ADD SWAP1 PUSH2 0x31 SWAP2 SWAP1 PUSH2 0xD5 JUMP JUMPDEST DUP1 PUSH1 0x2 PUSH0 PUSH2 0x100 EXP DUP2 SLOAD DUP2 PUSH20 0xFFFFFFFFFFFFFFFFFFFFFFFFFFFFFFFFFFFFFFFF MUL NOT AND SWAP1 DUP4 PUSH20 0xFFFFFFFFFFFFFFFFFFFFFFFFFFFFFFFFFFFFFFFF AND MUL OR SWAP1 SSTORE POP POP PUSH2 0x100 JUMP JUMPDEST PUSH0 DUP1 REVERT JUMPDEST PUSH0 PUSH20 0xFFFFFFFFFFFFFFFFFFFFFFFFFFFFFFFFFFFFFFFF DUP3 AND SWAP1 POP SWAP2 SWAP1 POP JUMP JUMPDEST PUSH0 PUSH2 0xA4 DUP3 PUSH2 0x7B JUMP JUMPDEST SWAP1 POP SWAP2 SWAP1 POP JUMP JUMPDEST PUSH2 0xB4 DUP2 PUSH2 0x9A JUMP JUMPDEST DUP2 EQ PUSH2 0xBE JUMPI PUSH0 DUP1 REVERT JUMPDEST POP JUMP JUMPDEST PUSH0 DUP2 MLOAD SWAP1 POP PUSH2 0xCF DUP2 PUSH2 0xAB JUMP JUMPDEST SWAP3 SWAP2 POP POP JUMP JUMPDEST PUSH0 PUSH1 0x20 DUP3 DUP5 SUB SLT ISZERO PUSH2 0xEA JUMPI PUSH2 0xE9 PUSH2 0x77 JUMP JUMPDEST JUMPDEST PUSH0 PUSH2 0xF7 DUP5 DUP3 DUP6 ADD PUSH2 0xC1 JUMP JUMPDEST SWAP2 POP POP SWAP3 SWAP2 POP POP JUMP JUMPDEST PUSH2 0x1536 DUP1 PUSH2 0x10D PUSH0 CODECOPY PUSH0 RETURN INVALID PUSH1 0x80 PUSH1 0x40 MSTORE CALLVALUE DUP1 ISZERO PUSH2 0xF JUMPI PUSH0 DUP1 REVERT JUMPDEST POP PUSH1 0x4 CALLDATASIZE LT PUSH2 0x7B JUMPI PUSH0 CALLDATALOAD PUSH1 0xE0 SHR DUP1 PUSH4 0x6E4ABAAE GT PUSH2 0x59 JUMPI DUP1 PUSH4 0x6E4ABAAE EQ PUSH2 0x101 JUMPI DUP1 PUSH4 0x7EA7118C EQ PUSH2 0x11D JUMPI DUP1 PUSH4 0x96B80D08 EQ PUSH2 0x13B JUMPI DUP1 PUSH4 0xF1D6E254 EQ PUSH2 0x159 JUMPI PUSH2 0x7B JUMP JUMPDEST DUP1 PUSH4 0x869CFBC EQ PUSH2 0x7F JUMPI DUP1 PUSH4 0x12DC9013 EQ PUSH2 0xB2 JUMPI DUP1 PUSH4 0x1D14C36E EQ PUSH2 0xE5 JUMPI JUMPDEST PUSH0 DUP1 REVERT JUMPDEST PUSH2 0x99 PUSH1 0x4 DUP1 CALLDATASIZE SUB DUP2 ADD SWAP1 PUSH2 0x94 SWAP2 SWAP1 PUSH2 0x9EC JUMP JUMPDEST PUSH2 0x175 JUMP JUMPDEST PUSH1 0x40 MLOAD PUSH2 0xA9 SWAP5 SWAP4 SWAP3 SWAP2 SWAP1 PUSH2 0xAB9 JUMP JUMPDEST PUSH1 0x40 MLOAD DUP1 SWAP2 SUB SWAP1 RETURN JUMPDEST PUSH2 0xCC PUSH1 0x4 DUP1 CALLDATASIZE SUB DUP2 ADD SWAP1 PUSH2 0xC7 SWAP2 SWAP1 PUSH2 0xB34 JUMP JUMPDEST PUSH2 0x2B8 JUMP JUMPDEST PUSH1 0x40 MLOAD PUSH2 0xDC SWAP5 SWAP4 SWAP3 SWAP2 SWAP1 PUSH2 0xB6E JUMP JUMPDEST PUSH1 0x40 MLOAD DUP1 SWAP2 SUB SWAP1 RETURN JUMPDEST PUSH2 0xFF PUSH1 0x4 DUP1 CALLDATASIZE SUB DUP2 ADD SWAP1 PUSH2 0xFA SWAP2 SWAP1 PUSH2 0xCE4 JUMP JUMPDEST PUSH2 0x3A4 JUMP JUMPDEST STOP JUMPDEST PUSH2 0x11B PUSH1 0x4 DUP1 CALLDATASIZE SUB DUP2 ADD SWAP1 PUSH2 0x116 SWAP2 SWAP1 PUSH2 0xD6C JUMP JUMPDEST PUSH2 0x45F JUMP JUMPDEST STOP JUMPDEST PUSH2 0x125 PUSH2 0x615 JUMP JUMPDEST PUSH1 0x40 MLOAD PUSH2 0x132 SWAP2 SWAP1 PUSH2 0xDC6 JUMP JUMPDEST PUSH1 0x40 MLOAD DUP1 SWAP2 SUB SWAP1 RETURN JUMPDEST PUSH2 0x143 PUSH2 0x63A JUMP JUMPDEST PUSH1 0x40 MLOAD PUSH2 0x150 SWAP2 SWAP1 PUSH2 0xF6F JUMP JUMPDEST PUSH1 0x40 MLOAD DUP1 SWAP2 SUB SWAP1 RETURN JUMPDEST PUSH2 0x173 PUSH1 0x4 DUP1 CALLDATASIZE SUB DUP2 ADD SWAP1 PUSH2 0x16E SWAP2 SWAP1 PUSH2 0xFB9 JUMP JUMPDEST PUSH2 0x79E JUMP JUMPDEST STOP JUMPDEST PUSH0 PUSH1 0x20 MSTORE DUP1 PUSH0 MSTORE PUSH1 0x40 PUSH0 KECCAK256 PUSH0 SWAP2 POP SWAP1 POP DUP1 PUSH0 ADD PUSH0 SWAP1 SLOAD SWAP1 PUSH2 0x100 EXP SWAP1 DIV PUSH1 0xFF AND SWAP1 DUP1 PUSH1 0x1 ADD DUP1 SLOAD PUSH2 0x1A5 SWAP1 PUSH2 0x1024 JUMP JUMPDEST DUP1 PUSH1 0x1F ADD PUSH1 0x20 DUP1 SWAP2 DIV MUL PUSH1 0x20 ADD PUSH1 0x40 MLOAD SWAP1 DUP2 ADD PUSH1 0x40 MSTORE DUP1 SWAP3 SWAP2 SWAP1 DUP2 DUP2 MSTORE PUSH1 0x20 ADD DUP3 DUP1 SLOAD PUSH2 0x1D1 SWAP1 PUSH2 0x1024 JUMP JUMPDEST DUP1 ISZERO PUSH2 0x21C JUMPI DUP1 PUSH1 0x1F LT PUSH2 0x1F3 JUMPI PUSH2 0x100 DUP1 DUP4 SLOAD DIV MUL DUP4 MSTORE SWAP2 PUSH1 0x20 ADD SWAP2 PUSH2 0x21C JUMP JUMPDEST DUP3 ADD SWAP2 SWAP1 PUSH0 MSTORE PUSH1 0x20 PUSH0 KECCAK256 SWAP1 JUMPDEST DUP2 SLOAD DUP2 MSTORE SWAP1 PUSH1 0x1 ADD SWAP1 PUSH1 0x20 ADD DUP1 DUP4 GT PUSH2 0x1FF JUMPI DUP3 SWAP1 SUB PUSH1 0x1F AND DUP3 ADD SWAP2 JUMPDEST POP POP POP POP POP SWAP1 DUP1 PUSH1 0x2 ADD SLOAD SWAP1 DUP1 PUSH1 0x3 ADD DUP1 SLOAD PUSH2 0x237 SWAP1 PUSH2 0x1024 JUMP JUMPDEST DUP1 PUSH1 0x1F ADD PUSH1 0x20 DUP1 SWAP2 DIV MUL PUSH1 0x20 ADD PUSH1 0x40 MLOAD SWAP1 DUP2 ADD PUSH1 0x40 MSTORE DUP1 SWAP3 SWAP2 SWAP1 DUP2 DUP2 MSTORE PUSH1 0x20 ADD DUP3 DUP1 SLOAD PUSH2 0x263 SWAP1 PUSH2 0x1024 JUMP JUMPDEST DUP1 ISZERO PUSH2 0x2AE JUMPI DUP1 PUSH1 0x1F LT PUSH2 0x285 JUMPI PUSH2 0x100 DUP1 DUP4 SLOAD DIV MUL DUP4 MSTORE SWAP2 PUSH1 0x20 ADD SWAP2 PUSH2 0x2AE JUMP JUMPDEST DUP3 ADD SWAP2 SWAP1 PUSH0 MSTORE PUSH1 0x20 PUSH0 KECCAK256 SWAP1 JUMPDEST DUP2 SLOAD DUP2 MSTORE SWAP1 PUSH1 0x1 ADD SWAP1 PUSH1 0x20 ADD DUP1 DUP4 GT PUSH2 0x291 JUMPI DUP3 SWAP1 SUB PUSH1 0x1F AND DUP3 ADD SWAP2 JUMPDEST POP POP POP POP POP SWAP1 POP DUP5 JUMP JUMPDEST PUSH1 0x1 DUP2 DUP2 SLOAD DUP2 LT PUSH2 0x2C7 JUMPI PUSH0 DUP1 REVERT JUMPDEST SWAP1 PUSH0 MSTORE PUSH1 0x20 PUSH0 KECCAK256 SWAP1 PUSH1 0x4 MUL ADD PUSH0 SWAP2 POP SWAP1 POP DUP1 PUSH0 ADD PUSH0 SWAP1 SLOAD SWAP1 PUSH2 0x100 EXP SWAP1 DIV PUSH20 0xFFFFFFFFFFFFFFFFFFFFFFFFFFFFFFFFFFFFFFFF AND SWAP1 DUP1 PUSH1 0x1 ADD SLOAD SWAP1 DUP1 PUSH1 0x2 ADD DUP1 SLOAD PUSH2 0x311 SWAP1 PUSH2 0x1024 JUMP JUMPDEST DUP1 PUSH1 0x1F ADD PUSH1 0x20 DUP1 SWAP2 DIV MUL PUSH1 0x20 ADD PUSH1 0x40 MLOAD SWAP1 DUP2 ADD PUSH1 0x40 MSTORE DUP1 SWAP3 SWAP2 SWAP1 DUP2 DUP2 MSTORE PUSH1 0x20 ADD DUP3 DUP1 SLOAD PUSH2 0x33D SWAP1 PUSH2 0x1024 JUMP JUMPDEST DUP1 ISZERO PUSH2 0x388 JUMPI DUP1 PUSH1 0x1F LT PUSH2 0x35F JUMPI PUSH2 0x100 DUP1 DUP4 SLOAD DIV MUL DUP4 MSTORE SWAP2 PUSH1 0x20 ADD SWAP2 PUSH2 0x388 JUMP JUMPDEST DUP3 ADD SWAP2 SWAP1 PUSH0 MSTORE PUSH1 0x20 PUSH0 KECCAK256 SWAP1 JUMPDEST DUP2 SLOAD DUP2 MSTORE SWAP1 PUSH1 0x1 ADD SWAP1 PUSH1 0x20 ADD DUP1 DUP4 GT PUSH2 0x36B JUMPI DUP3 SWAP1 SUB PUSH1 0x1F AND DUP3 ADD SWAP2 JUMPDEST POP POP POP POP POP SWAP1 DUP1 PUSH1 0x3 ADD PUSH0 SWAP1 SLOAD SWAP1 PUSH2 0x100 EXP SWAP1 DIV PUSH1 0xFF AND SWAP1 POP DUP5 JUMP JUMPDEST PUSH1 0x40 MLOAD DUP1 PUSH1 0x80 ADD PUSH1 0x40 MSTORE DUP1 PUSH1 0x1 ISZERO ISZERO DUP2 MSTORE PUSH1 0x20 ADD DUP5 DUP2 MSTORE PUSH1 0x20 ADD DUP4 DUP2 MSTORE PUSH1 0x20 ADD DUP3 DUP2 MSTORE POP PUSH0 DUP1 CALLER PUSH20 0xFFFFFFFFFFFFFFFFFFFFFFFFFFFFFFFFFFFFFFFF AND PUSH20 0xFFFFFFFFFFFFFFFFFFFFFFFFFFFFFFFFFFFFFFFF AND DUP2 MSTORE PUSH1 0x20 ADD SWAP1 DUP2 MSTORE PUSH1 0x20 ADD PUSH0 KECCAK256 PUSH0 DUP3 ADD MLOAD DUP2 PUSH0 ADD PUSH0 PUSH2 0x100 EXP DUP2 SLOAD DUP2 PUSH1 0xFF MUL NOT AND SWAP1 DUP4 ISZERO ISZERO MUL OR SWAP1 SSTORE POP PUSH1 0x20 DUP3 ADD MLOAD DUP2 PUSH1 0x1 ADD SWAP1 DUP2 PUSH2 0x436 SWAP2 SWAP1 PUSH2 0x11F1 JUMP JUMPDEST POP PUSH1 0x40 DUP3 ADD MLOAD DUP2 PUSH1 0x2 ADD SSTORE PUSH1 0x60 DUP3 ADD MLOAD DUP2 PUSH1 0x3 ADD SWAP1 DUP2 PUSH2 0x456 SWAP2 SWAP1 PUSH2 0x11F1 JUMP JUMPDEST POP SWAP1 POP POP POP POP POP JUMP JUMPDEST PUSH0 DUP1 CALLER PUSH20 0xFFFFFFFFFFFFFFFFFFFFFFFFFFFFFFFFFFFFFFFF AND PUSH20 0xFFFFFFFFFFFFFFFFFFFFFFFFFFFFFFFFFFFFFFFF AND DUP2 MSTORE PUSH1 0x20 ADD SWAP1 DUP2 MSTORE PUSH1 0x20 ADD PUSH0 KECCAK256 PUSH0 ADD PUSH0 SWAP1 SLOAD SWAP1 PUSH2 0x100 EXP SWAP1 DIV PUSH1 0xFF AND PUSH2 0x4E9 JUMPI PUSH1 0x40 MLOAD PUSH32 0x8C379A000000000000000000000000000000000000000000000000000000000 DUP2 MSTORE PUSH1 0x4 ADD PUSH2 0x4E0 SWAP1 PUSH2 0x130A JUMP JUMPDEST PUSH1 0x40 MLOAD DUP1 SWAP2 SUB SWAP1 REVERT JUMPDEST TIMESTAMP DUP3 GT PUSH2 0x52B JUMPI PUSH1 0x40 MLOAD PUSH32 0x8C379A000000000000000000000000000000000000000000000000000000000 DUP2 MSTORE PUSH1 0x4 ADD PUSH2 0x522 SWAP1 PUSH2 0x1398 JUMP JUMPDEST PUSH1 0x40 MLOAD DUP1 SWAP2 SUB SWAP1 REVERT JUMPDEST PUSH1 0x1 PUSH1 0x40 MLOAD DUP1 PUSH1 0x80 ADD PUSH1 0x40 MSTORE DUP1 CALLER PUSH20 0xFFFFFFFFFFFFFFFFFFFFFFFFFFFFFFFFFFFFFFFF AND DUP2 MSTORE PUSH1 0x20 ADD DUP5 DUP2 MSTORE PUSH1 0x20 ADD DUP4 DUP2 MSTORE PUSH1 0x20 ADD PUSH0 ISZERO ISZERO DUP2 MSTORE POP SWAP1 DUP1 PUSH1 0x1 DUP2 SLOAD ADD DUP1 DUP3 SSTORE DUP1 SWAP2 POP POP PUSH1 0x1 SWAP1 SUB SWAP1 PUSH0 MSTORE PUSH1 0x20 PUSH0 KECCAK256 SWAP1 PUSH1 0x4 MUL ADD PUSH0 SWAP1 SWAP2 SWAP1 SWAP2 SWAP1 SWAP2 POP PUSH0 DUP3 ADD MLOAD DUP2 PUSH0 ADD PUSH0 PUSH2 0x100 EXP DUP2 SLOAD DUP2 PUSH20 0xFFFFFFFFFFFFFFFFFFFFFFFFFFFFFFFFFFFFFFFF MUL NOT AND SWAP1 DUP4 PUSH20 0xFFFFFFFFFFFFFFFFFFFFFFFFFFFFFFFFFFFFFFFF AND MUL OR SWAP1 SSTORE POP PUSH1 0x20 DUP3 ADD MLOAD DUP2 PUSH1 0x1 ADD SSTORE PUSH1 0x40 DUP3 ADD MLOAD DUP2 PUSH1 0x2 ADD SWAP1 DUP2 PUSH2 0x5EF SWAP2 SWAP1 PUSH2 0x11F1 JUMP JUMPDEST POP PUSH1 0x60 DUP3 ADD MLOAD DUP2 PUSH1 0x3 ADD PUSH0 PUSH2 0x100 EXP DUP2 SLOAD DUP2 PUSH1 0xFF MUL NOT AND SWAP1 DUP4 ISZERO ISZERO MUL OR SWAP1 SSTORE POP POP POP POP POP JUMP JUMPDEST PUSH1 0x2 PUSH0 SWAP1 SLOAD SWAP1 PUSH2 0x100 EXP SWAP1 DIV PUSH20 0xFFFFFFFFFFFFFFFFFFFFFFFFFFFFFFFFFFFFFFFF AND DUP2 JUMP JUMPDEST PUSH1 0x60 PUSH1 0x1 DUP1 SLOAD DUP1 PUSH1 0x20 MUL PUSH1 0x20 ADD PUSH1 0x40 MLOAD SWAP1 DUP2 ADD PUSH1 0x40 MSTORE DUP1 SWAP3 SWAP2 SWAP1 DUP2 DUP2 MSTORE PUSH1 0x20 ADD PUSH0 SWAP1 JUMPDEST DUP3 DUP3 LT ISZERO PUSH2 0x795 JUMPI DUP4 DUP3 SWAP1 PUSH0 MSTORE PUSH1 0x20 PUSH0 KECCAK256 SWAP1 PUSH1 0x4 MUL ADD PUSH1 0x40 MLOAD DUP1 PUSH1 0x80 ADD PUSH1 0x40 MSTORE SWAP1 DUP2 PUSH0 DUP3 ADD PUSH0 SWAP1 SLOAD SWAP1 PUSH2 0x100 EXP SWAP1 DIV PUSH20 0xFFFFFFFFFFFFFFFFFFFFFFFFFFFFFFFFFFFFFFFF AND PUSH20 0xFFFFFFFFFFFFFFFFFFFFFFFFFFFFFFFFFFFFFFFF AND PUSH20 0xFFFFFFFFFFFFFFFFFFFFFFFFFFFFFFFFFFFFFFFF AND DUP2 MSTORE PUSH1 0x20 ADD PUSH1 0x1 DUP3 ADD SLOAD DUP2 MSTORE PUSH1 0x20 ADD PUSH1 0x2 DUP3 ADD DUP1 SLOAD PUSH2 0x6EC SWAP1 PUSH2 0x1024 JUMP JUMPDEST DUP1 PUSH1 0x1F ADD PUSH1 0x20 DUP1 SWAP2 DIV MUL PUSH1 0x20 ADD PUSH1 0x40 MLOAD SWAP1 DUP2 ADD PUSH1 0x40 MSTORE DUP1 SWAP3 SWAP2 SWAP1 DUP2 DUP2 MSTORE PUSH1 0x20 ADD DUP3 DUP1 SLOAD PUSH2 0x718 SWAP1 PUSH2 0x1024 JUMP JUMPDEST DUP1 ISZERO PUSH2 0x763 JUMPI DUP1 PUSH1 0x1F LT PUSH2 0x73A JUMPI PUSH2 0x100 DUP1 DUP4 SLOAD DIV MUL DUP4 MSTORE SWAP2 PUSH1 0x20 ADD SWAP2 PUSH2 0x763 JUMP JUMPDEST DUP3 ADD SWAP2 SWAP1 PUSH0 MSTORE PUSH1 0x20 PUSH0 KECCAK256 SWAP1 JUMPDEST DUP2 SLOAD DUP2 MSTORE SWAP1 PUSH1 0x1 ADD SWAP1 PUSH1 0x20 ADD DUP1 DUP4 GT PUSH2 0x746 JUMPI DUP3 SWAP1 SUB PUSH1 0x1F AND DUP3 ADD SWAP2 JUMPDEST POP POP POP POP POP DUP2 MSTORE PUSH1 0x20 ADD PUSH1 0x3 DUP3 ADD PUSH0 SWAP1 SLOAD SWAP1 PUSH2 0x100 EXP SWAP1 DIV PUSH1 0xFF AND ISZERO ISZERO ISZERO ISZERO DUP2 MSTORE POP POP DUP2 MSTORE PUSH1 0x20 ADD SWAP1 PUSH1 0x1 ADD SWAP1 PUSH2 0x65D JUMP JUMPDEST POP POP POP POP SWAP1 POP SWAP1 JUMP JUMPDEST PUSH1 0x2 PUSH0 SWAP1 SLOAD SWAP1 PUSH2 0x100 EXP SWAP1 DIV PUSH20 0xFFFFFFFFFFFFFFFFFFFFFFFFFFFFFFFFFFFFFFFF AND PUSH20 0xFFFFFFFFFFFFFFFFFFFFFFFFFFFFFFFFFFFFFFFF AND CALLER PUSH20 0xFFFFFFFFFFFFFFFFFFFFFFFFFFFFFFFFFFFFFFFF AND EQ PUSH2 0x82D JUMPI PUSH1 0x40 MLOAD PUSH32 0x8C379A000000000000000000000000000000000000000000000000000000000 DUP2 MSTORE PUSH1 0x4 ADD PUSH2 0x824 SWAP1 PUSH2 0x1426 JUMP JUMPDEST PUSH1 0x40 MLOAD DUP1 SWAP2 SUB SWAP1 REVERT JUMPDEST PUSH1 0x1 DUP1 SLOAD SWAP1 POP DUP3 LT PUSH2 0x874 JUMPI PUSH1 0x40 MLOAD PUSH32 0x8C379A000000000000000000000000000000000000000000000000000000000 DUP2 MSTORE PUSH1 0x4 ADD PUSH2 0x86B SWAP1 PUSH2 0x148E JUMP JUMPDEST PUSH1 0x40 MLOAD DUP1 SWAP2 SUB SWAP1 REVERT JUMPDEST PUSH0 PUSH1 0x1 DUP4 DUP2 SLOAD DUP2 LT PUSH2 0x889 JUMPI PUSH2 0x888 PUSH2 0x14AC JUMP JUMPDEST JUMPDEST SWAP1 PUSH0 MSTORE PUSH1 0x20 PUSH0 KECCAK256 SWAP1 PUSH1 0x4 MUL ADD SWAP1 POP DUP2 DUP2 PUSH1 0x3 ADD PUSH0 PUSH2 0x100 EXP DUP2 SLOAD DUP2 PUSH1 0xFF MUL NOT AND SWAP1 DUP4 ISZERO ISZERO MUL OR SWAP1 SSTORE POP DUP2 ISZERO PUSH2 0x91C JUMPI PUSH32 0xB02CF0A677622BEE87B44C9C201410A3791BA53D5CABBFCC4816BCBBC3B0D107 DUP2 PUSH0 ADD PUSH0 SWAP1 SLOAD SWAP1 PUSH2 0x100 EXP SWAP1 DIV PUSH20 0xFFFFFFFFFFFFFFFFFFFFFFFFFFFFFFFFFFFFFFFF AND DUP3 PUSH1 0x1 ADD SLOAD PUSH1 0x40 MLOAD PUSH2 0x90F SWAP3 SWAP2 SWAP1 PUSH2 0x14D9 JUMP JUMPDEST PUSH1 0x40 MLOAD DUP1 SWAP2 SUB SWAP1 LOG1 PUSH2 0x97C JUMP JUMPDEST PUSH32 0xF3ED563857AC07EDB91236B2AF4A247645799E99C0D103E5BD8189E0CF846006 DUP2 PUSH0 ADD PUSH0 SWAP1 SLOAD SWAP1 PUSH2 0x100 EXP SWAP1 DIV PUSH20 0xFFFFFFFFFFFFFFFFFFFFFFFFFFFFFFFFFFFFFFFF AND DUP3 PUSH1 0x1 ADD SLOAD PUSH1 0x40 MLOAD PUSH2 0x973 SWAP3 SWAP2 SWAP1 PUSH2 0x14D9 JUMP JUMPDEST PUSH1 0x40 MLOAD DUP1 SWAP2 SUB SWAP1 LOG1 JUMPDEST POP POP POP JUMP JUMPDEST PUSH0 PUSH1 0x40 MLOAD SWAP1 POP SWAP1 JUMP JUMPDEST PUSH0 DUP1 REVERT JUMPDEST PUSH0 DUP1 REVERT JUMPDEST PUSH0 PUSH20 0xFFFFFFFFFFFFFFFFFFFFFFFFFFFFFFFFFFFFFFFF DUP3 AND SWAP1 POP SWAP2 SWAP1 POP JUMP JUMPDEST PUSH0 PUSH2 0x9BB DUP3 PUSH2 0x992 JUMP JUMPDEST SWAP1 POP SWAP2 SWAP1 POP JUMP JUMPDEST PUSH2 0x9CB DUP2 PUSH2 0x9B1 JUMP JUMPDEST DUP2 EQ PUSH2 0x9D5 JUMPI PUSH0 DUP1 REVERT JUMPDEST POP JUMP JUMPDEST PUSH0 DUP2 CALLDATALOAD SWAP1 POP PUSH2 0x9E6 DUP2 PUSH2 0x9C2 JUMP JUMPDEST SWAP3 SWAP2 POP POP JUMP JUMPDEST PUSH0 PUSH1 0x20 DUP3 DUP5 SUB SLT ISZERO PUSH2 0xA01 JUMPI PUSH2 0xA00 PUSH2 0x98A JUMP JUMPDEST JUMPDEST PUSH0 PUSH2 0xA0E DUP5 DUP3 DUP6 ADD PUSH2 0x9D8 JUMP JUMPDEST SWAP2 POP POP SWAP3 SWAP2 POP POP JUMP JUMPDEST PUSH0 DUP2 ISZERO ISZERO SWAP1 POP SWAP2 SWAP1 POP JUMP JUMPDEST PUSH2 0xA2B DUP2 PUSH2 0xA17 JUMP JUMPDEST DUP3 MSTORE POP POP JUMP JUMPDEST PUSH0 DUP2 MLOAD SWAP1 POP SWAP2 SWAP1 POP JUMP JUMPDEST PUSH0 DUP3 DUP3 MSTORE PUSH1 0x20 DUP3 ADD SWAP1 POP SWAP3 SWAP2 POP POP JUMP JUMPDEST DUP3 DUP2 DUP4 MCOPY PUSH0 DUP4 DUP4 ADD MSTORE POP POP POP JUMP JUMPDEST PUSH0 PUSH1 0x1F NOT PUSH1 0x1F DUP4 ADD AND SWAP1 POP SWAP2 SWAP1 POP JUMP JUMPDEST PUSH0 PUSH2 0xA73 DUP3 PUSH2 0xA31 JUMP JUMPDEST PUSH2 0xA7D DUP2 DUP6 PUSH2 0xA3B JUMP JUMPDEST SWAP4 POP PUSH2 0xA8D DUP2 DUP6 PUSH1 0x20 DUP7 ADD PUSH2 0xA4B JUMP JUMPDEST PUSH2 0xA96 DUP2 PUSH2 0xA59 JUMP JUMPDEST DUP5 ADD SWAP2 POP POP SWAP3 SWAP2 POP POP JUMP JUMPDEST PUSH0 DUP2 SWAP1 POP SWAP2 SWAP1 POP JUMP JUMPDEST PUSH2 0xAB3 DUP2 PUSH2 0xAA1 JUMP JUMPDEST DUP3 MSTORE POP POP JUMP JUMPDEST PUSH0 PUSH1 0x80 DUP3 ADD SWAP1 POP PUSH2 0xACC PUSH0 DUP4 ADD DUP8 PUSH2 0xA22 JUMP JUMPDEST DUP2 DUP2 SUB PUSH1 0x20 DUP4 ADD MSTORE PUSH2 0xADE DUP2 DUP7 PUSH2 0xA69 JUMP JUMPDEST SWAP1 POP PUSH2 0xAED PUSH1 0x40 DUP4 ADD DUP6 PUSH2 0xAAA JUMP JUMPDEST DUP2 DUP2 SUB PUSH1 0x60 DUP4 ADD MSTORE PUSH2 0xAFF DUP2 DUP5 PUSH2 0xA69 JUMP JUMPDEST SWAP1 POP SWAP6 SWAP5 POP POP POP POP POP JUMP JUMPDEST PUSH2 0xB13 DUP2 PUSH2 0xAA1 JUMP JUMPDEST DUP2 EQ PUSH2 0xB1D JUMPI PUSH0 DUP1 REVERT JUMPDEST POP JUMP JUMPDEST PUSH0 DUP2 CALLDATALOAD SWAP1 POP PUSH2 0xB2E DUP2 PUSH2 0xB0A JUMP JUMPDEST SWAP3 SWAP2 POP POP JUMP JUMPDEST PUSH0 PUSH1 0x20 DUP3 DUP5 SUB SLT ISZERO PUSH2 0xB49 JUMPI PUSH2 0xB48 PUSH2 0x98A JUMP JUMPDEST JUMPDEST PUSH0 PUSH2 0xB56 DUP5 DUP3 DUP6 ADD PUSH2 0xB20 JUMP JUMPDEST SWAP2 POP POP SWAP3 SWAP2 POP POP JUMP JUMPDEST PUSH2 0xB68 DUP2 PUSH2 0x9B1 JUMP JUMPDEST DUP3 MSTORE POP POP JUMP JUMPDEST PUSH0 PUSH1 0x80 DUP3 ADD SWAP1 POP PUSH2 0xB81 PUSH0 DUP4 ADD DUP8 PUSH2 0xB5F JUMP JUMPDEST PUSH2 0xB8E PUSH1 0x20 DUP4 ADD DUP7 PUSH2 0xAAA JUMP JUMPDEST DUP2 DUP2 SUB PUSH1 0x40 DUP4 ADD MSTORE PUSH2 0xBA0 DUP2 DUP6 PUSH2 0xA69 JUMP JUMPDEST SWAP1 POP PUSH2 0xBAF PUSH1 0x60 DUP4 ADD DUP5 PUSH2 0xA22 JUMP JUMPDEST SWAP6 SWAP5 POP POP POP POP POP JUMP JUMPDEST PUSH0 DUP1 REVERT JUMPDEST PUSH0 DUP1 REVERT JUMPDEST PUSH32 0x4E487B7100000000000000000000000000000000000000000000000000000000 PUSH0 MSTORE PUSH1 0x41 PUSH1 0x4 MSTORE PUSH1 0x24 PUSH0 REVERT JUMPDEST PUSH2 0xBF6 DUP3 PUSH2 0xA59 JUMP JUMPDEST DUP2 ADD DUP2 DUP2 LT PUSH8 0xFFFFFFFFFFFFFFFF DUP3 GT OR ISZERO PUSH2 0xC15 JUMPI PUSH2 0xC14 PUSH2 0xBC0 JUMP JUMPDEST JUMPDEST DUP1 PUSH1 0x40 MSTORE POP POP POP JUMP JUMPDEST PUSH0 PUSH2 0xC27 PUSH2 0x981 JUMP JUMPDEST SWAP1 POP PUSH2 0xC33 DUP3 DUP3 PUSH2 0xBED JUMP JUMPDEST SWAP2 SWAP1 POP JUMP JUMPDEST PUSH0 PUSH8 0xFFFFFFFFFFFFFFFF DUP3 GT ISZERO PUSH2 0xC52 JUMPI PUSH2 0xC51 PUSH2 0xBC0 JUMP JUMPDEST JUMPDEST PUSH2 0xC5B DUP3 PUSH2 0xA59 JUMP JUMPDEST SWAP1 POP PUSH1 0x20 DUP2 ADD SWAP1 POP SWAP2 SWAP1 POP JUMP JUMPDEST DUP3 DUP2 DUP4 CALLDATACOPY PUSH0 DUP4 DUP4 ADD MSTORE POP POP POP JUMP JUMPDEST PUSH0 PUSH2 0xC88 PUSH2 0xC83 DUP5 PUSH2 0xC38 JUMP JUMPDEST PUSH2 0xC1E JUMP JUMPDEST SWAP1 POP DUP3 DUP2 MSTORE PUSH1 0x20 DUP2 ADD DUP5 DUP5 DUP5 ADD GT ISZERO PUSH2 0xCA4 JUMPI PUSH2 0xCA3 PUSH2 0xBBC JUMP JUMPDEST JUMPDEST PUSH2 0xCAF DUP5 DUP3 DUP6 PUSH2 0xC68 JUMP JUMPDEST POP SWAP4 SWAP3 POP POP POP JUMP JUMPDEST PUSH0 DUP3 PUSH1 0x1F DUP4 ADD SLT PUSH2 0xCCB JUMPI PUSH2 0xCCA PUSH2 0xBB8 JUMP JUMPDEST JUMPDEST DUP2 CALLDATALOAD PUSH2 0xCDB DUP5 DUP3 PUSH1 0x20 DUP7 ADD PUSH2 0xC76 JUMP JUMPDEST SWAP2 POP POP SWAP3 SWAP2 POP POP JUMP JUMPDEST PUSH0 DUP1 PUSH0 PUSH1 0x60 DUP5 DUP7 SUB SLT ISZERO PUSH2 0xCFB JUMPI PUSH2 0xCFA PUSH2 0x98A JUMP JUMPDEST JUMPDEST PUSH0 DUP5 ADD CALLDATALOAD PUSH8 0xFFFFFFFFFFFFFFFF DUP2 GT ISZERO PUSH2 0xD18 JUMPI PUSH2 0xD17 PUSH2 0x98E JUMP JUMPDEST JUMPDEST PUSH2 0xD24 DUP7 DUP3 DUP8 ADD PUSH2 0xCB7 JUMP JUMPDEST SWAP4 POP POP PUSH1 0x20 PUSH2 0xD35 DUP7 DUP3 DUP8 ADD PUSH2 0xB20 JUMP JUMPDEST SWAP3 POP POP PUSH1 0x40 DUP5 ADD CALLDATALOAD PUSH8 0xFFFFFFFFFFFFFFFF DUP2 GT ISZERO PUSH2 0xD56 JUMPI PUSH2 0xD55 PUSH2 0x98E JUMP JUMPDEST JUMPDEST PUSH2 0xD62 DUP7 DUP3 DUP8 ADD PUSH2 0xCB7 JUMP JUMPDEST SWAP2 POP POP SWAP3 POP SWAP3 POP SWAP3 JUMP JUMPDEST PUSH0 DUP1 PUSH1 0x40 DUP4 DUP6 SUB SLT ISZERO PUSH2 0xD82 JUMPI PUSH2 0xD81 PUSH2 0x98A JUMP JUMPDEST JUMPDEST PUSH0 PUSH2 0xD8F DUP6 DUP3 DUP7 ADD PUSH2 0xB20 JUMP JUMPDEST SWAP3 POP POP PUSH1 0x20 DUP4 ADD CALLDATALOAD PUSH8 0xFFFFFFFFFFFFFFFF DUP2 GT ISZERO PUSH2 0xDB0 JUMPI PUSH2 0xDAF PUSH2 0x98E JUMP JUMPDEST JUMPDEST PUSH2 0xDBC DUP6 DUP3 DUP7 ADD PUSH2 0xCB7 JUMP JUMPDEST SWAP2 POP POP SWAP3 POP SWAP3 SWAP1 POP JUMP JUMPDEST PUSH0 PUSH1 0x20 DUP3 ADD SWAP1 POP PUSH2 0xDD9 PUSH0 DUP4 ADD DUP5 PUSH2 0xB5F JUMP JUMPDEST SWAP3 SWAP2 POP POP JUMP JUMPDEST PUSH0 DUP2 MLOAD SWAP1 POP SWAP2 SWAP1 POP JUMP JUMPDEST PUSH0 DUP3 DUP3 MSTORE PUSH1 0x20 DUP3 ADD SWAP1 POP SWAP3 SWAP2 POP POP JUMP JUMPDEST PUSH0 DUP2 SWAP1 POP PUSH1 0x20 DUP3 ADD SWAP1 POP SWAP2 SWAP1 POP JUMP JUMPDEST PUSH2 0xE11 DUP2 PUSH2 0x9B1 JUMP JUMPDEST DUP3 MSTORE POP POP JUMP JUMPDEST PUSH2 0xE20 DUP2 PUSH2 0xAA1 JUMP JUMPDEST DUP3 MSTORE POP POP JUMP JUMPDEST PUSH0 DUP3 DUP3 MSTORE PUSH1 0x20 DUP3 ADD SWAP1 POP SWAP3 SWAP2 POP POP JUMP JUMPDEST PUSH0 PUSH2 0xE40 DUP3 PUSH2 0xA31 JUMP JUMPDEST PUSH2 0xE4A DUP2 DUP6 PUSH2 0xE26 JUMP JUMPDEST SWAP4 POP PUSH2 0xE5A DUP2 DUP6 PUSH1 0x20 DUP7 ADD PUSH2 0xA4B JUMP JUMPDEST PUSH2 0xE63 DUP2 PUSH2 0xA59 JUMP JUMPDEST DUP5 ADD SWAP2 POP POP SWAP3 SWAP2 POP POP JUMP JUMPDEST PUSH2 0xE77 DUP2 PUSH2 0xA17 JUMP JUMPDEST DUP3 MSTORE POP POP JUMP JUMPDEST PUSH0 PUSH1 0x80 DUP4 ADD PUSH0 DUP4 ADD MLOAD PUSH2 0xE92 PUSH0 DUP7 ADD DUP3 PUSH2 0xE08 JUMP JUMPDEST POP PUSH1 0x20 DUP4 ADD MLOAD PUSH2 0xEA5 PUSH1 0x20 DUP7 ADD DUP3 PUSH2 0xE17 JUMP JUMPDEST POP PUSH1 0x40 DUP4 ADD MLOAD DUP5 DUP3 SUB PUSH1 0x40 DUP7 ADD MSTORE PUSH2 0xEBD DUP3 DUP3 PUSH2 0xE36 JUMP JUMPDEST SWAP2 POP POP PUSH1 0x60 DUP4 ADD MLOAD PUSH2 0xED2 PUSH1 0x60 DUP7 ADD DUP3 PUSH2 0xE6E JUMP JUMPDEST POP DUP1 SWAP2 POP POP SWAP3 SWAP2 POP POP JUMP JUMPDEST PUSH0 PUSH2 0xEE8 DUP4 DUP4 PUSH2 0xE7D JUMP JUMPDEST SWAP1 POP SWAP3 SWAP2 POP POP JUMP JUMPDEST PUSH0 PUSH1 0x20 DUP3 ADD SWAP1 POP SWAP2 SWAP1 POP JUMP JUMPDEST PUSH0 PUSH2 0xF06 DUP3 PUSH2 0xDDF JUMP JUMPDEST PUSH2 0xF10 DUP2 DUP6 PUSH2 0xDE9 JUMP JUMPDEST SWAP4 POP DUP4 PUSH1 0x20 DUP3 MUL DUP6 ADD PUSH2 0xF22 DUP6 PUSH2 0xDF9 JUMP JUMPDEST DUP1 PUSH0 JUMPDEST DUP6 DUP2 LT ISZERO PUSH2 0xF5D JUMPI DUP5 DUP5 SUB DUP10 MSTORE DUP2 MLOAD PUSH2 0xF3E DUP6 DUP3 PUSH2 0xEDD JUMP JUMPDEST SWAP5 POP PUSH2 0xF49 DUP4 PUSH2 0xEF0 JUMP JUMPDEST SWAP3 POP PUSH1 0x20 DUP11 ADD SWAP10 POP POP PUSH1 0x1 DUP2 ADD SWAP1 POP PUSH2 0xF25 JUMP JUMPDEST POP DUP3 SWAP8 POP DUP8 SWAP6 POP POP POP POP POP POP SWAP3 SWAP2 POP POP JUMP JUMPDEST PUSH0 PUSH1 0x20 DUP3 ADD SWAP1 POP DUP2 DUP2 SUB PUSH0 DUP4 ADD MSTORE PUSH2 0xF87 DUP2 DUP5 PUSH2 0xEFC JUMP JUMPDEST SWAP1 POP SWAP3 SWAP2 POP POP JUMP JUMPDEST PUSH2 0xF98 DUP2 PUSH2 0xA17 JUMP JUMPDEST DUP2 EQ PUSH2 0xFA2 JUMPI PUSH0 DUP1 REVERT JUMPDEST POP JUMP JUMPDEST PUSH0 DUP2 CALLDATALOAD SWAP1 POP PUSH2 0xFB3 DUP2 PUSH2 0xF8F JUMP JUMPDEST SWAP3 SWAP2 POP POP JUMP JUMPDEST PUSH0 DUP1 PUSH1 0x40 DUP4 DUP6 SUB SLT ISZERO PUSH2 0xFCF JUMPI PUSH2 0xFCE PUSH2 0x98A JUMP JUMPDEST JUMPDEST PUSH0 PUSH2 0xFDC DUP6 DUP3 DUP7 ADD PUSH2 0xB20 JUMP JUMPDEST SWAP3 POP POP PUSH1 0x20 PUSH2 0xFED DUP6 DUP3 DUP7 ADD PUSH2 0xFA5 JUMP JUMPDEST SWAP2 POP POP SWAP3 POP SWAP3 SWAP1 POP JUMP JUMPDEST PUSH32 0x4E487B7100000000000000000000000000000000000000000000000000000000 PUSH0 MSTORE PUSH1 0x22 PUSH1 0x4 MSTORE PUSH1 0x24 PUSH0 REVERT JUMPDEST PUSH0 PUSH1 0x2 DUP3 DIV SWAP1 POP PUSH1 0x1 DUP3 AND DUP1 PUSH2 0x103B JUMPI PUSH1 0x7F DUP3 AND SWAP2 POP JUMPDEST PUSH1 0x20 DUP3 LT DUP2 SUB PUSH2 0x104E JUMPI PUSH2 0x104D PUSH2 0xFF7 JUMP JUMPDEST JUMPDEST POP SWAP2 SWAP1 POP JUMP JUMPDEST PUSH0 DUP2 SWAP1 POP DUP2 PUSH0 MSTORE PUSH1 0x20 PUSH0 KECCAK256 SWAP1 POP SWAP2 SWAP1 POP JUMP JUMPDEST PUSH0 PUSH1 0x20 PUSH1 0x1F DUP4 ADD DIV SWAP1 POP SWAP2 SWAP1 POP JUMP JUMPDEST PUSH0 DUP3 DUP3 SHL SWAP1 POP SWAP3 SWAP2 POP POP JUMP JUMPDEST PUSH0 PUSH1 0x8 DUP4 MUL PUSH2 0x10B0 PUSH32 0xFFFFFFFFFFFFFFFFFFFFFFFFFFFFFFFFFFFFFFFFFFFFFFFFFFFFFFFFFFFFFFFF DUP3 PUSH2 0x1075 JUMP JUMPDEST PUSH2 0x10BA DUP7 DUP4 PUSH2 0x1075 JUMP JUMPDEST SWAP6 POP DUP1 NOT DUP5 AND SWAP4 POP DUP1 DUP7 AND DUP5 OR SWAP3 POP POP POP SWAP4 SWAP3 POP POP POP JUMP JUMPDEST PUSH0 DUP2 SWAP1 POP SWAP2 SWAP1 POP JUMP JUMPDEST PUSH0 PUSH2 0x10F5 PUSH2 0x10F0 PUSH2 0x10EB DUP5 PUSH2 0xAA1 JUMP JUMPDEST PUSH2 0x10D2 JUMP JUMPDEST PUSH2 0xAA1 JUMP JUMPDEST SWAP1 POP SWAP2 SWAP1 POP JUMP JUMPDEST PUSH0 DUP2 SWAP1 POP SWAP2 SWAP1 POP JUMP JUMPDEST PUSH2 0x110E DUP4 PUSH2 0x10DB JUMP JUMPDEST PUSH2 0x1122 PUSH2 0x111A DUP3 PUSH2 0x10FC JUMP JUMPDEST DUP5 DUP5 SLOAD PUSH2 0x1081 JUMP JUMPDEST DUP3 SSTORE POP POP POP POP JUMP JUMPDEST PUSH0 SWAP1 JUMP JUMPDEST PUSH2 0x1136 PUSH2 0x112A JUMP JUMPDEST PUSH2 0x1141 DUP2 DUP5 DUP5 PUSH2 0x1105 JUMP JUMPDEST POP POP POP JUMP JUMPDEST JUMPDEST DUP2 DUP2 LT ISZERO PUSH2 0x1164 JUMPI PUSH2 0x1159 PUSH0 DUP3 PUSH2 0x112E JUMP JUMPDEST PUSH1 0x1 DUP2 ADD SWAP1 POP PUSH2 0x1147 JUMP JUMPDEST POP POP JUMP JUMPDEST PUSH1 0x1F DUP3 GT ISZERO PUSH2 0x11A9 JUMPI PUSH2 0x117A DUP2 PUSH2 0x1054 JUMP JUMPDEST PUSH2 0x1183 DUP5 PUSH2 0x1066 JUMP JUMPDEST DUP2 ADD PUSH1 0x20 DUP6 LT ISZERO PUSH2 0x1192 JUMPI DUP2 SWAP1 POP JUMPDEST PUSH2 0x11A6 PUSH2 0x119E DUP6 PUSH2 0x1066 JUMP JUMPDEST DUP4 ADD DUP3 PUSH2 0x1146 JUMP JUMPDEST POP POP JUMPDEST POP POP POP JUMP JUMPDEST PUSH0 DUP3 DUP3 SHR SWAP1 POP SWAP3 SWAP2 POP POP JUMP JUMPDEST PUSH0 PUSH2 0x11C9 PUSH0 NOT DUP5 PUSH1 0x8 MUL PUSH2 0x11AE JUMP JUMPDEST NOT DUP1 DUP4 AND SWAP2 POP POP SWAP3 SWAP2 POP POP JUMP JUMPDEST PUSH0 PUSH2 0x11E1 DUP4 DUP4 PUSH2 0x11BA JUMP JUMPDEST SWAP2 POP DUP3 PUSH1 0x2 MUL DUP3 OR SWAP1 POP SWAP3 SWAP2 POP POP JUMP JUMPDEST PUSH2 0x11FA DUP3 PUSH2 0xA31 JUMP JUMPDEST PUSH8 0xFFFFFFFFFFFFFFFF DUP2 GT ISZERO PUSH2 0x1213 JUMPI PUSH2 0x1212 PUSH2 0xBC0 JUMP JUMPDEST JUMPDEST PUSH2 0x121D DUP3 SLOAD PUSH2 0x1024 JUMP JUMPDEST PUSH2 0x1228 DUP3 DUP3 DUP6 PUSH2 0x1168 JUMP JUMPDEST PUSH0 PUSH1 0x20 SWAP1 POP PUSH1 0x1F DUP4 GT PUSH1 0x1 DUP2 EQ PUSH2 0x1259 JUMPI PUSH0 DUP5 ISZERO PUSH2 0x1247 JUMPI DUP3 DUP8 ADD MLOAD SWAP1 POP JUMPDEST PUSH2 0x1251 DUP6 DUP3 PUSH2 0x11D6 JUMP JUMPDEST DUP7 SSTORE POP PUSH2 0x12B8 JUMP JUMPDEST PUSH1 0x1F NOT DUP5 AND PUSH2 0x1267 DUP7 PUSH2 0x1054 JUMP JUMPDEST PUSH0 JUMPDEST DUP3 DUP2 LT ISZERO PUSH2 0x128E JUMPI DUP5 DUP10 ADD MLOAD DUP3 SSTORE PUSH1 0x1 DUP3 ADD SWAP2 POP PUSH1 0x20 DUP6 ADD SWAP5 POP PUSH1 0x20 DUP2 ADD SWAP1 POP PUSH2 0x1269 JUMP JUMPDEST DUP7 DUP4 LT ISZERO PUSH2 0x12AB JUMPI DUP5 DUP10 ADD MLOAD PUSH2 0x12A7 PUSH1 0x1F DUP10 AND DUP3 PUSH2 0x11BA JUMP JUMPDEST DUP4 SSTORE POP JUMPDEST PUSH1 0x1 PUSH1 0x2 DUP9 MUL ADD DUP9 SSTORE POP POP POP JUMPDEST POP POP POP POP POP POP JUMP JUMPDEST PUSH32 0x50617469656E74206E6F74207265676973746572656400000000000000000000 PUSH0 DUP3 ADD MSTORE POP JUMP JUMPDEST PUSH0 PUSH2 0x12F4 PUSH1 0x16 DUP4 PUSH2 0xA3B JUMP JUMPDEST SWAP2 POP PUSH2 0x12FF DUP3 PUSH2 0x12C0 JUMP JUMPDEST PUSH1 0x20 DUP3 ADD SWAP1 POP SWAP2 SWAP1 POP JUMP JUMPDEST PUSH0 PUSH1 0x20 DUP3 ADD SWAP1 POP DUP2 DUP2 SUB PUSH0 DUP4 ADD MSTORE PUSH2 0x1321 DUP2 PUSH2 0x12E8 JUMP JUMPDEST SWAP1 POP SWAP2 SWAP1 POP JUMP JUMPDEST PUSH32 0x4170706F696E746D656E742074696D65206D75737420626520696E2074686520 PUSH0 DUP3 ADD MSTORE PUSH32 0x6675747572650000000000000000000000000000000000000000000000000000 PUSH1 0x20 DUP3 ADD MSTORE POP JUMP JUMPDEST PUSH0 PUSH2 0x1382 PUSH1 0x26 DUP4 PUSH2 0xA3B JUMP JUMPDEST SWAP2 POP PUSH2 0x138D DUP3 PUSH2 0x1328 JUMP JUMPDEST PUSH1 0x40 DUP3 ADD SWAP1 POP SWAP2 SWAP1 POP JUMP JUMPDEST PUSH0 PUSH1 0x20 DUP3 ADD SWAP1 POP DUP2 DUP2 SUB PUSH0 DUP4 ADD MSTORE PUSH2 0x13AF DUP2 PUSH2 0x1376 JUMP JUMPDEST SWAP1 POP SWAP2 SWAP1 POP JUMP JUMPDEST PUSH32 0x4F6E6C792074686520646F63746F722063616E20706572666F726D2074686973 PUSH0 DUP3 ADD MSTORE PUSH32 0x20616374696F6E00000000000000000000000000000000000000000000000000 PUSH1 0x20 DUP3 ADD MSTORE POP JUMP JUMPDEST PUSH0 PUSH2 0x1410 PUSH1 0x27 DUP4 PUSH2 0xA3B JUMP JUMPDEST SWAP2 POP PUSH2 0x141B DUP3 PUSH2 0x13B6 JUMP JUMPDEST PUSH1 0x40 DUP3 ADD SWAP1 POP SWAP2 SWAP1 POP JUMP JUMPDEST PUSH0 PUSH1 0x20 DUP3 ADD SWAP1 POP DUP2 DUP2 SUB PUSH0 DUP4 ADD MSTORE PUSH2 0x143D DUP2 PUSH2 0x1404 JUMP JUMPDEST SWAP1 POP SWAP2 SWAP1 POP JUMP JUMPDEST PUSH32 0x496E76616C6964206170706F696E746D656E7420696E64657800000000000000 PUSH0 DUP3 ADD MSTORE POP JUMP JUMPDEST PUSH0 PUSH2 0x1478 PUSH1 0x19 DUP4 PUSH2 0xA3B JUMP JUMPDEST SWAP2 POP PUSH2 0x1483 DUP3 PUSH2 0x1444 JUMP JUMPDEST PUSH1 0x20 DUP3 ADD SWAP1 POP SWAP2 SWAP1 POP JUMP JUMPDEST PUSH0 PUSH1 0x20 DUP3 ADD SWAP1 POP DUP2 DUP2 SUB PUSH0 DUP4 ADD MSTORE PUSH2 0x14A5 DUP2 PUSH2 0x146C JUMP JUMPDEST SWAP1 POP SWAP2 SWAP1 POP JUMP JUMPDEST PUSH32 0x4E487B7100000000000000000000000000000000000000000000000000000000 PUSH0 MSTORE PUSH1 0x32 PUSH1 0x4 MSTORE PUSH1 0x24 PUSH0 REVERT JUMPDEST PUSH0 PUSH1 0x40 DUP3 ADD SWAP1 POP PUSH2 0x14EC PUSH0 DUP4 ADD DUP6 PUSH2 0xB5F JUMP JUMPDEST PUSH2 0x14F9 PUSH1 0x20 DUP4 ADD DUP5 PUSH2 0xAAA JUMP JUMPDEST SWAP4 SWAP3 POP POP POP JUMP INVALID LOG2 PUSH5 0x6970667358 0x22 SLT KECCAK256 0xCA MSIZE BLOBHASH BYTE COINBASE 0xF6 SMOD BLOCKHASH PUSH5 0x8F0F777898 0xD5 LOG4 0xAF 0xA8 BALANCE 0xD2 0xCC LOG3 BALANCE PUSH29 0xFCC66710AA8CCF5C64736F6C634300081A003300000000000000000000 "
				},
				"gasEstimates": {
					"creation": {
						"codeDepositCost": "1086000",
						"executionCost": "infinite",
						"totalCost": "infinite"
					},
					"external": {
						"appointments(uint256)": "infinite",
						"bookAppointment(uint256,string)": "infinite",
						"doctor()": "2530",
						"getAppointments()": "infinite",
						"patients(address)": "infinite",
						"registerPatient(string,uint256,string)": "infinite",
						"respondToAppointment(uint256,bool)": "infinite"
					}
				},
				"methodIdentifiers": {
					"appointments(uint256)": "12dc9013",
					"bookAppointment(uint256,string)": "6e4abaae",
					"doctor()": "7ea7118c",
					"getAppointments()": "96b80d08",
					"patients(address)": "0869cfbc",
					"registerPatient(string,uint256,string)": "1d14c36e",
					"respondToAppointment(uint256,bool)": "f1d6e254"
				}
			},
			"storageLayout": {
				"storage": [
					{
						"astId": 24,
						"contract": "Appointment.sol:HospitalManagement",
						"label": "patients",
						"offset": 0,
						"slot": "0",
						"type": "t_mapping(t_address,t_struct(Patient)10_storage)"
					},
					{
						"astId": 28,
						"contract": "Appointment.sol:HospitalManagement",
						"label": "appointments",
						"offset": 0,
						"slot": "1",
						"type": "t_array(t_struct(Appointment)19_storage)dyn_storage"
					},
					{
						"astId": 30,
						"contract": "Appointment.sol:HospitalManagement",
						"label": "doctor",
						"offset": 0,
						"slot": "2",
						"type": "t_address"
					}
				],
				"types": {
					"t_address": {
						"encoding": "inplace",
						"label": "address",
						"numberOfBytes": "20"
					},
					"t_array(t_struct(Appointment)19_storage)dyn_storage": {
						"base": "t_struct(Appointment)19_storage",
						"encoding": "dynamic_array",
						"label": "struct HospitalManagement.Appointment[]",
						"numberOfBytes": "32"
					},
					"t_bool": {
						"encoding": "inplace",
						"label": "bool",
						"numberOfBytes": "1"
					},
					"t_mapping(t_address,t_struct(Patient)10_storage)": {
						"encoding": "mapping",
						"key": "t_address",
						"label": "mapping(address => struct HospitalManagement.Patient)",
						"numberOfBytes": "32",
						"value": "t_struct(Patient)10_storage"
					},
					"t_string_storage": {
						"encoding": "bytes",
						"label": "string",
						"numberOfBytes": "32"
					},
					"t_struct(Appointment)19_storage": {
						"encoding": "inplace",
						"label": "struct HospitalManagement.Appointment",
						"members": [
							{
								"astId": 12,
								"contract": "Appointment.sol:HospitalManagement",
								"label": "patientAddress",
								"offset": 0,
								"slot": "0",
								"type": "t_address"
							},
							{
								"astId": 14,
								"contract": "Appointment.sol:HospitalManagement",
								"label": "appointmentTime",
								"offset": 0,
								"slot": "1",
								"type": "t_uint256"
							},
							{
								"astId": 16,
								"contract": "Appointment.sol:HospitalManagement",
								"label": "reason",
								"offset": 0,
								"slot": "2",
								"type": "t_string_storage"
							},
							{
								"astId": 18,
								"contract": "Appointment.sol:HospitalManagement",
								"label": "confirmed",
								"offset": 0,
								"slot": "3",
								"type": "t_bool"
							}
						],
						"numberOfBytes": "128"
					},
					"t_struct(Patient)10_storage": {
						"encoding": "inplace",
						"label": "struct HospitalManagement.Patient",
						"members": [
							{
								"astId": 3,
								"contract": "Appointment.sol:HospitalManagement",
								"label": "exists",
								"offset": 0,
								"slot": "0",
								"type": "t_bool"
							},
							{
								"astId": 5,
								"contract": "Appointment.sol:HospitalManagement",
								"label": "name",
								"offset": 0,
								"slot": "1",
								"type": "t_string_storage"
							},
							{
								"astId": 7,
								"contract": "Appointment.sol:HospitalManagement",
								"label": "age",
								"offset": 0,
								"slot": "2",
								"type": "t_uint256"
							},
							{
								"astId": 9,
								"contract": "Appointment.sol:HospitalManagement",
								"label": "medicalHistory",
								"offset": 0,
								"slot": "3",
								"type": "t_string_storage"
							}
						],
						"numberOfBytes": "128"
					},
					"t_uint256": {
						"encoding": "inplace",
						"label": "uint256",
						"numberOfBytes": "32"
					}
				}
			},
			"userdoc": {
				"kind": "user",
				"methods": {},
				"version": 1
			}
		}
	}
}